S01700006275696C642F697269732F6D61696E2E7372656343
S11300000C947C010C949B010C949B010C949B011B
S11300100C949B010C949B010C949B010C949B01EC
S11300200C949B010C949B010C949B010C949B01DC
S11300300C949B010C945A090C949B010C94950408
S11300400C94730C0C94AA0C0C944C050C9457054A
S11300500C9462050C949B010C949B010C949B01E1
S11300600C94A9040C944D070C949B010C94D00798
S11300700C949B010C949B010C949B010C942709F8
S11300800C9406090C9411090C941C090C943A095B
S11300900C94E9080C949B010C94FB080C949B01B0
S11300A00C949B010C949B010C949B010C949B015C
S11300B00C949B010C949B010C949B010C949B014C
S11300C00C949B010C949B010C949B010B0DB10DA2
S11300D0840E5D137D138D1300145F14BB14F01490
S11300E09415F8140C159A157B16A316A516B016BC
S11300F0F01600002110422063308440A550C660F1
S1130100E770088129914AA16BB18CC1ADD1CEE1D0
S1130110EFF13112100273325222B5529442F77247
S1130120D662399318837BB35AA3BDD39CC3FFF320
S1130130DEE36224433420040114E664C774A44457
S113014085546AA54BB528850995EEE5CFF5ACC570
S11301508DD55336722611163006D776F666955627
S1130160B4465BB77AA719973887DFF7FEE79DD7C0
S1130170BCC7C448E5588668A778400861180228B7
S11301802338CCC9EDD98EE9AFF9488969990AA910
S11301902BB9F55AD44AB77A966A711A500A333A87
S11301A0122AFDDBDCCBBFFB9EEB799B588B3BBB60
S11301B01AABA66C877CE44CC55C222C033C600C17
S11301C0411CAEED8FFDECCDCDDD2AAD0BBD688DB0
S11301D0499D977EB66ED55EF44E133E322E511E67
S11301E0700E9FFFBEEFDDDFFCCF1BBF3AAF599F00
S11301F0788F8891A981CAB1EBA10CD12DC14EF1A0
S11302006FE18010A100C230E32004502540467005
S11302106760B9839893FBA3DAB33DC31CD37FE330
S11302205EF3B1029012F322D23235421452776255
S11302305672EAB5CBA5A89589856EF54FE52CD500
S11302400DC5E234C324A0148104667447642454A5
S11302500544DBA7FAB79987B8975FE77EF71DC710
S11302603CD7D326F2369106B016576676761546F5
S113027034564CD96DC90EF92FE9C899E9898AB960
S1130280ABA94458654806782768C018E108823845
S1130290A3287DCB5CDB3FEB1EFBF98BD89BBBAB70
S11302A09ABB754A545A376A167AF10AD01AB32A95
S11302B0923A2EFD0FED6CDD4DCDAABD8BADE89DC0
S11302C0C98D267C076C645C454CA23C832CE01CE5
S11302D0C10C1FEF3EFF5DCF7CDF9BAFBABFD98F50
S11302E0F89F176E367E554E745E932EB23ED10E35
S11302F0F01E00020E060C0411241FBECFEFD1E243
S1130300DEBFCDBF12E0A0E0B2E0EEE1F8E300E032
S11303100BBF02C007900D92A231B107D9F718E0C4
S1130320A2E1B2E001C01D92A33CB107E1F70E9433
S11303308F170C940E1C0C9400008FB7F894992717
S113034008958FBF08958FB7F894992722B131E0AB
S1130350232722B98FBF0895282F9FB7F894E82F39
S1130360FF27EF5BFD4F80818F3F81F4E091B6085A
S1130370E21771F40BC02093130804C0FF27EF5B4E
S1130380FD4F20832093B60820E007C025E005C078
S1130390809113088F3F91F7EECF892F99278FBF54
S11303A0822F99270895809184038A3021F48091C3
S11303B07802843021F081E08093140208958FE064
S11303C00E94AC011092140208952FB7F8943327B9
S11303D08093C600E0ECF0E08081806480832FBFCE
S11303E00895FC016115710519F481E090E0089508
S11303F080918C0290918D02892B19F085E090E018
S113040008957093030860930208F0938D02E093BB
S11304108C0210927A021092790281E080937B021E
S11304208091C00080648093C0008091C10080648A
S11304308093C100808121E030E030937A022093E0
S113044079020E94E50180E090E008958FB7F89466
S11304509927209125022E7F209325022EE72093B1
S113046054028FBF61E070E084E592E00E94F101E4
S1130470992708951F931FB7F8948091B008882393
S113048041F48DE00E94AC01882319F481E080934B
S1130490B008812F99278FBF1F910895882319F0E1
S11304A08CB5806402C08CB58F7B8CBD08950F938E
S11304B01F93982F1FB7F89480911302823099F5F7
S11304C080910A02891779F58091080220E030E0D2
S11304D08F3F11F421E030E0232BF1F49FEF909350
S11304E00A028F3F19F42FEF30E00DC0282F332775
S11304F0F901E757FD4F8081809308028F3F11F483
S113050090930902908320938B0281E080931302DD
S11305108CE00E94AC0105C08FEF80930A02109218
S1130520130201E001C000E0812F99278FBF1FB79C
S1130530F89480911302882311F40E944E02812FB3
S113054099278FBF90E0013009F491E081E098276A
S1130550892F99271F910F9108957FB7F89460917F
S1130560B20020913C0230913D0240913E025091F4
S11305703F02B99B11C08091B3009091B200280F43
S1130580311D411D511D2F5F3F4F4F4F5F4F290FAD
S1130590311D411D511D04C0260F311D411D511D2A
S11305A0872F99278FBFCA01B901089589E00E9456
S11305B0AC010895DF92EF92FF920F931F938FB7D0
S11305C0F894282F3327D22E9091B3008091B20053
S11305D047B3981711F041FF02C02FBF71C080913B
S11305E07D028823E1F10E94AD02E0903402F09094
S11305F0350200913602109137022091190830918A
S11306001A0840911B0850911C086E197F09800B31
S1130610910B621773078407950720F010927D02EF
S113062071E01EC02E0D3F1D401F511F80913C02E2
S113063090913D02A0913E02B0913F02281B390BDC
S11306404A0B5B0B273E31054105510540F4822FCF
S1130650223010F070E005C070E082E002C070E06B
S113066086EE682F61508091B60083FDFCCF8091A7
S1130670B200681709F46F5F20913C0230913D028B
S113068040913E0250913F02DA01C9010196A11D39
S1130690B11D860F911DA11DB11D82179307A407DB
S11306A0B50710F4622F60958091B60083FDFCCFEE
S11306B06093B300DFBE772319F088E00E94AC0199
S11306C01F910F91FF90EF90DF900895AFB7F894CA
S11306D0BB27E1E0E0937D0260933402709335021E
S11306E080933602909337022093190830931A08A6
S11306F040931B0850931C08AFBF0E94DA02089570
S1130700AC01EFB7F8942091840030918500C901C1
S1130710841B950B03968617970720F0B9016D5F2C
S11307207F4F02C0640F751F6115710511F461E0FC
S113073070E061507040709389006093880082E09B
S113074086BB80916F00826080936F008E2F992703
S11307508FBF0895EF92FF920F931F937C018FB781
S1130760F894992700918803109189030F5E1E4F16
S11307701093890300938803015111408FBF87E0D0
S11307800E94AC01C801B7010E94681B8A5D9E4F9C
S11307901F910F91FF90EF900895882319F08CB565
S11307A0806802C08CB58F778CBD08950F931F931A
S11307B080E00E944E020FB7F8941127229A2398E2
S11307C0219A209A8CB580618CBD80E00E94CD0373
S11307D08CB5877F8CBD8CB58B7F8CBD81E00E94EE
S11307E04E028DB581608DBD8CB58C7F8CBD0FBFE5
S11307F01F910F910895FB0121E030E002C0220F08
S1130800331F8A95E2F784A5822B84A708958FB7B6
S1130810F8942091160330911703409118035091D6
S11308201903E0918400F0918500B09B08C02F5F0C
S11308303F4F4F4F5F4FE0918400F091850099271F
S11308408FBFC901772766279F0144275527622B4D
S1130850732B842B952B0895FC0182819927982F63
S1130860882721813327822B932B25E09695879522
S11308702A95E1F781709070089580931D0888236C
S113088011F484E001C081E08093760285E00E9447
S1130890AC010895CF93DF93EC010E942C048823CC
S11308A039F18A8129819927982F88273327822B28
S11308B0932B87749C7C81549848D1F48F814E810A
S11308C02FB7F894332760910202709103022FBF6F
S11308D020E09927982F88275527842B952B861756
S11308E0970709F021E081E02827822F992702C089
S11308F080E090E0DF91CF910895FB0121E030E0AA
S113090002C0220F331F8A95E2F784A58223992718
S11309100895FC018181992780739070816498689F
S11309208183892F9927828308951F920F920FB68E
S11309300F9211248F938091B0008093B000809126
S1130940B60081FDFCCF8F910F900FBE0F901F90CA
S113095018951F920F920FB60F9211240F931F93A5
S11309602F933F934F935F936F937F938F939F93B3
S1130970AF93BF93CF93DF93EF93FF932EB5E091A3
S11309807E03F0917F03309739F0809112039091A8
S11309901303E80FF91F208380911203909113032E
S11309A00196909313038093120380E00E94CD0379
S11309B0C0911203D09113032091290230912A028D
S11309C0C217D30708F042C00091AB081091AC08DD
S11309D040917E0350917F03CE010A962817390770
S11309E008F4C901DA01AC0FBD1FF801EC0FFD1FBB
S11309F09C012150304015C00115110531F0808152
S1130A008EBD0DB407FEFDCF04C01EBC0DB407FEA1
S1130A10FDCF8EB54115510509F08C9321961196A1
S1130A203196C217D30740F381E00E94CD0301152C
S1130A30110531F00C0F1D1FF80180818EBD01C01E
S1130A401EBCD0931303C093120311C010927F03F2
S1130A5010927E031092AC081092AB0810922A02F6
S1130A601092290210921303109212038EB5FF9173
S1130A70EF91DF91CF91BF91AF919F918F917F9132
S1130A806F915F914F913F912F911F910F910F9013
S1130A900FBE0F901F90189578941F920F920FB667
S1130AA00F9211240F900FBE0F901F9018957894F9
S1130AB01F920F920FB60F9211240F900FBE0F903A
S1130AC01F90189578941F920F920FB60F921124CD
S1130AD02F933F938F939F93AF93BF932FB7F89424
S1130AE033278091160390911703A0911803B091B6
S1130AF019030196A11DB11D80931603909317034A
S1130B00A0931803B09319032FBFBF91AF919F9186
S1130B108F913F912F910F900FBE0F901F901895BA
S1130B20E2EFF0E06927660FF11DE60FF11DC895AD
S1130B30982F802D3196C89590250895982F8091EF
S1130B402002882389F5992379F531E03093200236
S1130B5080910B028093210220911502822F8170D3
S1130B6080933A0280911002909111029093230293
S1130B7080932202809116028093240232273170DE
S1130B80267EE32FFF27EE0FFF1FE45FFD4F8081DA
S1130B9091819093110280931002232B20931502CC
S1130BA082E10E94AC0108958091150280FF02C089
S1130BB08B7F01C08D7F8093150208950F931F933F
S1130BC0082F162F809178028130D9F0813038F0C7
S1130BD0823009F44AC0833009F028C159C0002387
S1130BE009F458C11092FB071092FA0710928B0374
S1130BF010920E0810927C0210921B0310921A039A
S1130C0039C1002309F046C180911A0390911B0356
S1130C100E94900590931B0380931A0382E08093B3
S1130C20780210930E08143409F000C125C186958A
S1130C30869503C0809115028695817009F0F6C0EF
S1130C4080911502992311F0846001C08260809321
S1130C50150280911502877E886080931502109298
S1130C6016028FEF80930B0215C1002309F0DEC03A
S1130C7060937C0280911A0390911B030E9490055B
S1130C8090931B0380931A0383E08093780202C13C
S1130C9080918B038F3F09F4C9C0002309F461C01C
S1130CA0823008F4C3C0E091FA07EE2309F4EBC0E4
S1130CB04E2F4150E42FFF27E650F84F82819927A9
S1130CC0382F2227442311F4E2E002C0E42FE1503C
S1130CD0FF27E650F84F82819927282B392B8091E2
S1130CE01A0390911B032817390709F09FC080E06D
S1130CF00E949E0530917C0280910A0320910B038F
S1130D00982F9F5F963008F090E0921771F0E82FCB
S1130D10FF27E65FFC4F32838F5F80930A038630A0
S1130D2010F010920A030E943A021092FB071092EC
S1130D30FA0794E09093780210928B0310920E08B5
S1130D4010927C0210921B0310921A0380912502C8
S1130D508D7F8093250280911402882309F49AC020
S1130D6084C0823008F44EC0E091FB07FF27E650B0
S1130D70F84F8281482F5527342F20911502822F56
S1130D80869586958695837099278130910519F00B
S1130D900297F9F40EC0277E2061209315024423A4
S1130DA011F485E001C080E08093160230930B02B9
S1130DB010C0809116028F3260F4E0911002F0911D
S1130DC01102E80FF11D4083809116028F5F80931A
S1130DD016028091FB07E82FFF27E650F84F628147
S1130DE08F5F8093FB07833010F01092FB07772707
S1130DF080911A0390911B030E94900590931B030A
S1130E0080931A038091FA07E82FFF27E650F84FE2
S1130E1012838F5F8093FA07833010F01092FA07E1
S1130E2080918B038F5F80938B0334C01092FB07F8
S1130E301092FA0714E01093780210928B03109228
S1130E400E0810927C0210921B0310921A038091D8
S1130E5025028D7F8093250281E00E949E0580916A
S1130E601402882329F0109378020E94D30112C03F
S1130E70002381F081E009CF80911502982F9170B1
S1130E8080FDD5CED7CE8091FE079927382F222713
S1130E9042E01CCF1F910F9108951F920F920FB63D
S1130EA00F9211242F933F934F935F936F937F93EC
S1130EB08F939F93AF93BF93EF93FF938091C00061
S1130EC087FF42C06091C600E0911C03F0911D03AE
S1130ED0309719F18091AE089091AF08E80FF91F8F
S1130EE0608301969093AF088093AE082091BB086D
S1130EF03091BC088217930738F110921D031092A9
S1130F001C03809183038330F9F08091C1008F77B3
S1130F108093C1001092830317C06E3719F460E008
S1130F2081E010C0809125026D3721F482608093A6
S1130F3025020AC081FF05C08D7F8093250280E2CF
S1130F40682780E00E94DE05FF91EF91BF91AF9189
S1130F509F918F917F916F915F914F913F912F91CD
S1130F600F900FBE0F901F901895982F8D578230B9
S1130F7068F48091250281608093250280E28927AC
S1130F8080938A038DE78093540202C090935402A5
S1130F9061E070E084E592E00E94F10199270895F0
S1130FA078941F920F920FB60F921124FF920F9311
S1130FB01F932F933F934F935F936F937F938F93DD
S1130FC09F93AF93BF93CF93DF93EF93FF932091BE
S1130FD0790230917A0280910208909103082817CF
S1130FE0390780F4E0918C02F0918D02E20FF31F37
S1130FF080812F5F3F4F30937A02209379020E94C1
S1131000E501D1C010928D0210928C0210927B02E5
S11310108091C1008F7B8093C100FFB6F8948091CA
S1131020250280FF0EC08E7F8093250280918A0363
S11310308093540261E070E084E592E00E94F10143
S1131040AFC080918403843009F48CC0853040F4AF
S1131050823021F18330B8F5813009F09CC00DC095
S1131060863009F48DC0863008F483C0873009F4D3
S11310708EC0883009F08FC091C080918A020E948E
S1131080B507082F83E08093840360918A028091DE
S1131090B9089091BA080E94900510C08091170871
S11310A00E94B507082F83E080938403609117089A
S11310B08091B9089091BA080E9490059093BA085B
S11310C08093B90866C0E0911F03FF27EE0FFF1F4E
S11310D0E057FD4F80810E94B507082F10911F0330
S11310E0C12FDD27FE01EE0FFF1FE057FD4F60818A
S11310F08091B9089091BA080E9490059093BA081B
S11311008093B908209188022F5F209388021130C0
S113111039F580911C02E0911702F0911802E80F52
S1131120F11DE0818F5F80931C0290911B02981740
S113113030F482E08093910240E050E002C04E2FF0
S11311405527DE01AA0FBB1FFD01E157FD4F80812A
S1131150823031F02F3F21F0A057BD4F4C9319C07E
S113116084E012C08091B9080E94B507082F85E079
S11311700BC08091BA080E94B507082F86E004C00E
S11311800E942602082F87E08093840302C088E02F
S113119003C0002329F089E0809384030E943A026B
S11311A08F2D99278FBFFF91EF91DF91CF91BF9141
S11311B0AF919F918F917F916F915F914F913F91EB
S11311C02F911F910F91FF900F900FBE0F901F90C2
S11311D018951F920F920FB60F9211248F9380913E
S11311E0C80087FF02C08091CE008F910F900FBE80
S11311F00F901F90189578941F920F920FB60F922C
S113120011240F900FBE0F901F90189578941F9281
S11312100F920FB60F9211240F900FBE0F901F90D4
S1131220189578941F920F920FB60F9211240F9075
S11312300FBE0F901F90189578941F920F920FB6BF
S11312400F9211240F900FBE0F901F901895789451
S11312501F920F920FB60F9211248F939F93809138
S11312609600909197009F918F910F900FBE0F90D1
S11312701F90189578941F920F920FB60F92112415
S11312802F933F938F939F932FB7F8943327809195
S11312908402909185020196909385028093840242
S11312A02FBF9F918F913F912F910F900FBE0F9061
S11312B01F9018951F920F920FB60F9211242F931F
S11312C03F934F935F936F937F938F939F93AF93CA
S11312D0BF93EF93FF938091B0008093B00080910F
S11312E0B60081FDFCCF8091B30099270196AA270F
S11312F0BB2720913C0230913D0240913E02509127
S11313003F02280F391F4A1F5B1F20933C02309372
S11313103D0240933E0250933F0278940E94DA02C9
S1131320FF91EF91BF91AF919F918F917F916F91B9
S11313305F914F913F912F910F900FBE0F901F908F
S113134018951F93982F1FB7F8948091120282303A
S113135099F580910702891779F58091050220E0BB
S113136030E08F3F11F421E030E0232BF1F49FEFC4
S1131370909307028F3F19F42FEF30E00DC0282F10
S11313803327F901EE58FD4F8081809305028F3F8A
S113139011F49093060290832093570281E0809386
S11313A0120283E00E94AC0105C08FEF8093070214
S11313B01092120221E001C020E0812F99278FBFF3
S11313C090E0213009F491E081E09827892F992752
S11313D01F9108950F931F93CF93DF93182F0FB787
S11313E0F89480911302882311F40E94D603802F6D
S11313F099278FBF8FB7F894C82FDD272C2F8091A2
S11314001302882361F481E08093130210938B020A
S11314108CE00E94AC01CFBF80E090E021C0E12FBE
S1131420FF27E757FD4F80818F3F89F4E091090240
S1131430E11789F40CC01093080204C0FF27E75792
S1131440FD4F10831093090280E090E002C085E014
S113145090E02FBF05C0809108028F3F79F7EBCF52
S1131460DF91CF911F910F9108958FB7F894282F92
S11314703327922F80910A02882331F4809113023A
S1131480823011F42FBF13C09FBF8FB7F894282F59
S1131490332780911302882369F482E08093130236
S11314A010920A022FBF0E94D603209A289A81E044
S11314B090E008952FBF80E00E94EA0980E090E068
S11314C00895FC018FE38287809126028F5F8093C9
S11314D02602838380917602882311F085E00DC073
S11314E0F0938603E093850381E080937602109263
S11314F0820385E00E94AC0180E0992708958091E1
S11315007602823031F481E08093760285E00E9495
S1131510AC010895FF920F931F93CF93DF93EC01D7
S1131520FFB6F89480918302882321F580913302D9
S11315309927FC01EE0FFF1FE65AFD4F0081118130
S1131540D183C08301966CE070E00E947C1B809381
S1131550330220918703281719F481E080938302D2
S113156080911808882349F40E94AC0181E080939B
S1131570180803C00E94A3018E018F2D99278FBFE5
S1131580C801DF91CF911F910F91FF9008954F9261
S11315905F926F927F928F929F92AF92BF92CF92FF
S11315A0DF92EF92FF920F931F93CF93DF932C015F
S11315B080912702882309F083C18091AD0885308A
S11315C009F07EC10E94350A882309F479C180910B
S11315D0FF07882309F074C1B20182E00E947D04F0
S11315E0882311F490E003C0F20196A59F708091C6
S11315F0C202981781F09093C202289885EC8EBDA0
S11316000DB407FEFDCF8EB590689EBD0DB407FEE8
S1131610FDCF8EB5289AE20121968981F2012181BC
S113162040E09927982F88273327822B932B8774A0
S11316309C7C8154984809F441E0442301F12898A2
S113164086E88EBD0DB407FEFDCF8EB51EBC0DB46D
S113165007FEFDCF8EB5289A99278F71907020913F
S1131660820240917302240F312D311D43E03595E0
S113167027954A95E1F7281739070CF421C12898D2
S113168082EC8EBD0DB407FEFDCF8EB589E08EBD14
S11316900DB407FEFDCF8EB5289A0E9407047B0186
S11316A08C01B20184E00E947D04882319F4E0E0F7
S11316B0F0E006C0D2018C918550F201E80FF11DD3
S11316C0289881E88EBD0DB407FEFDCF8EB51EBCF3
S11316D00DB407FEFDCF8EB5289A8F71893079F04D
S11316E0289882EC8EBD0DB407FEFDCF8EB586E042
S11316F08EBD0DB407FEFDCF8EB5289AE1C08FB71D
S1131700F89499272F9A20918400309185008FBFF7
S11317102F98289880E68EBDD2019C910DB407FEC7
S1131720FDCF8EB59EBD792F7250773010F4672FA0
S113173001C067E0DE01962F4D910DB407FEFDCF89
S11317408EB54EBD9150C1F76150C60FD11D6F5F6C
S113175021962E193F092E553F4F3901882477FCD5
S11317608094982C6E0C7F1C801E911E309719F467
S1131770972F961B42C02081E1808281A380992704
S1131780AA27BB27BA2FA92F982F882733274427A6
S11317905527522F442733272227FF2400271127B8
S11317A08701FF24EE242E293F29402B512BBB24F3
S11317B0CC24DD242A293B294C295D29822B932B17
S11317C0A42BB52B86199709A809B9098383292F56
S11317D03A2F4B2F552722839D01442755272183D8
S11317E08B2F9927AA27BB278083C2CF28810DB4CA
S11317F007FEFDCF21968EB52EBD9150B8F70DB4DE
S113180007FEFDCF8EB5289A289882EC8EBD0DB4C4
S113181007FEFDCF8EB586E08EBD0DB407FEFDCF6D
S11318208EB5289A3097D1F12081E1808281A380FE
S11318309927AA27BB27BA2FA92F982F88273327A0
S113184044275527522F442733272227FF240027D4
S113185011278701FF24EE242E293F29402B512BE9
S1131860BB24CC24DD242A293B294C295D29822B45
S1131870932BA42BB52B860D971DA81DB91D83830F
S1131880292F3A2F4B2F552722839D014427552773
S113189021838B2F9927AA27BB278083B20181E05C
S11318A00E94FB03F20160A671A682A693A686E0BD
S11318B08093AD0884E08093270280E090E002C02A
S11318C085E090E0DF91CF911F910F91FF90EF9011
S11318D0DF90CF90BF90AF909F908F907F906F904C
S11318E05F904F90089578941F920F920FB60F92C5
S11318F011242F933F934F935F936F937F938F9311
S11319009F93AF93BF93EF93FF93E6E8F0E080815A
S11319109181208131818FB7F89499273093870280
S11319202093860221E02093FF078FBF82E00E946C
S1131930AC01FF91EF91BF91AF919F918F917F91F6
S11319406F915F914F913F912F910F900FBE0F9028
S11319501F90189578941F920F920FB60F9211242E
S11319602F933F934F935F936F937F938F939F93A3
S1131970AF93BF93EF93FF9380916F008D7F80931C
S11319806F0078949FB7F89480918003813019F4A4
S113199082E080938003892F99278FBF82E00E9481
S11319A0AC01FF91EF91BF91AF919F918F917F9186
S11319B06F915F914F913F912F910F900FBE0F90B8
S11319C01F9018952F923F924F925F926F927F9241
S11319D08F929F92AF92BF92CF92DF92EF92FF923B
S11319E00F931F93CF93DF93CDB7DEB729970FB62D
S11319F0F894DEBF0FBECDBFE82FFF27E331F1051A
S1131A0010F00C945917EA59FF4FEE0FFF1F059081
S1131A10F491E02D09948FB7F894282F3327422F9F
S1131A209091330280918703981739F4809183024F
S1131A30882319F410921808A5C04FBFE0918703BA
S1131A40FF27EE0FFF1FE65AFD4F0190F081E02DB6
S1131A5080818D50482F5527642F40931E03138592
S1131A6077810681818520859927982F88273327B8
S1131A70822B932B3481359627E0DF011D922A9522
S1131A80E9F735978087892F992787833287E091F3
S1131A908703FF27EE0FFF1FE65AFD4F0190F081E9
S1131AA0E02D4D3110F00C94C916872F9927982FEB
S1131AB08827202F3327822B932B8683892F9927DE
S1131AC08583138741878091190290911A02892B8B
S1131AD011F00C94C9162FB7F894332785E080933E
S1131AE01C0210921D02F0931802E093170282E088
S1131AF090E090931A028093190210921F021092A0
S1131B001E02645F60931B022FBF8FB7F894282FC7
S1131B103327809184038A3011F42FBF1CC02FBF58
S1131B209FB7F89480919102882311F020E006C0B9
S1131B3081E0809391021092920221E0892F9927EB
S1131B408FBF222341F00E943A028FB7F89499275D
S1131B5022B132E0D5C010921A02109219020C94EC
S1131B60C9168FB7F894282F3327422F9091280253
S1131B708091C208981749F480913202882329F48D
S1131B8010922B022FBF0C9459174FBFE091C2083B
S1131B90FF27EE0FFF1FEE50FD4FA080B180F5012F
S1131BA0F184E580D680078180851127102F0027D6
S1131BB09927082B192BC384C5010E948904F501B8
S1131BC014A6D50111960087012F11270187FCE186
S1131BD0FF1508F48EC5FD018181F501218140E0E6
S1131BE09927982F88273327822B932B87749C7CE3
S1131BF08154984809F441E0442319F4C5010E9432
S1131C0089044E2D5527542F44278D2D9927482B71
S1131C10592B2DE0F20ED501FC922FB7F8943327FF
S1131C2080910202909103022FBFF5018087892FD2
S1131C30992781872FB7F8943327809104022FBF07
S1131C40992784831582C3864683452F5527478366
S1131C508FB7F894282F332780911202882371F4C8
S1131C6082E080931202109207022FBFC5010E94E6
S1131C70610A9927182F882399F00FC02FBFB092BB
S1131C805902A09258028FB7F894082F1127202FD9
S1131C9080911202882399F406C080E00E94A10971
S1131CA0812F992725C081E0809312021092570258
S1131CB083E00E94AC010FBF80E090E019C08091E6
S1131CC072028F3F91F4E0910602EE2371F00C94BE
S1131CD04A171092050204C0FF27EE58FD4F1082E8
S1131CE01092060280E090E002C085E090E02FBFF1
S1131CF0892B09F0FEC48FB7F894992722B134E0F8
S1131D00232722B90C9448178091FF07882309F4EC
S1131D1007C10E94350A882309F402C18FB7F894D9
S1131D20992780908602909087028FBF1092FF07B8
S1131D3028988FE88EBD0DB407FEFDCF8EB51EBC6E
S1131D400DB407FEFDCF8EB5289A982F80912702F7
S1131D50833011F0873031F485E08093AD0888E05A
S1131D6080932702A92EBB24A2FE66C0809127027D
S1131D70863019F41092270203C0882309F05CC04E
S1131D80943009F048C0289886E88EBD0DB407FE4B
S1131D90FDCF8EB51EBC0DB407FEFDCFFEB4289A50
S1131DA0FFE1FF2280917302982F969596952F2D2F
S1131DB0291B820F8093730200913802109139021B
S1131DC0F80184A58B7F84A7B80183E00E94FB03FC
S1131DD0F801F6A60E9407047B018C01C09038022A
S1131DE0D0903902B60181E00E94FB038E189F084F
S1131DF029EF3FEF820E931EC401AA2797FDA095F9
S1131E00BA2F8E0D9F1DA01FB11FF60180A791A7A9
S1131E10A2A7B3A70EC0E0913802F091390284A5BD
S1131E20877F84A7E0913802F091390284A58D7FE1
S1131E3084A785E080932702A3FE72C080912702C5
S1131E40843009F050C085E08093AD0810922702D9
S1131E5080913B02833019F410923B0261C00091DF
S1131E60B7081091B808C8010E942C04882399F17E
S1131E70F801828121819927982F88273327822B83
S1131E80932B87749C7C8154984829F5F8018781A9
S1131E9026819927982F88273327822B932B8F5FAE
S1131EA09F4FC9F090E080918003882309F491E06A
S1131EB0992389F012E010938E0281E080938003CD
S1131EC0809184009091850069E973E00E94800309
S1131ED010933B0225C010923B021092770280E0DF
S1131EE00E943D041DC08530D9F4209182022898B7
S1131EF086E88EBD0DB407FEFDCF8EB51EBC0DB4B5
S1131F0007FEFDCF8EB5289A8F71922F96959695E0
S1131F10891B280F2093820289E08093270208C03E
S1131F2090912702992309F4FBC2993009F028C241
S1131F30289880E28EBD0DB407FEFDCF8EB51EBC81
S1131F400DB407FEFDCF8EB5482F5527433010F44E
S1131F500C945217842F99278A9714F00C945217D3
S1131F601EBCE0913802F09139024083142F1250C4
S1131F70173010F4912F01C097E0BF016F5F7F4FBE
S1131F80292FFB0140E050E00DB407FEFDCF8EB5D4
S1131F901EBC808381914827042E4295407F4025B2
S1131FA0052E542F42954F700426469554274527F5
S1131FB0440F440F440F4025215031F79150DB0169
S1131FC0A90FB11D9F5F1196E0913802F09139027B
S1131FD081818770823009F421E0222349F020E0D6
S1131FE030E080913B02823081F421E030E00DC08A
S1131FF08FB7F894282F332760E08091C005833091
S113200008F461E02FBF262F3327232B09F45CC08B
S1132010191B912F18C00DB407FEFDCF8EB51EBC41
S11320208C938D914827042E4295407F4025052EA0
S1132030542F42954F700426469554274527440F44
S1132040440F440F4025915030F70DB407FEFDCFE7
S11320508EB51EBC9A012827022E2295207F2025AA
S1132060032E322F22952F700226269532272327FE
S1132070220F220F220F20250DB407FEFDCF8EB5AF
S11320801EBC2827022E2295207F2025032E322FC6
S113209022952F700226269532272327220F220FFE
S11320A0220F20250DB407FEFDCF8EB5E091380236
S11320B0F091390285A7289A15E01093AD08109283
S11320C02702232B31F028C20DB407FEFDCF8EB5B5
S11320D0E9C6E0903802F090390267010894C11C07
S11320E0D11CF701818190E0282F332727703070AD
S11320F02230310509F491E080913B02992321F1CA
S1132100823009F038C1F7019381E091B708F0916A
S1132110B8088381981709F02EC12230310509F0DF
S11321202AC180916F008D7F80936F00109280038D
S1132130BF0180E00E94FB0310923B0210927702E1
S113214080E00E943D0417C18823C9F4C7010E949E
S11321504A048823A1F01093C30282E08093C4024E
S11321601092C502F70183818093C60283EC92E04A
S11321700E94C70A882319F483E080933B020091EC
S1132180840010918500C7010E944A04882311F03D
S1132190045E1C4F10931503009314038091840074
S11321A090918500B801681B790B16161706E4F4A4
S11321B0809177028823A9F490E08091800388239A
S11321C009F491E0992381F081E080938E02809359
S11321D0800380918400909185000E94800380E8B0
S11321E001C0806880937702F60180852781992752
S11321F0582F44273327422B532B80914002282FFA
S11322003327F901EE0FFF1FEC5FF74F80819181B7
S1132210709181038417950769F4F901EF54F74F1E
S11322208081871709F472C0872F8F5F80938103A1
S1132230808322C000E010E080E090E034E0A32E30
S113224038E0B32E21EB822E28E0922ED401682FA1
S11322509C01F501808191818417950779F420937D
S11322604002909181038C91891709F44FC0892F02
S11322708F5F809381038C9300E82FC0F4018081E9
S1132280F72FF81B0F1710F40F2F122F6F5FC901D0
S11322900196119622E030E0A20EB31E0894811C30
S11322A0911C8530910599F66530B9F4109340027C
S11322B0A12FBB27FD01EE0FFF1FEC5FF74F5183EA
S11322C04083809181038F5F80938103FD01EF54EC
S11322D0F74F8083A354B74F1C9290918103892FA9
S11322E08F778F3779F40F3768F0E1EBF8E0292F17
S11322F0207880818F6789132083319638E0E63B0C
S1132300F307B9F780914002282F3327F601928111
S1132310A22FBB27FD01E354F74F808180FF07C044
S1132320FD01EF53FA4F8081981729F102C08160B3
S11323308083AF53BA4F9C93DFB6F8948091C00565
S11323408330B0F4E0911608E80FE33008F0E3506E
S1132350FF27EE0FFF1FE45DFD4F00811181F18225
S1132360E0828F5F8093C00586E00E94AC01780113
S11323708D2D99278FBFF0923902E0923802C3C0A5
S1132380892F8150833008F09CC081508230E0F462
S11323903091AD083130C1F420E08091800388236E
S11323A009F421E0222381F02F9883E080938E02A8
S11323B03093800380918400909185006BE273E0F8
S11323C00E94800382E068C0933009F042C080918B
S11323D0AD08833009F0A0C00E94350A8823C9F1F2
S11323E028988FE88EBD0DB407FEFDCF8EB51EBCB8
S11323F00DB407FEFDCF8EB5289A809181008064CC
S11324008093810080E286BB80916F00806280931C
S11324106F0090915602289888EC8EBD0DB407FE8B
S1132420FDCF8EB590669EBD0DB407FEFDCF8EB573
S1132430289A289882EC8EBD0DB407FEFDCF8EB588
S113244086E08EBD0DB407FEFDCF8EB5289A84E0DC
S113245023C0809127028150823000F58091AD081D
S11324608530E1F40E94350A8823C1F0289882EC73
S11324708EBD0DB407FEFDCF8EB583E08EBD0DB4C9
S113248007FEFDCF8EB5289A80916F008F7D8093D3
S11324906F001092FF0783E08093AD0890912702AC
S11324A0913041F48091AD088330B1F52F9A909327
S11324B0AD0825C0923039F58091AD08833061F5BF
S11324C01EC0973001F50E94350A8823E1F09091EF
S11324D05602289888EC8EBD0DB407FEFDCF8EB54C
S11324E090669EBD0DB407FEFDCF8EB5289A8091EF
S11324F0AD08853021F484E08093AD0804C088E001
S11325008093270204C080912702883029F4109216
S1132510270284E00E94AC0180912702882309F5F8
S11325208091AD088530D1F48091FF078823B1F400
S113253080913B02882391F480917702882371F47F
S113254090E080918003882309F491E0992331F08D
S11325500E947F0A80912702882319F48AE00E944E
S1132560AC0180918003823009F0A3C410928003EF
S1132570F0908E02F2E0FF1609F47BC023E0F2161D
S113258009F47FC031E0F31609F093C48091140379
S113259090911503609184007091850020917702D9
S11325A0203829F4109277020E947F0A82C48C0199
S11325B0061B170B27FF03C010161106F4F0C0907A
S11325C07402D090750280913B028823B1F4C60155
S11325D00E94C70A9927882359F4F60184A58E7F9F
S11325E084A7F0923B02D092B808C092B7083DC0CD
S11325F09927F82E8823C9F102C065E0F62E2091B0
S11326007702822F99278F770197B1F4207822607F
S11326102093770280E198E00E94AA0321E02093AE
S11326208E02209380032091840030918500BC01A8
S1132630C9010E9480033DC427FF13C01016110670
S113264084F480E88093770281E080938E02809303
S113265080038091840090918500B8010E948003DA
S113266002C0109277028F2D09C083E08093770215
S113267020C410923B021092770280E00E943D0435
S113268018C48091AD08823019F4F092AD0850C29C
S113269080912702863009F04BC2109227022898B5
S11326A081E88EBD0DB407FEFDCF8EB51EBC0DB402
S11326B007FEFDCF8EB5289A3BC22FB7F894332777
S11326C0809157028093070282E0809312022FBF09
S11326D080910702882309F0ECC3809158029091FD
S11326E059020E94610A882309F4E3C380E00E942E
S11326F0A1090E94A30181E070C380917602109227
S11327007602853019F410923202D3C3863009F46C
S1132710D0C3873009F4CDC333C010917602113091
S1132720B9F5809182038F5F80938203863080F5B0
S1132730209185033091860380917702882319F5CF
S113274090E080918003882309F491E09923D9F0E3
S11327503093750220937402109377028BED91E10C
S11327600E94AA03BC0110938E02109380038091EF
S11327708400909185000E94800310921D0883E0DC
S11327808093760296C385E080931D0882E0F8CF9B
S11327901092760210911D08E0908503F090860354
S11327A0F70182858F3309F084C380E00E94A10978
S11327B0112309F09ECF3FB7F8942091C208E22F6D
S11327C0FF27EE0FFF1FEE50FD4F80819181E81629
S11327D0F90671F4822F8F5F8093C2088C3010F059
S11327E01092C20880913202882311F010923202B2
S11327F0832F99278FBF7FCF0E94D301EFBE59C388
S11328008FB7F894282F33278091C005882309F4C3
S1132810B9C9E0911608FF27EE0FFF1FE45DFD4FD5
S1132820A081B1812FBFFD018285978126818F33DD
S113283081F4BD01645F7F4F8C918D50482F5527E3
S11328408FB7F89499278FBFCD010E948A0ADC01C3
S11328501AC0892F9927582F4427822F9927482B4C
S1132860592B8FB7F89499272091020230910302D3
S11328708FBF4217530719F04F5F5F4F21F48FB793
S1132880F89499278FBF9FB7F89480911608E82F82
S1132890FF27EE0FFF1FE45DFD4FB183A0838F5F21
S11328A080931608833010F0109216088091C005AA
S11328B081508093C005892F99278FBFA1CF6FB70F
S11328C06983F89420907E0230907F0240908002C9
S11328D0509081026624772488248EE4A82E03E88D
S11328E0B02ECC24DD24EE24FF2400E010E0222DC1
S11328F0332D442D552D662D772D882D90E00E9483
S1132900E7192A833B834C835D836E837F838887A7
S11329109987822E932EA42EB52E2401350100E230
S11329200E94E51AA22EB32EC42ED52EA301920125
S113293056954795379527952A0D3B1D4C1D5D1DD2
S113294057FF05C05F772F5F3F4F4F4F5F4F209377
S11329507E0230937F024093800250938102A981CA
S11329608A2F99278FBF8FB7F894992730938903BB
S113297020938803C7C980915502882361F520916B
S11329800F08309110084091110850911208EFB7C8
S1132990F894FF27609134027091350280913602D9
S11329A090913702E0901908F0901A0800911B08E2
S11329B010911C086E0D7F1D801F911FEFBF209387
S11329C00F08309310084093110850931208109286
S11329D055020E9466030E94AD020E94D60269C29B
S11329E00E94AD028FB7F894992710927D028AC98C
S11329F08FB7F894992710927F0310927E03109258
S1132A00AC081092AB0810922A021092290210927C
S1132A1013031092120376C92FB7F89433278091C9
S1132A208B0280930A0282E0809313022FBF80916D
S1132A300A02882309F03DC2209A289A8091AD08A1
S1132A40882309F075C08EEF91E0019701960197F4
S1132A50E1F716982F9886E090E001970196019788
S1132A60E1F7169A289883EC8EBD0DB407FEFDCFCE
S1132A708EB51EBC0DB407FEFDCF8EB5289A2898DE
S1132A8082EC8EBD0DB407FEFDCF8EB588E08EBD01
S1132A900DB407FEFDCF8EB5289A8EEF91E0019715
S1132AA001960197E1F728988EEC8EBD0DB407FED0
S1132AB0FDCF8EB58DE48EBD0DB407FEFDCF8EB572
S1132AC0289A289889EC8EBD0DB407FEFDCF8EB5EB
S1132AD087EC8EBD0DB407FEFDCF8EB5289A2898DD
S1132AE085EC8EBD0DB407FEFDCF8EB580E88EBD9E
S1132AF00DB407FEFDCF8EB5289A1092C2028BE06A
S1132B0080935602289888EC8EBD0DB407FEFDCF45
S1132B108EB58BE68EBD0DB407FEFDCF8EB5289A1B
S1132B202F9A81E08093AD0880E00E945702C1C1D2
S1132B3082E053C18FB7F8941092B00820918403B7
S1132B4040E0283009F441E030E0293009F431E074
S1132B50442311F4332351F010928403E0911F03B2
S1132B60FF27EE0FFF1FE157FD4F108299278FBFFC
S1132B70442311F4332331F19FB7F894809117085B
S1132B808F5F8093170880918A02833479F42091AF
S1132B900B0380910A03821779F0822F8F5F809351
S1132BA00B03863048F010920B0306C0A0E04423C8
S1132BB009F4A1E071E002C0A0E070E0892F992738
S1132BC08FBF06C0222311F010E06CC0A0E070E0BB
S1132BD08FB7F8949927209114028FBF222341F0D4
S1132BE08FB7F89499272AE0209384038FBF42C0BB
S1132BF08FB7F894992760918F02409191028FBF0B
S1132C008FB7F894282F332750E090910A038091CE
S1132C100B03981709F451E02FBF552341F56623A0
S1132C2031F55FB7F89482E080938F028FB7F89400
S1132C30282F332740E090910A0380910B039817C3
S1132C4009F441E02FBF442311F080E006C0E09175
S1132C500B03FF27E65FFC4F82818093900283E49D
S1132C6080938A0210921F03852F99270EC041502A
S1132C70423010F010E00BC08FB7F894992725E488
S1132C8020938A0221E020931F038FBF11E0772352
S1132C9049F08FB7F8949927A0931D028FBF81E163
S1132CA00E94AC018FB7F894E82EFF24809184032E
S1132CB08A3009F4A1CDEFBE112309F4FAC02FB76D
S1132CC0F89433271092BA081092B9081092880227
S1132CD081E0809384032FBF0E942602882309F495
S1132CE0E8C08FB7F894992729E0209384038FBF15
S1132CF00E943A02DEC08091C1008F7B8093C100A4
S1132D008091C1008F778093C10010928303109249
S1132D107B028091C10088608093C1008091C100D2
S1132D2080618093C1008091C10080688093C1005C
S1132D308FB7F894992710928403109278028FBF6A
S1132D4010928302B6C080E148C08091C100877FA1
S1132D508093C1008091C1008F7E8093C100A9C07F
S1132D6010921A02109219028FB7F89499272091A1
S1132D701D028FBF80911E02811123E04091170232
S1132D805091180280911F02882309F092C02223D7
S1132D9019F00E94A30120C03FB7F8942091870343
S1132DA0E22FFF27EE0FFF1FE65AFD4F808191812E
S1132DB04817590771F4822F8F5F809387038C30F3
S1132DC010F01092870380918302882311F01092EF
S1132DD08302832F99278FBF80E00E94AC0169C0D2
S1132DE08FB7F894992720912102C0902202D090A5
S1132DF02302F0903A028FBF2223A1F5EFB6F89494
S1132E0080913202882339F580912802E82FFF2728
S1132E10EE0FFF1FEE50FD4F00811181D182C08261
S1132E208F5F809328028C3010F0109228029091CA
S1132E3028028091C208981719F481E08093320225
S1132E4080912B02882351F481E00E94AC0181E03F
S1132E5080932B0203C00E94A30186018E2D992723
S1132E608FBF68018FB7F894EF2DFF27EE0FFF1F78
S1132E70E45FFD4FD182C08220911502FF2011F042
S1132E802B7F01C02D7F20931502109220029927D9
S1132E908FBF0FC0809105028F3F11F00C946C0E10
S1132EA00C94690E289A85E08093AD08109227024D
S1132EB033CB29960FB6F894DEBF0FBECDBFDF919A
S1132EC0CF911F910F91FF90EF90DF90CF90BF9023
S1132ED0AF909F908F907F906F905F904F903F90B6
S1132EE02F900895809113088F3FB1F0282F332736
S1132EF0F901EF5BFD4F8081809313088F3F11F43C
S1132F008093B6088FEF80832F3F31F0822F0E9489
S1132F10E20C81E090E0089580E090E00895FF9253
S1132F200F931F93FFB6F89414BE88E10FB6F8947C
S1132F3080936000109260000FBE43E150E06FEF99
S1132F4070E081E492E00E94071C8FEF80931308E5
S1132F508093B60856985E9854985C9880916F0058
S1132F608F7D80936F00209A289A279A2F980E9A23
S1132F70169A83E992E09093390280933802109272
S1132F8082028AE58093730281E08093810080E26B
S1132F908093B60083E08093B10080918400909187
S1132FA085004AE72091840030918500281739076D
S1132FB008F44150442311F0C901F4CF9091B200B8
S1132FC08091B2008917E1F320918400309185004B
S1132FD09091B2008091B2008917E1F3809184004E
S1132FE090918500821B930B4096F5E0969587950A
S1132FF0FA95E1F790931508809314081092B100A4
S11330008091B10080938100809181008093B6000B
S11330101092B20010928500109284008FEF87BB4B
S113302087B386BB8091B6008571E1F70A9A099A45
S1133030089A129A119A109A18B88FEF87B90C98B7
S11330401498109295001092940080917100816000
S11330508093710080919100887F826080939100B9
S1133060109285001092840080916F00816080939B
S11330706F0080918100887F8260809381000E942C
S113308072178823E1F712E006E06091140870914A
S1133090150888279927ECE0660F771F881F991F6A
S11330A0EA95D1F720E031EE40E050E00E948F1B1A
S11330B0215030402093C400832F99278093C5006A
S11330C01093C0000093C2001092C1002093CC0062
S11330D08093CD001093C8000093CA001092C900D9
S11330E084E490E0909301088093000810928F028A
S11330F0109291028AE080938403109288021092C5
S11331008A02109217081092BA081092B908109205
S1133110B00810921F031092FB071092FA0784E084
S11331208093780210928B0310920E0810927C0206
S113313010921B0310921A0310920B0310920A03AD
S11331408FEF8093890280E00E94EA09182F809112
S1133150B60080628093B6008091B60081FDFCCFFA
S113316082E08093B0008091B60080FDFCCF83E0C4
S11331708093B1008091B60083FDFCCF86EE8093EE
S1133180B300809170008260809370000E94DA0224
S113319080910002909101020196AA27BB27809397
S11331A07E0290937F02A0938002B09381028EE10D
S11331B098E090932D0280932C028F9690932F0287
S11331C080932E028CE798E0909331028093300232
S11331D08FEF9FEF9093050880930408909307085E
S11331E080930608909309088093080890930B082D
S11331F080930A0890930D0880930C088091000234
S11332008295807F809326028FEF809372020E94C2
S113321072178823E1F78F2D99278FBF7894EAE5F9
S1133220F2E086EC95E0819391938F9622E0E23769
S1133230F207C9F71092870310923302109218080C
S113324081E080938302E2EFF2E08CE893E08193E3
S113325091938F9623E0EA30F207C9F71092C208DF
S11332601092280210922B0281E080933202809106
S113327076028823E9F4809127028823C9F4809197
S1133280AD08813049F490E080918003882309F4EB
S113329091E0992369F003C0853009F495C083E077
S11332A08093270282E00E94AC0185E0809376023D
S11332B08FB7F894282F3327922F809184038A3074
S11332C041F080917802843021F02FBF1092830264
S11332D004C09FBF8EE00E94AC018FB7F894482FC2
S11332E0552757C080917000992783709070892B5F
S11332F019F4E5E0F0E014C08091B6008A71E1F7BA
S11333008091B3009091B200891B8C3038F0809189
S1133310B200853F18F4E3E0F0E002C0E2E0F0E040
S113332080916E00867009F580916F008E72E9F4C9
S1133330809171008E72C9F40CB407FC16C08091A0
S1133340C100887191F48091C900887171F48091F1
S1133350BC0082FD0AC080917A0087FF03C081E02F
S113336090E005C085E090E002C080E090E023B7E3
S11333708E1708F4E82FFF27EE50FD4FE491207FCD
S11333802160E22BE3BF78948895F89483B78E7F0D
S113339083BF809113088F3F09F4A4CF282F3327CC
S11333A0F901EF5BFD4F8081809313088F3F11F487
S11333B08093B6088FEF80832F3F09F493CF4FBFDC
S11333C0822F0E94E20C89CF1092320271CFACE2BC
S11333D0B0E0EDEEF9E10C94D01B222E332E442EF6
S11333E0552E662E772E882E992EFE013196A8E052
S11333F01192AA95E9F729823A824B825C826D8206
S11334007E828F829886FE013996B8E01192BA9531
S1133410E9F7A986BA86CB86DC86ED86FE860F8719
S1133420188B89819A81AB81BC8189A79AA7ABA7A4
S1133430BCA77C018D018FEF9FEFA0E0B0E0E822F4
S1133440F9220A231B2389A59AA5ABA5BCA51D01B6
S11334504424552489859A85AB85BC858DA39EA378
S1133460AFA3B8A75C016D018FEF9FEFA0E0B0E0C0
S1133470A822B922CA22DB228DA19EA1AFA1B8A5A0
S11334803D0188249924C801B701A60195010E9431
S1133490B11B69A37AA38BA39CA3C801B701A401A0
S11334A093010E94B11B7B018C01C201B101A601F1
S11334B095010E94B11B5B016C01C201B101A40121
S11334C093010E94B11B3B014C01EA0CFB1C0C1D37
S11334D01D1D89A19AA1ABA1BCA19D01442755271B
S11334E02E0D3F1D401F511F2A153B054C055D0540
S11334F040F480E090E0A1E0B0E0680E791E8A1EFE
S11335009B1ECA01AA27BB27860D971DA81DB91D9E
S11335108D8F9E8FAF8FB8A3A9013327222789A14E
S11335209AA1ABA1BCA1A070B070280F391F4A1F8B
S11335305B1F298F3A8F4B8F5C8FA98CBA8CCB8CF5
S1133540DC8CED8CFE8C0F8D18A1FE01719698E039
S113355011929A95E9F7ED8AFE8A0F8B188F2D81C7
S11335603E814F8158856DA17EA18FA198A50E94AF
S1133570B11B3B014C012D853E854F85588969A5BA
S11335807AA58BA59CA50E94B11B2D893E894F89E4
S1133590588D260F371F481F591F260D371D481DEC
S11335A0591D2D8B3E8B4F8B588F6D887E888F884D
S11335B0988C2A2D3B2D4C2D5D2D662D772D882D35
S11335C0992DE2E1AC960C94EC1BA0E1B0E0EBEE9B
S11335D0FAE10C94D01B222E332E442E552E662E47
S11335E0772E882E992E002309F466C088E0FE0108
S11335F0319611928A95E9F729833A834B835C8348
S11336006D837E838F829887E0E2E01B1E16CCF5E3
S11336102D813E814F815885602F772767FD7095F6
S1133620DA01C901062E04C0B695A795979587952A
S11336300A94D2F78D879E87AF87B88B04C0220F78
S1133640331F441F551FEA95D2F789819A81AB81B4
S1133650BC8104C0B695A795979587956A95D2F7CE
S1133660282B392B4A2B5B2B29873A874B875C877E
S113367029843A844B845C846D847E848F84988806
S11336801BC01D861E861F86188A2E2F332727FDF2
S11336903095309521953F4F8D819E81AF81B885BE
S11336A004C0B695A795979587952A95D2F78987EB
S11336B09A87AB87BC87DCCF222D332D442D552D23
S11336C0662D772D882D992DE2E160960C94EC1BE4
S11336D0AA1BBB1B51E107C0AA1FBB1FA617B70734
S11336E010F0A61BB70B881F991F5A95A9F7809550
S11336F09095BC01CD01089597FB092E07260AD0A9
S113370077FD04D0E5DF06D000201AF470956195AA
S11337107F4F0895F6F7909581959F4F0895A1E204
S11337201A2EAA1BBB1BFD010DC0AA1FBB1FEE1F37
S1133730FF1FA217B307E407F50720F0A21BB30B82
S1133740E40BF50B661F771F881F991F1A9469F7FE
S113375060957095809590959B01AC01BD01CF015A
S11337600895629FD001739FF001829FE00DF11DC7
S1133770649FE00DF11D929FF00D839FF00D749FE7
S1133780F00D659FF00D9927729FB00DE11DF91F93
S1133790639FB00DE11DF91FBD01CF0111240895F0
S11337A02F923F924F925F926F927F928F929F924D
S11337B0AF92BF92CF92DF92EF92FF920F931F933B
S11337C0CF93DF93CDB7DEB7CA1BDB0B0FB6F894EC
S11337D0DEBF0FBECDBF09942A88398848885F842C
S11337E06E847D848C849B84AA84B984C884DF809D
S11337F0EE80FD800C811B81AA81B981CE0FD11D81
S11338000FB6F894DEBF0FBECDBFED010895DC0105
S111381001C06D9341505040E0F70895FFCF82
S113381E0100010022FFFFFFFFFFFFFF20034F0304
S105382E200371
S9030000FC
