S01700006275696C642F697269732F6D61696E2E7372656343
S11300000C9469000C9488000C9488000C9488006B
S11300100C9488000C9488000C9488000C9488003C
S11300200C9488000C9488000C9488000C9488002C
S11300300C9488000C94EC030C9488000C94F1024A
S11300400C949E0B0C94D40B0C94A8030C94B30343
S11300500C94BE030C9488000C9488000C948800C3
S11300600C9405030C9488000C9488000C9488006C
S11300700C9488000C9488000C9488000C948800DC
S11300800C9488000C9488000C9488000C948800CC
S11300900C9488000C9488000C9488000C948800BC
S11300A00C9488000C9488000C9488000C948800AC
S11300B00C9488000C9488000C9488000C9488009C
S11300C00C9488000C9488000C94880000020E069E
S11300D00C0411241FBECFEFD1E2DEBFCDBF12E06E
S11300E0A0E0B2E0E2EAF8E200E00BBF02C0079051
S11300F00D92AC30B107D9F713E0ACE0B2E001C027
S11301001D92AD3AB107E1F70E94B0100C9450145F
S11301100C9400008FB7F894992708958FBF089521
S1130120282F9FB7F894E82FFF27EC5DFD4F8081BF
S11301308F3F81F4E091A503E21771F40BC0209383
S1130140060304C0FF27EC5DFD4F20832093A50325
S113015020E007C025E005C0809106038F3F91F79A
S1130160EECF892F99278FBF822F9927089588234F
S113017019F08CB5806402C08CB58F7B8CBD08955A
S1130180882319F08CB5806802C08CB58F778CBD3C
S113019008950F931F9380E00E94B7000FB7F8945F
S11301A01127229A2398219A209A8CB580618CBDBC
S11301B080E00E94C0008CB5877F8CBD8CB58B7F9E
S11301C08CBD81E00E94B7008DB581608DBD8CB57A
S11301D08C7F8CBD0FBF1F910F9108950F931F93B8
S11301E0CF93DF93182F0FB7F89480910D028823D3
S11301F011F40E94C900802F99278FBF8FB7F894FC
S1130200C82FDD272C2F80910D02882361F481E013
S113021080930D021093450289E00E949000CFBFA5
S113022080E090E021C0E12FFF27EC5BFD4F80814F
S11302308F3F89F4E0910902E11789F40CC010930F
S1130240080204C0FF27EC5BFD4F108310930902E2
S113025080E090E002C085E090E02FBF05C080916F
S113026008028F3F79F7EBCFDF91CF911F910F9168
S11302700895FB0121E030E002C0220F331F8A956C
S1130280E2F784A5822B84A708958FB7F894209170
S1130290DB023091DC024091DD025091DE02E091FC
S11302A08400F0918500B09B08C02F5F3F4F4F4FF3
S11302B05F4FE0918400F091850099278FBFC901B9
S11302C0772766279F0144275527622B732B842B9E
S11302D0952B0895FC0182819927982F88272181E5
S11302E03327822B932B25E0969587952A95E1F762
S11302F0817090700895AC01EFB7F8942091840058
S113030030918500C901841B950B039686179707C6
S113031020F0B9016D5F7F4F02C0640F751F611536
S1130320710511F461E070E06150704070938900D0
S11303306093880082E086BB80916F008260809326
S11303406F008E2F99278FBF089580930F03882302
S113035011F484E001C081E080933A0282E00E94BB
S113036090000895CF93DF93EC010E946A018823E3
S113037039F18A8129819927982F88273327822B5D
S1130380932B87749C7C81549848D1F48F814E813F
S11303902FB7F894332760910202709103022FBFA4
S11303A020E09927982F88275527842B952B86178B
S11303B0970709F021E081E02827822F992702C0BE
S11303C080E090E0DF91CF910895FB0121E030E0DF
S11303D002C0220F331F8A95E2F784A5822399274E
S11303E0089521E0209375022093EA02209184006D
S11303F030918500BC01C9010E947B010895EF92F0
S1130400FF920F931F937C018FB7F8949927009163
S1130410EF021091F0020F5E1E4F1093F002009352
S1130420EF02015111408FBF84E00E949000C80187
S1130430B7010E94DF138A5D9E4F1F910F91FF90B9
S1130440EF9008957FB7F8946091B20020911F0255
S1130450309120024091210250912202B99B11C097
S11304608091B3009091B200280F311D411D511DA0
S11304702F5F3F4F4F4F5F4F290F311D411D511DBE
S113048004C0260F311D411D511D872F99278FBF91
S1130490CA01B9010895DF92EF92FF920F931F935F
S11304A08FB7F894282F3327D22E9091B3008091E0
S11304B0B20047B3981711F041FF02C02FBF71C0BB
S11304C080913C028823E1F10E942202E09018020C
S11304D0F090190200911A0210911B0220910B0353
S11304E030910C0340910D0350910E036E197F0956
S11304F0800B910B621773078407950720F0109205
S11305003C0271E01EC02E0D3F1D401F511F809103
S11305101F0290912002A0912102B0912202281B77
S1130520390B4A0B5B0B273E31054105510540F45D
S1130530822F223010F070E005C070E082E002C02B
S113054070E086EE682F61508091B60083FDFCCF89
S11305508091B200681709F46F5F20911F023091F7
S113056020024091210250912202DA01C901019630
S1130570A11DB11D860F911DA11DB11D82179307E9
S1130580A407B50710F4622F60958091B60083FD2F
S1130590FCCF6093B300DFBE772319F085E00E949F
S11305A090001F910F91FF90EF90DF900895AFB7E7
S11305B0F894BB27E1E0E0933C0260931802709347
S11305C0190280931A0290931B0220930B03309319
S11305D00C0340930D0350930E03AFBF0E944B02D4
S11305E008951F920F920FB60F9211248F9380914A
S11305F0B0008093B0008091B60081FDFCCF8F9154
S11306000F900FBE0F901F9018951F920F920FB668
S11306100F9211240F931F932F933F934F935F9344
S11306206F937F938F939F93AF93BF93CF93DF93F6
S1130630EF93FF932EB5E091E802F091E902309731
S113064039F08091D5029091D602E80FF91F2083EA
S11306508091D5029091D60201969093D602809310
S1130660D50280E00E94C000C091D502D091D6028C
S11306702091100230911102C217D30708F042C032
S113068000919D0310919E034091E8025091E9026C
S1130690CE010A962817390708F4C901DA01AC0F0C
S11306A0BD1FF801EC0FFD1F9C012150304015C007
S11306B00115110531F080818EBD0DB407FEFDCF0B
S11306C004C01EBC0DB407FEFDCF8EB54115510507
S11306D009F08C93219611963196C217D30740F3F3
S11306E081E00E94C0000115110531F00C0F1D1F9F
S11306F0F80180818EBD01C01EBCD093D602C09388
S1130700D50211C01092E9021092E80210929E03E1
S113071010929D0310921102109210021092D602B0
S11307201092D5028EB5FF91EF91DF91CF91BF91D9
S1130730AF919F918F917F916F915F914F913F9175
S11307402F911F910F910F900FBE0F901F9018952E
S113075078941F920F920FB60F9211240F900FBE30
S11307600F901F90189578941F920F920FB60F92C6
S113077011240F900FBE0F901F90189578941F921C
S11307800F920FB60F9211242F933F938F939F9341
S1130790AF93BF932FB7F89433278091DB029091E6
S11307A0DC02A091DD02B091DE020196A11DB11D13
S11307B08093DB029093DC02A093DD02B093DE020F
S11307C02FBFBF91AF919F918F913F912F910F9028
S11307D00FBE0F901F9018951F920F920FB60F9295
S11307E011242F933F934F935F936F937F938F9332
S11307F09F93AF93BF93EF93FF938091B000809347
S1130800B0008091B60081FDFCCF8091B3009927A0
S11308100196AA27BB2720911F0230912002409104
S1130820210250912202280F391F4A1F5B1F209377
S11308301F023093200240932102509322027894A5
S11308400E944B02FF91EF91BF91AF919F918F91C5
S11308507F916F915F914F913F912F910F900FBEB8
S11308600F901F9018958FB7F894282F3327922F45
S113087080910A02882331F480910D02823011F4B0
S11308802FBF13C09FBF8FB7F894282F33278091B1
S11308900D02882369F482E080930D0210920A020B
S11308A02FBF0E94C900209A289A81E090E0089501
S11308B02FBF80E00E94EE0080E090E008951F9337
S11308C0982F1FB7F89480910C02823099F580918B
S11308D00702891779F58091050220E030E08F3F07
S11308E011F421E030E0232BF1F49FEF9093070201
S11308F08F3F19F42FEF30E00DC0282F3327F90173
S1130900EA5CFD4F8081809305028F3F11F4909340
S1130910060290832093330281E080930C0280E0EE
S11309200E94900005C08FEF8093070210920C0282
S113093021E001C020E0812F99278FBF90E0213072
S113094009F491E081E09827892F99271F91089550
S11309500F931F93982F1FB7F89480910D02823044
S113096099F580910A02891779F58091080220E0AF
S113097030E08F3F11F421E030E0232BF1F49FEFBE
S113098090930A028F3F19F42FEF30E00DC0282F07
S11309903327F901EC5BFD4F8081809308028F3F80
S11309A011F49093090290832093450281E080938F
S11309B00D0289E00E94900005C08FEF80930A0227
S11309C010920D0201E001C000E0812F99278FBF32
S11309D01FB7F89480910D02882311F40E94B70088
S11309E0812F99278FBF90E0013009F491E081E0D5
S11309F09827892F99271F910F91089580913A0282
S1130A00823031F481E080933A0282E00E949000C7
S1130A1008954F925F926F927F928F929F92AF92BE
S1130A20BF92CF92DF92EF92FF920F931F93CF93D7
S1130A30DF932C0180910F02882309F083C18091F8
S1130A409F03853009F07EC10E943304882309F492
S1130A5079C18091F702882309F074C1B20182E060
S1130A600E94E501882311F490E003C0F20196A5E9
S1130A709F708091A502981781F09093A502289801
S1130A8085EC8EBD0DB407FEFDCF8EB590689EBD7E
S1130A900DB407FEFDCF8EB5289AE2012196898117
S1130AA0F201218140E09927982F88273327822B50
S1130AB0932B87749C7C8154984809F441E0442327
S1130AC001F1289886E88EBD0DB407FEFDCF8EB5E2
S1130AD01EBC0DB407FEFDCF8EB5289A99278F71E1
S1130AE090702091410240913702240F312D311D25
S1130AF043E0359527954A95E1F7281739070CF413
S1130B0021C1289882EC8EBD0DB407FEFDCF8EB5B1
S1130B1089E08EBD0DB407FEFDCF8EB5289A0E94E4
S1130B2045017B018C01B20184E00E94E501882328
S1130B3019F4E0E0F0E006C0D2018C918550F20196
S1130B40E80FF11D289881E88EBD0DB407FEFDCF96
S1130B508EB51EBC0DB407FEFDCF8EB5289A8F71DD
S1130B60893079F0289882EC8EBD0DB407FEFDCF54
S1130B708EB586E08EBD0DB407FEFDCF8EB5289AE6
S1130B80E1C08FB7F89499272F9A2091840030916F
S1130B9085008FBF2F98289880E68EBDD2019C9146
S1130BA00DB407FEFDCF8EB59EBD792F7250773000
S1130BB010F4672F01C067E0DE01962F4D910DB44C
S1130BC007FEFDCF8EB54EBD9150C1F76150C60FE3
S1130BD0D11D6F5F21962E193F092E553F4F3901C4
S1130BE0882477FC8094982C6E0C7F1C801E911EA8
S1130BF0309719F4972F961B42C02081E18082819F
S1130C00A3809927AA27BB27BA2FA92F982F882713
S1130C10332744275527522F442733272227FF24DD
S1130C20002711278701FF24EE242E293F29402B7A
S1130C30512BBB24CC24DD242A293B294C295D29B2
S1130C40822B932BA42BB52B86199709A809B909D4
S1130C508383292F3A2F4B2F552722839D01442725
S1130C60552721838B2F9927AA27BB278083C2CF9F
S1130C7028810DB407FEFDCF21968EB52EBD91506F
S1130C80B8F70DB407FEFDCF8EB5289A289882ECEC
S1130C908EBD0DB407FEFDCF8EB586E08EBD0DB4BE
S1130CA007FEFDCF8EB5289A3097D1F12081E180DF
S1130CB08281A3809927AA27BB27BA2FA92F982F0F
S1130CC08827332744275527522F442733272227A1
S1130CD0FF24002711278701FF24EE242E293F2912
S1130CE0402B512BBB24CC24DD242A293B294C291D
S1130CF05D29822B932BA42BB52B860D971DA81D44
S1130D00B91D8383292F3A2F4B2F552722839D0109
S1130D104427552721838B2F9927AA27BB27808314
S1130D20B20181E00E943901F20160A671A682A697
S1130D3093A686E080939F0384E080930F0280E073
S1130D4090E002C085E090E0DF91CF911F910F9178
S1130D50FF90EF90DF90CF90BF90AF909F908F90D7
S1130D607F906F905F904F900895AF92BF92CF9213
S1130D70DF92EF92FF920F931F93CF93DF938091B3
S1130D80F702882309F402C10E943304882309F47A
S1130D90FDC08FB7F8949927C0914202D0914302C5
S1130DA08FBF1092F70228988FE88EBD0DB407FE0E
S1130DB0FDCF8EB51EBC0DB407FEFDCF8EB5289AAF
S1130DC0982F80910F02833011F0873031F485E041
S1130DD080939F0388E080930F02A92EBB24A2FE78
S1130DE063C080910F02863019F410920F0203C081
S1130DF0882309F059C0943009F045C0289886E842
S1130E008EBD0DB407FEFDCF8EB51EBC0DB407FE1E
S1130E10FDCFFEB4289A2FE1F22280913702982F59
S1130E2096959695EF2DE91B8E0F809337020091CE
S1130E301C0210911D02F80184A58B7F84A7B801C0
S1130E4083E00E943901F801F6A60E9445017B0166
S1130E508C01C0901C02D0901D02B60181E00E945A
S1130E603901CE19DF092797CE01AA2797FDA0954E
S1130E70BA2F8E0D9F1DA01FB11FF60180A791A749
S1130E80A2A7B3A70EC0E0911C02F0911D0284A595
S1130E90877F84A7E0911C02F0911D0284A58D7FB9
S1130EA084A785E080930F02A3FE70C080910F0297
S1130EB0843009F04EC085E080939F0310920F02A6
S1130EC080911E02833019F410921E025FC0C091FB
S1130ED0A603D091A703CE010E946A01882389F159
S1130EE08A8129819927982F88273327822B932B4E
S1130EF087749C7C8154984821F58F812E81992791
S1130F00982F88273327822B932B8F5F9F4FC9F00D
S1130F1090E08091EA02882309F491E0992389F012
S1130F2012E01093750281E08093EA0280918400BC
S1130F309091850069E973E00E947B0110931E0281
S1130F4025C010921E0210923B0280E00E94A5016F
S1130F501DC08530D9F420914102289886E88EBDC1
S1130F600DB407FEFDCF8EB51EBC0DB407FEFDCF3C
S1130F708EB5289A8F71922F96959695891B280F76
S1130F802093410289E080930F0208C090910F02E0
S1130F90992309F4E5C2993009F012C2289880E235
S1130FA08EBD0DB407FEFDCF8EB51EBC0DB407FE7D
S1130FB0FDCF8EB5482F5527433008F496C3842FB0
S1130FC099278A970CF091C31EBCE0911C02F09102
S1130FD01D024083542F5250573010F4452F01C046
S1130FE047E0DF011196242FFD0160E070E00DB4AD
S1130FF007FEFDCF8EB51EBC992781936827062E68
S11310006295607F6025072E762F62956F700626A5
S1131010669576276727660F660F660F6025215051
S113102031F74150A40FB11D4F5F1196E0911C029E
S1131030F0911D02818190E08770823009F491E083
S1131040992349F020E030E080911E02823081F43F
S113105021E030E00DC08FB7F894282F332790E0BB
S11310608091F102833008F491E02FBF292F3327B8
S1131070232B09F45CC0952F941B18C00DB407FEF4
S1131080FDCF8EB51EBC8C938D916827062E62957C
S1131090607F6025072E762F62956F700626669511
S11310A076276727660F660F660F6025915030F725
S11310B00DB407FEFDCF8EB51EBC9B012827022E62
S11310C02295207F2025032E322F22952F70022671
S11310D0269532272327220F220F220F20250DB415
S11310E007FEFDCF8EB51EBC2827022E2295207F39
S11310F02025032E322F22952F7002262695322783
S11311002327220F220F220F20250DB407FEFDCF27
S11311108EB5E0911C02F0911D0285A7289A15E076
S113112010939F0310920F02232B31F015C20DB4BC
S113113007FEFDCF8EB5D9C2E0901C02F0901D02CF
S113114067010894C11CD11CF701818190E0282F0C
S11311503327277030702230310509F491E08091F3
S11311601E02992321F1823009F025C1F7019381F0
S1131170E091A603F091A7038381981709F01BC19E
S11311802230310509F017C180916F008D7F809363
S11311906F001092EA02BF0180E00E9439011092B0
S11311A01E0210923B0280E00E94A50104C1882324
S11311B0C9F4C7010E94B2018823A1F01093A602CA
S11311C082E08093A7021092A802F70183818093A2
S11311D0A90286EA92E00E940905882319F483E0B3
S11311E080931E020091840010918500C7010E9423
S11311F0B201882311F0045E1C4F1093D8020093AF
S1131200D70280918400909185009801281B390BA6
S113121012161306A4F480913B02882369F490E02B
S11312208091EA02882309F491E0992341F0C901ED
S11312300E94F10180E801C0806880933B02F601BE
S1131240808527819927582F44273327422B532BF6
S113125080912302282F3327F901EE0FFF1FE85056
S1131260FD4F808191817091EB028417950769F499
S1131270F901E056FC4F8081871709F467C0872F76
S11312808F5F8093EB0280831DC000E010E080E05C
S113129090E0C8EFD2E0E0EAF3E0DF01682F9C01C0
S11312A0888199818417950779F42093230290917A
S11312B0EB028C91891709F449C0892F8F5F8093C1
S11312C0EB028C9300E829C08081972F981B0917A3
S11312D010F4092F122F6F5FC901019611962296FF
S11312E0319685309105D1F66530B9F41093230217
S11312F0A12FBB27FD01EE0FFF1FE850FD4F5183C7
S113130040838091EB028F5F8093EB02FD01E056F6
S1131310FC4F8083A855BC4F1C929091EB02892FFF
S11313208F778F3779F40F3768F0E0EAF3E0292FED
S1131330207880818F6789132083319683E0E53A92
S1131340F807B9F780912302282F3327F6019281F9
S1131350A22FBB27FD01E855FC4F808180FF07C009
S1131360FD01EE50FD4F8081981729F102C0816084
S11313708083AE50BD4F9C93DFB6F8948091F10208
S11313808330B0F4E0910903E80FE33008F0E35050
S1131390FF27EE0FFF1FEE5EFD4F00811181F182EA
S11313A0E0828F5F8093F10283E00E9490007801D5
S11313B08D2D99278FBFF0921D02E0921C02C3C0AD
S11313C0892F8150833008F09CC081508230E0F432
S11313D030919F033130C1F420E08091EA028823E8
S11313E009F421E0222381F02F9883E08093750291
S11313F03093EA0280918400909185006BE273E05F
S11314000E947B0182E068C0933009F042C0809161
S11314109F03833009F097C00E9433048823C9F1E5
S113142028988FE88EBD0DB407FEFDCF8EB51EBC87
S11314300DB407FEFDCF8EB5289A8091810080649B
S11314408093810080E286BB80916F0080628093EC
S11314506F0090913202289888EC8EBD0DB407FE7F
S1131460FDCF8EB590669EBD0DB407FEFDCF8EB543
S1131470289A289882EC8EBD0DB407FEFDCF8EB558
S113148086E08EBD0DB407FEFDCF8EB5289A84E0AC
S113149023C080910F028150823000F580919F0318
S11314A08530E1F40E9433048823C1F0289882EC4B
S11314B08EBD0DB407FEFDCF8EB583E08EBD0DB499
S11314C007FEFDCF8EB5289A80916F008F7D8093A3
S11314D06F001092F70283E080939F0390910F02B4
S11314E0913041F480919F038330B1F52F9A90930A
S11314F09F0325C0923039F580919F03833061F5B5
S11315001EC0973001F50E9433048823E1F09091C6
S11315103202289888EC8EBD0DB407FEFDCF8EB53F
S113152090669EBD0DB407FEFDCF8EB5289A8091BE
S11315309F03853021F484E080939F0304C088E0F6
S113154080930F0204C080910F02883029F4109216
S11315500F0281E00E94900080910F02882309F518
S113156080919F038530D1F48091F7028823B1F4F0
S113157080911E02882391F480913B02882371F4A8
S113158090E08091EA02882309F491E0992331F0F4
S11315900E94FE0480910F02882319F487E00E94C0
S11315A090008091EA02823009F092C01092EA021F
S11315B0F0907502F2E0FF1609F466C023E0F2161B
S11315C009F46AC081E0F81609F082C02091D702BC
S11315D03091D802809184009091850040913B0223
S11315E0403829F410923B020E94FE0471C0890124
S11315F0081B190B47FF03C010161106ECF0C0912D
S11316003802D091390280911E028823A9F4CE01B8
S11316100E9409059927882351F48CA58E7F8CA7F5
S1131620F0921E02D093A703C093A60329C0992762
S1131630F82E882329F102C065E0F62E20913B02A2
S1131640822F99278F77019759F42078226020936D
S11316503B0280E198E00E94FF010E94F10138C042
S113166027FF0AC0101611063CF480E880933B0261
S1131670C8010E94F10102C010923B028F2D09C0E3
S113168083E080933B0224C010921E0210923B021E
S113169080E00E94A5011CC080919F03823019F450
S11316A0F0929F0313C080910F02863079F4109258
S11316B00F02289881E88EBD0DB407FEFDCF8EB5CC
S11316C01EBC0DB407FEFDCF8EB5289A0E948A0B6E
S11316D08FB7F894282F332780913102813061F03D
S11316E081E0809331022FBF4ACB289A85E0809312
S11316F09F0310920F0230CF109231022FBFDF915F
S1131700CF911F910F91FF90EF90DF90CF90BF90FA
S1131710AF9008958FB7F894282F33278091310222
S1131720882329F08068809331022FBF089581E0D7
S1131730809331022FBF0E94B506089578941F92BA
S11317400F920FB60F9211242F933F934F935F93F1
S11317506F937F938F939F93AF93BF93EF93FF9375
S1131760E6E8F0E080819181208131818FB7F8949F
S11317709927309343022093420221E02093F702F9
S11317808FBF0E948A0BFF91EF91BF91AF919F9100
S11317908F917F916F915F914F913F912F910F9016
S11317A00FBE0F901F90189578941F920F920FB64A
S11317B00F9211242F933F934F935F936F937F93D3
S11317C08F939F93AF93BF93EF93FF9380916F0099
S11317D08D7F80936F0078949FB7F8948091EA028C
S11317E0813019F482E08093EA02892F99278FBF10
S11317F00E948A0BFF91EF91BF91AF919F918F91BE
S11318007F916F915F914F913F912F910F900FBEF8
S11318100F901F9018958FB7F894282F3327809135
S11318203102815080933102803811F02FBF089526
S113183081E0809331022FBF0E94B50608951F9363
S1131840FC018FE3828780910E028F5F80930E02EA
S113185083832FB7F8943327809131028F5F80936D
S113186031022FBF80913A02882311F015E00DC098
S1131870F093EE02E093ED0281E080933A0210923D
S1131880EC0282E00E94900010E00E940B0C812F79
S113189099271F9108951F93CF93DF93182FFA016F
S11318A0A22F2D3118F086E090E08EC0EA01219637
S11318B089812181B0E09927582F44273327422B6F
S11318C0532BCA0187749C7C8154984809F4B1E075
S11318D0BB2349F4CA018073907081649868818342
S11318E0892F99278983A35FA0832FB7F89433277F
S11318F080910202909103022FBF8087892F99273C
S113190081872FB7F8943327809104022FBF99273A
S11319108483158213876683872F992787838FB7DC
S1131920F894282F332780910C02882371F482E0E5
S113193080930C02109207022FBFCF010E941F0C4C
S11319409927182F882399F00FC02FBFF0933502E1
S1131950E09334028FB7F894C82FDD272C2F8091A1
S11319600C02882399F406C080E00E945F04812F52
S113197099272AC081E080930C021092330280E000
S11319800E949000CFBF80E090E01EC0809136029C
S11319908F3F89F4E0910602EE2369F010C01092A3
S11319A0050204C0FF27EA5CFD4F10821092060274
S11319B080E090E002C085E090E02FBF05C08091F8
S11319C005028F3F79F7EBCFDF91CF911F910895F7
S11319D0EF92FF920F931F93E091E702E1FF57C04C
S11319E02091DF023091E0024091E1025091E20245
S11319F0E090E302F090E4020091E5021091E60227
S1131A00621B730B840B950B6E157F058007910782
S1131A10F0F1E0FF04C0ED7FE093E7020CC02E0D6F
S1131A203F1D401F511F2093DF023093E00240937B
S1131A30E1025093E2028FEF80934C0280934D02B7
S1131A408AE0809351028091D9029091DA02892B25
S1131A50F1F446E452E05093DA024093D9028FE065
S1131A608093460280910B02882389F010920B0226
S1131A7022E06FEF7FEF8AE00E944B0C882339F05D
S1131A8081E080930B021092DA021092D90286E070
S1131A900E9490001F910F91FF90EF900895E82FFE
S1131AA0FF27EE0FFF1FE752FD4F118210821092A5
S1131AB00B02E091D902F091DA02309721F0809183
S1131AC00A0380FF08C081E080930B0208958BE035
S1131AD00E949000089520812D5033276781772735
S1131AE0762F662786819927682B792BAF0183850A
S1131AF00E944B0C882359F708952F923F924F92DE
S1131B005F926F927F928F929F92AF92BF92CF9289
S1131B10DF92EF92FF920F931F93CF93DF93CDB792
S1131B20DEB729970FB6F894DEBF0FBECDBF853060
S1131B3009F497C1863090F4823009F48AC0833066
S1131B4030F4882331F1813009F0D4C253C083309A
S1131B5009F4DDC0843009F0CDC227C1883009F40E
S1131B6000C2893038F4863009F4AEC1873009F0F8
S1131B70C1C294C28A3039F08A3008F407C28B306B
S1131B8009F0B8C2AAC280910A03882309F08FC25F
S1131B90B1C22FB7F89433278091330280930702A0
S1131BA082E080930C022FBF80910702882309F002
S1131BB0A1C280913402909135020E941F0C082F1B
S1131BC01127002309F496C280E00E945F0420914B
S1131BD034023091350280910B02882309F08AC2C5
S1131BE06091D9027091DA026217730709F082C218
S1131BF0402F7EC280913A0210923A02853001F55C
S1131C000E9422026093DF027093E0028093E1025B
S1131C109093E2028AEF90E0A0E0B0E08093E302C8
S1131C209093E402A093E502B093E6028091E70268
S1131C308E7F82608093E70286E00E9490005AC201
S1131C40863009F457C2873009F454C280933A02AB
S1131C5051C22FB7F8943327809131028F5F80935C
S1131C6031022FBF40913A02413081F58091EC025C
S1131C708F5F8093EC02863048F52091ED0230911D
S1131C80EE0280913B028823C1F490E08091EA0245
S1131C90882309F491E0992381F030933902209349
S1131CA0380240933B028BED91E10E94FF010E94B8
S1131CB0F10110920F0383E004C085E080930F03C9
S1131CC082E080933A020E940B0C14C210923A02F2
S1131CD00E940B0C10910F03E090ED02F090EE02C5
S1131CE0F70182858F3309F005C280E00E945F040A
S1131CF080910B02882309F0FDC16091D902709193
S1131D00DA026E157F0509F0F5C1412FF1C18FB7D5
S1131D10F894282F33278091F102882309F4C5C150
S1131D20E0910903FF27EE0FFF1FEE5EFD4FA08138
S1131D30B1812FBFFD0182858F33B9F0FD01878109
S1131D4026819927582F44273327422B532B8FB7AB
S1131D50F894992720910202309103028FBF421711
S1131D60530719F04F5F5F4F21F48FB7F894992709
S1131D708FBF9FB7F89480910903E82FFF27EE0FD8
S1131D80FF1FEE5EFD4FB183A0838F5F8093090335
S1131D90833010F0109209038091F10281508093F6
S1131DA0F102892F99278FBFB2CF2FB72983F894D7
S1131DB020903D0230903E0240903F0250904002FD
S1131DC0662477248824FEE4AF2EE3E8BE2ECC24D8
S1131DD0DD24EE24FF2400E010E0222D332D442DD9
S1131DE0552D662D772D882D90E00E945E122A8352
S1131DF03B834C835D836E837F8388879987822EA0
S1131E00932EA42EB52E2401350100E20E945C130A
S1131E10A22EB32EC42ED52EA3019201569547951A
S1131E20379527952A0D3B1D4C1D5D1D57FF05C099
S1131E305F772F5F3F4F4F4F5F4F20933D023093AB
S1131E403E0240933F02509340026981862F9927B6
S1131E508FBF8FB7F89499273093F0022093EF0245
S1131E6093C080913002882361F520910203309160
S1131E7003034091040350910503EFB7F894FF273F
S1131E80609118027091190280911A0290911B02BC
S1131E90E0900B03F0900C0300910D0310910E03DE
S1131EA06E0D7F1D801F911FEFBF2093020330939F
S1131EB003034093040350930503109230020E94DD
S1131EC0D7020E9422023AC00E9422027B018C01A6
S1131ED08FB7F894992710923C028FBF8091E70244
S1131EE081FF08C18091DF029091E002A091E1029C
S1131EF0B091E202A8019701281B390B4A0B5B0B36
S1131F00DA01C9012091E3023091E4024091E50233
S1131F105091E602281B390B4A0B5B0B2F3F6FEFE6
S1131F2036076FEF46076FE7560709F4E3C012164A
S1131F301306140615062CF0C801B7010E94E80C1C
S1131F40D9C02093020330930303409304035093B6
S1131F50050381E080933002C801B7010E94D702D3
S1131F60C9C08FB7F89499271092E9021092E80239
S1131F7010929E0310929D0310921102109210026F
S1131F801092D6021092D5028FBFB4C02FB7F89426
S1131F9033278091450280930A0282E080930D02E8
S1131FA02FBF80910A02882309F0A4C0209A289A9E
S1131FB080919F03882309F075C08EEF91E001970B
S1131FC001960197E1F716982F9886E090E0019723
S1131FD001960197E1F7169A289883EC8EBD0DB40B
S1131FE007FEFDCF8EB51EBC0DB407FEFDCF8EB52A
S1131FF0289A289882EC8EBD0DB407FEFDCF8EB5CD
S113200088E08EBD0DB407FEFDCF8EB5289A8EEF05
S113201091E0019701960197E1F728988EEC8EBD27
S11320200DB407FEFDCF8EB58DE48EBD0DB407FE55
S1132030FDCF8EB5289A289889EC8EBD0DB407FE85
S1132040FDCF8EB587EC8EBD0DB407FEFDCF8EB5EA
S1132050289A289885EC8EBD0DB407FEFDCF8EB569
S113206080E88EBD0DB407FEFDCF8EB5289A109280
S1132070A5028BE080933202289888EC8EBD0DB4C3
S113208007FEFDCF8EB58BE68EBD0DB407FEFDCFEA
S11320908EB5289A2F9A81E080939F0380E00E9456
S11320A0A80428C00E948A0B25C02FBF23C021E0AA
S11320B0E9EDF2E090910A03822F892339F011822D
S11320C01082822F8095982390930A03329682E09F
S11320D0E93EF80779F0220FEDCF80910B02E82F4B
S11320E0FF27EE0FFF1FE752FD4F6081718141E032
S11320F00E944F0D29960FB6F894DEBF0FBECDBFD8
S1132100DF91CF911F910F91FF90EF90DF90CF90CF
S1132110BF90AF909F908F907F906F905F904F9003
S11321203F902F900895809106038F3FB1F0282FA0
S11321303327F901EC5DFD4F8081809306038F3FC7
S113214011F48093A5038FEF80832F3F31F0822F0A
S11321500E947D0D81E090E0089580E090E0089574
S11321600F931F930FB7F89414BE88E10FB6F89439
S113217080936000109260000FBE4CE050E06FEF5F
S113218070E084E292E00E9449148FEF809306038A
S11321908093A50356985E9854985C9880916F003C
S11321A08F7D80936F00209A289A279A2F980E9AF1
S11321B0169A86E792E090931D0280931C02109277
S11321C041028AE58093370281E08093810080E2B6
S11321D08093B60083E08093B10080918400909155
S11321E085004AE72091840030918500281739073B
S11321F008F44150442311F0C901F4CF9091B20086
S11322008091B2008917E1F3209184003091850018
S11322109091B2008091B2008917E1F3809184001B
S113222090918500821B930B409625E096958795A7
S11322302A95E1F790930803809307031092B10065
S11322408091B10080938100809181008093B600D9
S11322501092B20010928500109284008FEF87BB19
S113226087B386BB8091B6008571E1F718B88FEF0C
S113227087B90C981498109285001092840080916C
S11322806F00816080936F0080918100887F8260FD
S1132290809381000E9493108823E1F78FEF80934D
S11322A0440280E00E94EE00182F8091B600806204
S11322B08093B6008091B60081FDFCCF82E08093CC
S11322C0B0008091B60080FDFCCF83E08093B10024
S11322D08091B60083FDFCCF86EE8093B30080919D
S11322E070008260809370000E944B028091000213
S11322F0909101020196AA27BB2780933D029093F7
S11323003E02A0933F02B093400280E193E0909399
S11323101302809312028F969093150280931402F5
S11323208EE693E090931702809316028FEF9FEF4F
S11323309093F9028093F8029093FB028093FA023F
S11323409093FD028093FC029093FF028093FE021F
S11323509093010380930003809100028295807F13
S113236080930E028FEF809336020E94931088238D
S1132370E1F7802F99278FBF78942FB7F8943327EC
S1132380809131028F5F809331022FBF80913A0296
S11323908823D9F480910F028823B9F480919F0394
S11323A0813049F490E08091EA02882309F491E0B5
S11323B0992359F002C0853041F083E080930F02E5
S11323C00E948A0B85E080933A020E940B0C8FB71F
S11323D0F894482F552757C080917000992783702F
S11323E09070892B19F4E5E0F0E014C08091B600F8
S11323F08A71E1F78091B3009091B200891B8C300F
S113240038F08091B200853F18F4E3E0F0E002C0B8
S1132410E2E0F0E080916E00867009F580916F0033
S11324208E72E9F4809171008E72C9F40CB407FCC9
S113243016C08091C100887191F48091C90088719F
S113244071F48091BC0082FD0AC080917A0087FFFC
S113245003C081E090E005C085E090E002C080E028
S113246090E023B78E1708F4E82FFF27E453FF4FBB
S1132470E491207F2160E22BE3BF78948895F8945F
S113248083B78E7F83BF809106038F3F09F4A4CF67
S1132490282F3327F901EC5DFD4F808180930603DB
S11324A08F3F11F48093A5038FEF80832F3F09F4AE
S11324B093CF4FBF822F0E947D0D89CFACE2B0E055
S11324C0E4E6F2E10C941214222E332E442E552EFF
S11324D0662E772E882E992EFE013196A8E0119251
S11324E0AA95E9F729823A824B825C826D827E82C8
S11324F08F829886FE013996B8E01192BA95E9F771
S1132500A986BA86CB86DC86ED86FE860F87188B75
S113251089819A81AB81BC8189A79AA7ABA7BCA703
S11325207C018D018FEF9FEFA0E0B0E0E822F9225B
S11325300A231B2389A59AA5ABA5BCA51D01442488
S1132540552489859A85AB85BC858DA39EA3AFA3AD
S1132550B8A75C016D018FEF9FEFA0E0B0E0A82267
S1132560B922CA22DB228DA19EA1AFA1B8A53D014B
S113257088249924C801B701A60195010E94F31388
S113258069A37AA38BA39CA3C801B701A4019301F7
S11325900E94F3137B018C01C201B101A6019501D4
S11325A00E94F3135B016C01C201B101A401930108
S11325B00E94F3133B014C01EA0CFB1C0C1D1D1D76
S11325C089A19AA1ABA1BCA19D01442755272E0D39
S11325D03F1D401F511F2A153B054C055D0540F466
S11325E080E090E0A1E0B0E0680E791E8A1E9B1E98
S11325F0CA01AA27BB27860D971DA81DB91D8D8F5B
S11326009E8FAF8FB8A3A9013327222789A19AA14E
S1132610ABA1BCA1A070B070280F391F4A1F5B1F6B
S1132620298F3A8F4B8F5C8FA98CBA8CCB8CDC8C26
S1132630ED8CFE8C0F8D18A1FE01719698E011921D
S11326409A95E9F7ED8AFE8A0F8B188F2D813E81CA
S11326504F8158856DA17EA18FA198A50E94F31387
S11326603B014C012D853E854F85588969A57AA586
S11326708BA59CA50E94F3132D893E894F89588D03
S1132680260F371F481F591F260D371D481D591D7A
S11326902D8B3E8B4F8B588F6D887E888F88988CBE
S11326A02A2D3B2D4C2D5D2D662D772D882D992DB2
S11326B0E2E1AC960C942E14A0E1B0E0E2E6F3E182
S11326C00C941214222E332E442E552E662E772E61
S11326D0882E992E002309F466C088E0FE01319605
S11326E011928A95E9F729833A834B835C836D833E
S11326F07E838F829887E0E2E01B1E16CCF52D8145
S11327003E814F815885602F772767FD7095DA01E8
S1132710C901062E04C0B695A795979587950A9486
S1132720D2F78D879E87AF87B88B04C0220F331FE3
S1132730441F551FEA95D2F789819A81AB81BC81E8
S113274004C0B695A795979587956A95D2F7282BD7
S1132750392B4A2B5B2B29873A874B875C87298443
S11327603A844B845C846D847E848F8498881BC0F7
S11327701D861E861F86188A2E2F332727FD309527
S1132780309521953F4F8D819E81AF81B88504C0DE
S1132790B695A795979587952A95D2F789879A87AD
S11327A0AB87BC87DCCF222D332D442D552D662DD0
S11327B0772D882D992DE2E160960C942E14AA1B96
S11327C0BB1B51E107C0AA1FBB1FA617B70710F018
S11327D0A61BB70B881F991F5A95A9F7809590954A
S11327E0BC01CD010895629FD001739FF001829FC7
S11327F0E00DF11D649FE00DF11D929FF00D839F8C
S1132800F00D749FF00D659FF00D9927729FB00D28
S1132810E11DF91F639FB00DE11DF91FBD01CF013B
S1132820112408952F923F924F925F926F927F925C
S11328308F929F92AF92BF92CF92DF92EF92FF92CC
S11328400F931F93CF93DF93CDB7DEB7CA1BDB0B78
S11328500FB6F894DEBF0FBECDBF09942A8839881D
S113286048885F846E847D848C849B84AA84B98424
S1132870C884DF80EE80FD800C811B81AA81B98130
S1132880CE0FD11D0FB6F894DEBF0FBECDBFED0144
S11328900895DC0101C06D9341505040E0F7089564
S10528A0FFCF64
S10F28A20100010022FFFFFFFFFFFF0107
S9030000FC
