S01700006275696C642F697269732F6D61696E2E7372656343
S11300000C9475000C9494000C9494000C9494003B
S11300100C9494000C9494000C9494000C9494000C
S11300200C9494000C9494000C9494000C949400FC
S11300300C9494000C94320D0C9494000C947B0D4D
S11300400C948E0E0C943F0E0C94780E0C94830E2C
S11300500C94C70E0C9494000C9494000C9494008B
S11300600C94A30D0C9494000C9494000C949400A0
S11300700C9494000C9494000C9494000C949400AC
S11300800C9494000C9494000C9494000C9494009C
S11300900C9494000C9494000C9494000C9494008C
S11300A00C9494000C9494000C9494000C9494007C
S11300B00C9494000C9494000C9494000C9494006C
S11300C00C9494000C9494000C949400290A710AE2
S11300D0B30ACD0A0A0B8E0BED0B7F0C250C390CE1
S11300E0A30CC80C00020E060C0411241FBECFEF93
S11300F0D1E2DEBFCDBF12E0A0E0B2E0E4E0F2E284
S113010000E00BBF02C007900D92AC30B107D9F7E5
S113011013E0ACE0B2E001C01D92AE3AB107E1F7E2
S11301200E94F20E0C9400110C9400002F98089574
S1130130289A08959FB7F8948091C2028F5F8093A4
S1130140C2029FBF08950DB407FEFDCF8EB508957A
S1130150982F0DB407FEFDCF8EB59EBD0895289847
S113016008958627082E8295807F8025092E982F52
S113017082958F700826869598278927880F880F7F
S1130180880F80250895809107038F3F69F0E82F39
S1130190F0E0E95DFD4F9081909307039F3F11F4D8
S11301A09093A6039FEF908308958091B00080936D
S11301B0B0008091B60081FDFCCF08952FB7F8946C
S11301C080910802909109022FBF08959FB7F89477
S11301D0E82FF0E0E95DFD4F20812F3F99F4E09195
S11301E0A603E81779F0209107032F3F19F48093B1
S11301F0070304C0F0E0E95DFD4F80838093A6030C
S113020080E001C085E09FBF089584E00C94E6007F
S11302100F931F932FB7F8944091AC025091AD0205
S11302206091AE027091AF0280918400909185003C
S1130230B09B08C04F5F5F4F6F4F7F4F809184002A
S1130240909185002FBFBA0155274427A0E0B0E064
S11302508A019B01082B192B2A2B3B2BC901B801BE
S11302601F910F91089540918400509185006FB7BC
S1130270F89420918400309185002D5F3F4FF9015F
S1130280E41BF50BE817F90718F49C01240F351F3C
S11302902115310511F421E030E02150310930936A
S11302A089002093880082E086BB80916F00826081
S11302B080936F006FBF08950F931F93CF93DF93C5
S11302C08C018FB7F894C091C002D091C1029E01F5
S11302D02F5E3E4F3093C1022093C0028FBF86E051
S11302E00E94E600CE01B8010E947B108A5D9E4FF9
S11302F0DF91CF911F910F9108952FB7F89430910A
S1130300B2008091220290912302A0912402B09124
S11303102502B99B0BC04091B3003091B200019605
S1130320A11DB11D840F911DA11DB11DBC01CD01E5
S1130330630F711D811D911D2FBF0895CF93DF930E
S1130340DFB7F894C0910C02C11109C081E0809319
S11303500C021092010289E00E94E60018C080910C
S113036045028F3F99F4E0910202EE2379F08091E7
S113037003028F3F19F41092030204C0F0E0EB5B18
S1130380FD4F108210920202C0E001C0C5E0DFBF41
S11303908C2FDF91CF910895CF93DF93DFB7F8943B
S11303A080910D02823021F5C0910402C11120C058
S11303B0909106029F3FB1F0E92FF0E0E95CFD4F18
S11303C08081809306028F3F11F4809305028FEFA2
S11303D080839093040281E080930D0282E00E9466
S11303E0E60004C09093040210920D02DFBF02C025
S11303F0DFBFC1E08C2FDF91CF910895CF93DF93BE
S1130400DFB7F89480910C02823039F5C091010273
S1130410C11123C0909103029F3FB1F0E92FF0E096
S1130420EB5BFD4F8081809303028F3F11F4809337
S113043002028FEF80839093010281E080930C028B
S113044089E00E94E60004C09093010210920C021D
S11304508CB58F7B8CBDDFBF02C0DFBFC1E08C2FAA
S1130460DF91CF910895CF92DF92EF92FF920F9395
S11304701F93CF93CFB7F8942091B3009091B2001B
S113048087B3291711F081FF02C0CFBF7CC08091D0
S11304903D02811102C086EE3FC00E947D01C090E2
S11304A01B02D0901C02E0901D02F0901E020091ED
S11304B00C0310910D0320910E0330910F03AB0137
S11304C0BC014C195D096E097F0940175107620789
S11304D0730728F010923D0286EE91E01EC0D90108
S11304E0C8018C0D9D1DAE1DBF1D4091220250916F
S11304F023026091240270912502841B950BA60BA4
S1130500B70B873E9105A105B10528F68230910508
S1130510A105B10508F482E090E02FEF280F309197
S1130520B60033FDFCCF3091B2002313822F4091EB
S113053022025091230260912402709125028A01C3
S11305409B010F5F1F4F2F4F3F4F080F111D211DA0
S1130550311D041715072607370710F4842F8095DB
S11305602091B60023FDFCCF8093B300CFBF992325
S113057051F080E0CF911F910F91FF90EF90DF90A9
S1130580CF900C94E600CF911F910F91FF90EF90C4
S1130590DF90CF900895CF93DF931F92CDB7DEB74E
S11305A089830E94AF00898180688EBD80E00E94AB
S11305B0A8000E94A30089830E94980089810F905B
S11305C0DF91CF9108951F93CF93DF931F92CDB7FF
S11305D0DEB7182F69830E94AF00912F906C9EBDE7
S11305E089810E94A8000E94A3000F90DF91CF91FF
S11305F01F910C9498008CB58F7B8CBD229A239804
S1130600219A209A8CB580618CBD8CB58F778CBD76
S11306108CB5877F8CBD8CB58B7F8CBD8CB580648D
S11306208CBD8DB581608DBD8CB58C7F8CBD0895DE
S1130630CF938FB7F89490910102911106C09091D5
S11306400C02923011F48FBF0FC08FBFCFB7F89454
S113065080910C0281110AC082E080930C021092F6
S113066001020E94FB02CFBF81E004C0CFBF0E9401
S11306709E0180E0CF910895CF93DF93FC01228106
S113068030E0322F22274181242B25FF15C0277407
S11306903C7C2134384881F4FC01C781D0E0DC2F54
S11306A0CC278681C82B0E94DE0021E0C817D90719
S11306B009F020E0822F01C080E0DF91CF910895FE
S11306C02F923F924F925F926F927F92AF92BF921E
S11306D0CF92DF92EF92FF920F931F93CF93DF930A
S11306E020911202222311F015E0DEC01091A00324
S11306F01530D1F72091F8022111F6CFEC010E94B8
S11307001803882389F38CA582FF03C06EA56F703C
S113071001C060E080917602681731F06093760240
S1130720606885E00E94E3022A8130E0322F2227AC
S11307308981282B27743C7C21343848A1F486E035
S11307400E94CB028F7190E04091420220913802C6
S113075030E0240F311D43E0359527954A95E1F7A4
S11307602817390744F169E082E00E94E3020E94FD
S113077008012B013C016E01EFEFCE1ADE0A08815D
S11307808CA52EEFB22EB00E84FF09C09E012C1949
S11307903D098BEF800FA82EA20EBA1802C0AB2C15
S11307A0B12C81E00E94CB028F71893039F066E070
S11307B082E00E94E3020E94FE0176C08FB7F894A3
S11307C02F9AE0908400F09085008FBF0E949600DD
S11307D00E94AF0080E68EBD802F0E94A800860193
S11307E03A2CF80181918F010E94A8003A943110AB
S11307F0F8CFAA942A2D30E08601020F131F2F5F31
S11308003F4F2C0D3D1D1701F2EA2F0E311C241809
S11308103508C101AA2797FDA095BA2F120123011B
S1130820280E391E4A1E5B1EBB2041F1F80181814E
S1130830C280D12CE12CF12C7601DD24CC24F82AC1
S11308408481C82A8381D82AD701C60182199309D1
S1130850A409B50984839383A283B183A22E3901A9
S1130860F30181913F010E94A800862D8A198B1102
S1130870F7CFF801C482D382E282F1820E94A300FE
S11308800E94980066E082E00E94E3028CA58260E8
S11308908CA728A639A64AA65BA686E08093A00367
S11308A084E08093120210E0812FDF91CF911F9199
S11308B00F91FF90EF90DF90CF90BF90AF907F901B
S11308C06F905F904F903F902F9008953F924F927A
S11308D05F926F927F928F929F92AF92BF92CF92CC
S11308E0DF92EF92FF920F931F93CF93DF9300D089
S11308F0CDB7DEB714E030E8A32E05E043E0D42EF4
S113090059E0852E62E0C62E78E0B72E81EA93E0A6
S1130910E5E09E2E980E8091BB02823009F07DC0E6
S11309201092BB0280914602823009F459C0833090
S113093009F461C0813009F070C0209184003091C5
S113094085006090A8027090A902621A730A9091BF
S11309503C02903841F410923C0290913B02923058
S113096009F05BC03AC097FF04C0161417040CF4D6
S1130970A8C3E0903902F0903A02809121028111DB
S1130980A0C3C7010E946003282F81119BC3D70114
S11309909C968C919C978E7F9C968C9381E08093FF
S11309A02102F092A803E092A703D0923C0235C042
S11309B097FF9FC3161417040CF09BC3A0923C022C
S11309C081E0809346028093BB02C30129830E9485
S11309D0330129812093100381E080933B0208C0F6
S11309E01092210210923C021092100310933B02C9
S11309F00E94050112C09091A003923019F48093D3
S1130A00A00309C080911202863029F410921202C8
S1130A1081E00E94CB020E94FE098091F8028823A3
S1130A2009F4B3C08091A003813009F4AEC00E94E0
S1130A301803882309F4A9C08FB7F894609043027F
S1130A40709044028FBF1092F8028FE00E94CB0294
S1130A50F82E809112028B7F833021F40093A0033F
S1130A60B0921202F2FE4AC080911202863011F452
S1130A701092120280911202811140C0B4E0FB1264
S1130A8034C086E00E94CB028F7190913802292FE6
S1130A9026952695921B980F90933802E0911F0299
S1130AA0F091200294A59B7F986094A786A70E944A
S1130AB00801930127503109261B370B29016624AD
S1130AC057FC6094762CE0911F02F091200224A53B
S1130AD0226024A7AB01BC01440D551D661D771D82
S1130AE040A751A762A773A707C0E0911F02F09126
S1130AF0200284A5857F84A700931202F3FE45C0DB
S1130B0080911202843081F50093A00310921202A6
S1130B1080912102833019F41092210236C0E091B1
S1130B20A703F091A803828190E0982F8827218160
S1130B30822B85FF0EC087749C7C8134984849F4CD
S1130B40878190E0982F88272681822B019609F0CF
S1130B50D3C21092210210923C02109210031093FF
S1130B603B020E94050111C0853079F486E00E94A1
S1130B70CB02909142028F71292F26952695921BC4
S1130B80980F90934202809212028091120288235D
S1130B9009F44DC2893009F0BCC10E94AF0080E263
S1130BA08EBD0DB407FEFDCF8EB51EBC0DB407FE81
S1130BB0FDCF8EB59DEF980F973208F07AC01EBC1A
S1130BC0E0911F02F09120023F015FEF651A750A60
S1130BD08083AEEF5A2E580E86E0851510F0452C12
S1130BE002C0F7E04F2E7301342C40E050E080E067
S1130BF049835A830E94A800D7018D937D01682FF1
S1130C0049815A81CA010E94B100AC013A94311061
S1130C10EECF2FEF240D30E02F5F3F4F620E731E97
S1130C20E0911F02F091200281818770823029F4C3
S1130C30809121028230D9F50BC09FB7F89481E0EE
S1130C402091F202233008F080E09FBF882379F1DD
S1130C50852D84197301680E80E049835A836E14CC
S1130C6069F00E94A800F70181937F01682F4981F0
S1130C705A81CA010E94B100AC01EECF0E94A800C3
S1130C80682F49815A81CA010E94B1007C0180E029
S1130C900E94A800682FC7010E94B1007C010E9435
S1130CA0A300E0911F02F091200285A705C00E94D5
S1130CB0A300EE24E394F12C0E9498000093A00377
S1130CC010921202EF2809F0A9C140901F0250901F
S1130CD02002D20111968C91119787709091210274
S1130CE0823029F5923009F00FC1E091A703F09109
S1130CF0A80313969C918381981306C180916F0079
S1130D008D7F80936F001092BB02E091A703F09156
S1130D10A80384A5816084A71092210210923C024A
S1130D201092100310933B020E940501EDC0911133
S1130D3017C0C2010E943C03882391F000937702FC
S1130D40C092780210927902F201838180937A0230
S1130D5087E792E00E946003811102C0D0922102D1
S1130D60E0908400F0908500C2010E943C03882337
S1130D7021F0F4EEEF1AFCEFFF0AF092A902E092E0
S1130D80A80280918400909185009701281B390B5B
S1130D90C90118161906ACF420913C0221110EC0A9
S1130DA02091BB0221110DC021E020934602209323
S1130DB0BB020E943301A0923C0203C0206820932E
S1130DC03C02D20119968C91199790E0982F8827AC
S1130DD018962C91822B20912602422F50E0FA0182
S1130DE0EE0FFF1FE750FD4F60817181F090BC0250
S1130DF06817790711F4FA0110C0A9EFB2E0E1EA2B
S1130E00F3E020E030E070E060E04D915D91481740
S1130E10590779F420932602F901EF55FC4F80819C
S1130E208F1509F43FC0F394F092BC02F08260E89D
S1130E3022C041915F2D541B651710F4722F652F4A
S1130E402F5F3F4F2530310501F770932602272F7E
S1130E5030E0F901EE0FFF1FE750FD4F91838083CF
S1130E60F394F092BC02F901EF55FC4FF082F901C2
S1130E70E755FC4F10828091BC02982F9F779F37D3
S1130E8019F0209126020EC06F37D8F3E1EAF3E09F
S1130E90282F207890819F679813208331969E1283
S1130EA0F9CFEFCFD20113969C91E22FF0E0DF014E
S1130EB0A755BC4F8C91ED50FD4F80FF04C080813D
S1130EC0981303C021C081608C939083FFB6F8947B
S1130ED08091F2028330B8F4E0910A03E80FE33022
S1130EE008F0E350F0E0EE0FFF1FEB5EFD4F708063
S1130EF0E180518240828F5F8093F20285E00E94FC
S1130F00E600472C5E2CFFBE5092200240921F0246
S1130F1085C09FEF980F933008F06EC09EEF980F36
S1130F209230D8F52091A003213099F49091BB021E
S1130F3091110FC029830E949600D0924602298104
S1130F402093BB028BE293E00E943301C092A00382
S1130F503EC0833011F5233001F50E941803882325
S1130F60E1F08FE00E94CB02809181008064809345
S1130F70810080E286BB80916F00806280936F0065
S1130F8060913402606688E00E94E30266E082E0D9
S1130F900E94E3021093A0031AC0809112028150B0
S1130FA08230A8F48091A003853089F40E9418034C
S1130FB0882369F063E082E00E94E30280916F007D
S1130FC08F7D80936F001092F802D092A0038091DD
S1130FD01202813041F49091A0039330F9F42F9AD6
S1130FE08093A00306C08230C9F48091A0038330AB
S1130FF0A9F4B092120212C0873081F40E9418033F
S1131000882361F060913402606688E00E94E30204
S11310108091A003853069F71093A0038091120298
S1131020883029F41092120283E00E94E600809135
S1131030120281111DC08091A0038530C9F48091F2
S1131040F802811115C080912102811111C0809193
S11310503C0281110DC08091BB02811109C08091B5
S11310603B02823029F481E080933B020E94050117
S113107080911202811103C087E00E94E6008FB7BD
S1131080F8949091C2029130B9F41092C2028FBFC9
S11310900F900F90DF91CF911F910F91FF90EF90E0
S11310A0DF90CF90BF90AF909F908F907F906F9084
S11310B05F904F903F90089591E09093C2028FBF4C
S11310C02ACC25E090913C02892F8F77813009F05A
S11310D06FCC9078926090933C0280E198E00E94FB
S11310E05C0121E0209346022093BB020E9433015D
S11310F094CC10923C026ECC8091BB02811129CD1C
S1131100C092460281E08093BB0289E993E00E9489
S11311103301C092210239CD9FB7F8948091C20265
S113112081508093C202803811F09FBF089581E0FE
S11311308093C2029FBF0C9466040F931F93CF93B6
S1131140DF931F92CDB7DEB78C018FE3F80182875E
S1131150909111029F5F9093110293830E949A00D1
S113116080913B0281110DC01093BF020093BE0217
S113117081E080933B021092BD020E94050180E051
S113118001C085E089830E948C0889810F90DF91DA
S1131190CF911F910F910895FF920F931F93CF93B7
S11311A0DF93EA012D3108F068C0EA81F0E0FE2FF8
S11311B0EE279981E92BAF0147745C7C4134584890
S11311C039F0E073FF27E164F868E98398E89A83CB
S11311D08B01F82E235F28830E94DE00888799877D
S11311E09FB7F894809107029FBF8C831D82FB8672
S11311F00E831F838FB7F89490910D0291110FC045
S113120092E090930D02109204028FBFCE010E94CF
S11312109D08C82F882391F10E94CC012FC08FBF55
S1131220D0933602C0933502DFB7F894C0910D0213
S1131230C11109C081E080930D021092040282E082
S11312400E94E60018C0809137028F3F99F4E09124
S11312500502EE2379F0809106028F3F19F4109273
S1131260060204C0F0E0E95CFD4F10821092050212
S1131270C0E001C0C5E0DFBF01C0C6E08C2FDF9134
S1131280CF911F910F91FF900895E82FF0E0EE0F9A
S1131290FF1FE655FD4F1182108291E090930002EA
S11312A0811105C0635C724011F41092100208951C
S11312B02091000221110AC06091AA027091AB0230
S11312C06817790719F480E00C94450908958F9202
S11312D09F92AF92BF92CF92DF92EF92FF920F93C1
S11312E01F934091B80241FF78C08090B002909063
S11312F0B102A090B202B090B302C090B402D090F8
S1131300B502E090B602F090B7028B019C01081977
S113131019092A093B090C151D052E053F0508F47A
S11313205CC040FF05C0842F8D7F8093B8020EC03F
S1131330B701A601480D591D6A1D7B1D4093B002DB
S11313405093B1026093B2027093B30280910E0283
S113135090910F02019690930F0280930E022091B8
S1131360100221113AC030910A0220910B023093ED
S1131370D0022093CF028093D2029093D1028FEFB8
S11313808093C9028093CA0286E08093CE02809142
S1131390AA029091AB02892B01F583EC92E0909321
S11313A0AB028093AA0281E18093C3028091000280
S11313B0882301F11092000224E043EC52E06FEF25
S11313C07FEF86E00E94CC088823A1F081E080931F
S11313D000021092AB021092AA0281E01F910F91B9
S11313E0FF90EF90DF90CF90BF90AF909F908F9041
S11313F00C94E60081E080931002EFCF9FB7F8943D
S11314008091C202882329F080688093C2029FBF22
S1131410089581E08093C2029FBF0C9466044F92AA
S11314205F926F927F928F929F92AF92BF92CF9270
S1131430DF92EF92FF920F931F93CF93DF9390E08D
S11314408C30910508F0F8C2FC01EA59FF4F0C9466
S1131450BA1080913302811141C04091030350912D
S1131460040360910503709106032FB7F894C090AC
S11314700C03D0900D03E0900E03F0900F038091C5
S11314801B0290911C02A0911D02B0911E028C0DB2
S11314909D1DAE1DBF1D2FBF409303035093040336
S11314A06093050370930603109233022FB7F894E8
S11314B031E030933D0280931B0290931C02A09371
S11314C01D02B0931E0240930C0350930D036093CE
S11314D00E0370930F032FBF0E9433020E947D01FD
S11314E030C00E947D012FB7F89410923D022FBFA7
S11314F02091B80221FFA0C20091B0021091B10264
S11315002091B2023091B3026B017C01C01AD10A5E
S1131510E20AF30A97018601C090B402D090B502A2
S1131520E090B602F090B702C01AD10AE20AF30AB8
S11315302FEFC216D206E2062FE7F20609F044C2E4
S11315407BC2DF91CF911F910F91FF90EF90DF90BD
S1131550CF90BF90AF909F908F907F906F905F904F
S11315604F900C9467098FB7F89492E090930D0212
S11315708FBF8091040281115FC2809135029091E6
S113158036020E949D08882309F456C20E94CC01A9
S1131590809135029091360288C080913B0210926E
S11315A03B02853079F50E947D016093B00270930F
S11315B0B1028093B2029093B3028AEF90E0A0E06C
S11315C0B0E08093B4029093B502A093B602B093B6
S11315D0B7028091B8028E7F82608093B80281E066
S11315E0DF91CF911F910F91FF90EF90DF90CF90FB
S11315F0BF90AF909F908F907F906F905F904F902F
S11316000C94E6009AEF980F923008F415C2809378
S11316103B0212C20E949A00D0913B02D13091F554
S11316208091BD028F5F8093BD02863058F5809112
S1131630BE029091BF0220913C02211115C0C091BD
S1131640BB02C11111C090933A0280933902D09326
S11316503C028BED91E10E945C01D0934602D09351
S1131660BB020E94330101C0C5E0C0931003C11145
S113167004C083E080933B0208C082E080933B0275
S1131680C0E003C010923B02C1E00E948C08CC234E
S113169009F4D2C1C091BE02D091BF028A858F33B2
S11316A009F0CAC10E94CC01CE01DF91CF911F91F4
S11316B00F91FF90EF90DF90CF90BF90AF909F90ED
S11316C08F907F906F905F904F900C945809E091A9
S11316D00A03F0E0EE0FFF1FEB5EFD4FC081D181E6
S11316E08FBF18818EEF810F8930F8F49FB7F8947B
S11316F080910A03E82FF0E0EE0FFF1FEB5EFD4F31
S1131700D183C0838F5F833008F064C080930A0361
S11317108091F20281508093F2029FBF8FB7F894B8
S11317209091F2029111D3CFA2C08A858F3309F030
S11317303EC085EF810F8230C8F20B85EF80F12C1B
S1131740FE2CEE248E81E82A6FEFE616F60649F4A5
S11317509C812FB7F894809107022FBF981741F00E
S1131760C5CF0E94DE00E816F90609F0BFCFF0CF1E
S1131770063009F0BBCF113109F0B8CF8E8590E067
S1131780982F88272F85822B2FB7F89480FF02C0CB
S1131790129801C0129A81FF02C0119801C0119AD7
S11317A082FF02C0109801C0109A2FBF9FCFEF8014
S11317B0F12CFE2CEE248E81E82A0E94DE00E8162D
S11317C0F90621F0EF20E09409F090CF8FB7F89458
S11317D08FBF8CCF10920A039BCFCFB7F894609140
S11317E03E0270913F0280914002909141022EE4AA
S11317F033E840E050E00E948F1029013A0100E2F2
S11318000E94C51049015A017694679457944794ED
S1131810840C951CA61CB71CB7FE07C0E894B7F847
S11318202FEF821A920AA20AB20A80923E02909282
S11318303F02A0924002B0924102CFBF8FB7F8940A
S11318409092C1028092C00212C08FB7F894109295
S1131850BA021092B90210929F0310929E03109242
S11318601402109213021092A7021092A6028FBFC4
S1131870E3C0CFB7F89482E080930C020E94FB028D
S1131880CFBF809101028111D7C08091A003811143
S113189048C0CEEFD1E0CE01019701960197E1F760
S11318A016980E94960086E090E0019701960197B1
S11318B0E1F7169A60E083E00E94E30268E082E0C8
S11318C00E94E302219721962197E1F76DE48EE0CF
S11318D00E94E30267EC89E00E94E30260E885E08D
S11318E00E94E302109276028AE1809334026AE74E
S11318F088E00E94E3022F9A81E08093A003DF91A5
S1131900CF911F910F91FF90EF90DF90CF90BF90F8
S1131910AF909F908F907F906F905F904F900C94BA
S1131920FE01DF91CF911F910F91FF90EF90DF9017
S1131930CF90BF90AF909F908F907F906F905F906B
S11319404F900C94FE0980910B03882309F474C012
S113195030911002EAEAF2E090E021E0482F4223BD
S113196069F04081518111821082622F6095862333
S1131970911104C0435C524009F430E0220F9F5F90
S11319803296983059F780930B033093100254C069
S113199080910002E82FF0E0EE0FFF1FE655FD4FA7
S11319A060817181DF91CF911F910F91FF90EF9032
S11319B0DF90CF90BF90AF909F908F907F906F906B
S11319C05F904F900C9445091C141D041E041F04C1
S11319D00CF0B7CDC0920303D0920403E092050348
S11319E0F092060321E0209333023FB7F89420934A
S11319F03D0260931B0270931C0280931D0290931E
S1131A001E02C0920C03D0920D03E0920E03F092DA
S1131A100F033FBFDF91CF911F910F91FF90EF9084
S1131A20DF90CF90BF90AF909F908F907F906F90FA
S1131A305F904F900C943302DF91CF911F910F91DF
S1131A40FF90EF90DF90CF90BF90AF909F908F90DA
S1131A507F906F905F904F9008958FB7F89408959A
S1131A608FBF08951F920F920FB60F9211240BB6D9
S1131A700F920F931F932F933F934F935F936F9303
S1131A807F938F939F93AF93BF93EF93FF930E94A2
S1131A90D5008091B30090E00196409122025091CC
S1131AA0230260912402709125028A019B01080F90
S1131AB0191F211D311D009322021093230220932C
S1131AC024023093250278940E943302FF91EF910F
S1131AD0BF91AF919F918F917F916F915F914F9142
S1131AE03F912F911F910F910F900BBE0F900FBE3E
S1131AF00F901F9018951F920F920FB60F921124FA
S1131B000BB60F922F933F934F935F936F937F93F3
S1131B108F939F93AF93BF93EF93FF930E94D5004E
S1131B20FF91EF91BF91AF919F918F917F916F91B1
S1131B305F914F913F912F910F900BBE0F900FBE6D
S1131B400F901F9018951F920F920FB60F921124A9
S1131B500BB60F922F933F934F935F936F937F93A3
S1131B608F939F93AF93BF93EF93FF932EB5E09121
S1131B70B902F091BA02309739F08091A60290919F
S1131B80A702E80FF91F20838091A6029091A70273
S1131B9001969093A7028093A6028CB58F778CBD93
S1131BA08091A6029091A702609113027091140291
S1131BB08617970708F03FC020919E0330919F033A
S1131BC0E091B902F091BA02AC01465F5F4F64172D
S1131BD0750708F4AB014150510984179507C8F4FF
S1131BE02115310549F0D901A80FB91F6C916EBDBB
S1131BF00DB407FEFDCF04C01EBC0DB407FEFDCF1F
S1131C006EB5309721F0DF01A80FB91F6C930196D0
S1131C10E4CF4CB540684CBD2115310531F0F901D4
S1131C20E80FF91F20812EBD01C01EBC9093A702AE
S1131C308093A60211C01092BA021092B9021092B7
S1131C409F0310929E03109214021092130210929A
S1131C50A7021092A6028EB5FF91EF91BF91AF91AA
S1131C609F918F917F916F915F914F913F912F91B0
S1131C700F900BBE0F900FBE0F901F901895789485
S1131C801F920F920FB60F9211240BB60F922F933F
S1131C903F934F935F936F937F938F939F93AF93F0
S1131CA0BF93EF93FF9380916F008D7F80936F00BC
S1131CB078948FB7F8949091BB02913019F492E024
S1131CC09093BB028FBF0E94FE09FF91EF91BF91D9
S1131CD0AF919F918F917F916F915F914F913F91C0
S1131CE02F910F900BBE0F900FBE0F901F90189561
S1131CF078941F920F920FB60F9211240F900FBE7B
S1131D000F901F90189578941F920F920FB60F9210
S1131D1011240F900FBE0F901F90189578941F9266
S1131D200F920FB60F9211240BB60F922F933F937D
S1131D304F935F936F937F938F939F93AF93BF93CF
S1131D40EF93FF93E6E8F0E0808191812081318177
S1131D508FB7F894309344022093430291E0909318
S1131D60F8028FBF0E94FE09FF91EF91BF91AF91DE
S1131D709F918F917F916F915F914F913F912F919F
S1131D800F900BBE0F900FBE0F901F901895789474
S1131D901F920F920FB60F9211242F938F939F933C
S1131DA0AF93BF932FB7F8948091AC029091AD029A
S1131DB0A091AE02B091AF020196A11DB11D809316
S1131DC0AC029093AD02A093AE02B093AF022FBFCA
S1131DD0BF91AF919F918F912F910F900FBE0F9054
S1131DE01F901895DFB7F89414BE88E10FB6F894E5
S1131DF080936000109260000FBE4CE050E06FEFE3
S1131E0070E087E292E00E94F9108FEF809307035D
S1131E108093A60356985E9854985C9880916F00BE
S1131E208F7D80936F00209A0E949800279A0E94C9
S1131E3096000E9A169A87E492E09093200280937B
S1131E401F02109242028AE58093380281E0809357
S1131E50810080E28093B60083E08093B1002091FA
S1131E608400309185008AE7409184005091850078
S1131E704217530708F481509A018111F5CF8091DC
S1131E80B2009091B2009817E1F320918400309150
S1131E9085008091B2009091B2009817E1F380918F
S1131EA08400909185004096821B930B25E09695C3
S1131EB087952A95E1F7909309038093080310927C
S1131EC0B100109281001092B6001092B2001092EC
S1131ED08500109284008FEF87BB86BB8091B6008B
S1131EE08571E1F70A9A099A089A129A119A109A36
S1131EF018B88FEF87B90C98149810928500109237
S1131F00840080916F00816080936F0080918100D4
S1131F10887F8260809381000E94C300C82F8F3F16
S1131F2019F00E940F0AF8CF809345020E949E0187
S1131F3080910A0290910B02AC014F5F5F4F60E009
S1131F4070E040933E0250933F02609340027093CE
S1131F50410221E133E0309316022093150220E47C
S1131F6033E030931802209317022FE633E03093C6
S1131F701A02209319022FEF3FEF3093FA022093B5
S1131F80F9023093FC022093FB023093FE0220936B
S1131F90FD02309300032093FF0230930203209349
S1131FA001038295807F80931102C0933702809150
S1131FB0B60080628093B6008091B60081FDFCCFAC
S1131FC082E08093B0008091B60080FDFCCF83E076
S1131FD08093B1008091B60083FDFCCF86EE8093A0
S1131FE0B300809170008260809370000E9433027D
S1131FF00E94C3008F3F19F00E940F0AF9CFDFBF80
S113200078940E949A0080913B02811117C08091BC
S11320101202811113C08091A003813029F48091B0
S1132020BB0281110BC002C0853041F083E0809374
S113203012020E94FE0985E080933B020E948C08F4
S1132040CFB7F8940E94C3008F3F09F050C080912D
S11320507000837089F08091B6008A71E1F78091F5
S1132060B3009091B200891B8C3040F08091B20093
S1132070853F20F483E003C085E001C082E0E09165
S11320806E00E670E9F490916F009E72E1F4E091C5
S11320907100EE72A9F40CB407FC15C09091C10054
S11320A0987189F4E091C900E87151F49091BC00F1
S11320B092FD09C090917A0097FD04C0E5E003C049
S11320C0E0E001C0E1E093B78E1708F4E82FF0E0F8
S11320D0EC51FF4F8491E92FE07FE160E82BE3BFEF
S11320E078948895F89483B78E7F83BFABCFCFBFA6
S11320F00E940F0AA5CFAA1BBB1B51E107C0AA1F50
S1132100BB1FA617B70710F0A61BB70B881F991F94
S11321105A95A9F780959095BC01CD010895E8944E
S1132120DF93CF93FC01DB010E94E1107F936F9357
S1132130E9019A01AC01BF93AF933F932F93DF0161
S11321400E94E11026F46C1B7D0B820B930B9E0105
S1132150EB01FC010E94F010AF91BF912F913F91D0
S11321600E94F010BE01CF01F9012F913F91CF9150
S1132170DF910895EE0FFF1F0024001C0BBE079093
S1132180F691E02D099497FB10F8169400080F932C
S1132190083098F00850232F342F452F562F672FDF
S11321A0782F892F902DF4CF05949795879577955F
S11321B0679557954795379527950A95AAF70F91EF
S11321C00895A29FB001B39FC001A39F700D811D0C
S11321D01124911DB29F700D811D1124911D08952C
S11321E00E94E110460F571FC81FD91F08F43196EB
S11321F00895DC0101C06D9341505040E0F708950B
S1072200F894FFCF7C
S10F220401FFFFFFFFFFFF2201000100AB
S9030000FC
