:100000000C9469010C9488010C9488010C9488016B
:100010000C9488010C9488010C9488010C9488013C
:100020000C9488010C9488010C9488010C9488012C
:100030000C9488010C9485070C9488010C9471072A
:100040000C9488010C9488010C9488010C9488010C
:100050000C9488010C9488010C9488010C948801FC
:100060000C9488010C9464050C9488010C94E705A9
:100070000C9488010C9488010C9488010C943E0720
:100080000C941D070C9428070C9433070C9451070B
:100090000C9400070C9488010C9412070C948801AE
:1000A0000C9488010C9488010C9488010C948801AC
:1000B0000C9488010C9488010C9488010C9488019C
:1000C0000C9488010C9488010C9488010000211084
:1000D000422063308440A550C660E77008812991B2
:1000E0004AA16BB18CC1ADD1CEE1EFF1311210025A
:1000F00073325222B5529442F772D6623993188302
:100100007BB35AA3BDD39CC3FFF3DEE36224433425
:1001100020040114E664C774A44485546AA54BB551
:1001200028850995EEE5CFF5ACC58DD553367226F9
:1001300011163006D776F6669556B4465BB77AA7A1
:1001400019973887DFF7FEE79DD7BCC7C448E55845
:100150008668A7784008611802282338CCC9EDD9F1
:100160008EE9AFF9488969990AA92BB9F55AD44A99
:10017000B77A966A711A500A333A122AFDDBDCCB41
:10018000BFFB9EEB799B588B3BBB1AABA66C877C65
:10019000E44CC55C222C033C600C411CAEED8FFD91
:1001A000ECCDCDDD2AAD0BBD688D499D977EB66E39
:1001B000D55EF44E133E322E511E700E9FFFBEEFE1
:1001C000DDDFFCCF1BBF3AAF599F788F8891A981A3
:1001D000CAB1EBA10CD12DC14EF16FE18010A1008D
:1001E000C230E3200450254046706760B98398937D
:1001F000FBA3DAB33DC31CD37FE35EF3B1029012DD
:10020000F322D2323542145277625672EAB5CBA548
:10021000A89589856EF54FE52CD50DC5E234C3242C
:10022000A01481046674476424540544DBA7FAB71C
:100230009987B8975FE77EF71DC73CD7D326F2367C
:100240009106B01657667676154634564CD96DC968
:100250000EF92FE9C899E9898AB9ABA944586548CC
:1002600006782768C018E1088238A3287DCB5CDBBC
:100270003FEB1EFBF98BD89BBBAB9ABB754A545A1C
:10028000376A167AF10AD01AB32A923A2EFD0FED88
:100290006CDD4DCDAABD8BADE89DC98D267C076C6C
:1002A000645C454CA23C832CE01CC10C1FEF3EFF5C
:1002B0005DCF7CDF9BAFBABFD98FF89F176E367EBC
:1002C000554E745E932EB23ED10EF01E00020E0605
:1002D0000C0411241FBECFEFD1E2DEBFCDBF12E070
:1002E000A0E0B2E0E2EDF7E100E00BBF02C0079052
:1002F0000D92A830B107D9F713E0A8E0B2E001C031
:100300001D92A530B107E1F70E94240A0C94E80B76
:100310000C9400008FB7F894992708958FBF089523
:100320007FB7F8946091B2002091220230912302AD
:100330004091240250912502B99B11C08091B300D5
:100340009091B200280F311D411D511D2F5F3F4F6D
:100350004F4F5F4F290F311D411D511D04C0260F06
:10036000311D411D511D872F99278FBFCA01B9012A
:100370000895282F9FB7F894E82FFF27EA5DFD4FD7
:1003800080818F3F81F4E0910003E21771F40BC08C
:100390002093F50204C0FF27EA5DFD4F20832093E0
:1003A000000320E007C025E005C08091F5028F3FE3
:1003B00091F7EECF892F99278FBF822F9927089524
:1003C0001F931FB7F8948091FF02882339F40E948D
:1003D000B901882319F481E08093FF02812F9927C6
:1003E0008FBF1F910895EF92FF920F931F93E0919B
:1003F0008402E1FF97C020917C0230917D02409100
:100400007E0250917F02E0908002F0908102009184
:10041000820210918302621B730B840B950B6E1585
:100420007F058007910708F47DC0E0FF04C0ED7FE1
:10043000E09384020CC02E0D3F1D401F511F2093DE
:100440007C0230937D0240937E0250937F02209184
:10045000090230910A022F5F3F4F30930A02209326
:10046000090280910802882309F05CC020934B02A6
:10047000832F992780934A028FEF809344028093C1
:10048000430289E88093490282E080934702809189
:10049000100290911102892B09F044C02FB7F894F3
:1004A000332785E080931302109214028EE392E0CA
:1004B00090930F0280930E0282E090E090931102DD
:1004C0008093100210921602109215028EE0809313
:1004D00012022FBF8FB7F894282F33278091E402A0
:1004E0008A3011F42FBF1AC02FBF9FB7F8948091A4
:1004F0003C02882311F020E006C081E080933C029A
:1005000010923D0221E0892F99278FBF222331F0DD
:100510000E94E00181E08093080204C01092110261
:100520001092100287E00E94B9011F910F91FF9075
:10053000EF900895DF92EF92FF920F931F938FB782
:10054000F894282F3327D22E9091B3008091B200D7
:1005500047B3981711F041FF02C02FBF71C08091BF
:1005600035028823E1F10E949001E0901D02F09095
:100570001E0200911F02109120022091F902309179
:10058000FA024091FB025091FC026E197F09800B28
:10059000910B621773078407950720F010923502BC
:1005A00071E01EC02E0D3F1D401F511F8091220281
:1005B00090912302A0912402B0912502281B390BAF
:1005C0004A0B5B0B273E31054105510540F4822F54
:1005D000223010F070E005C070E082E002C070E0F0
:1005E00086EE682F61508091B60083FDFCCF80912C
:1005F000B200681709F46F5F209122023091230244
:100600004091240250912502DA01C9010196A11DF1
:10061000B11D860F911DA11DB11D82179307A4075F
:10062000B50710F4622F60958091B60083FDFCCF72
:100630006093B300DFBE772319F086E00E94B90112
:100640001F910F91FF90EF90DF900895AFB7F8944E
:10065000BB27E1E0E093350260931D0270931E0218
:1006600080931F02909320022093F9023093FA02A4
:100670004093FB025093FC02AFBF0E949A02089580
:100680008091E4028A3021F480913002843021F09C
:1006900081E080930B02089582E00E94B9011092DC
:1006A0000B0208952FB7F89433278093C600E0EC2F
:1006B000F0E08081806480832FBF0895FC01611584
:1006C000710519F481E090E00895809138029091CD
:1006D0003902892B19F085E090E008957093EF02BC
:1006E0006093EE02F0933902E093380210923202E6
:1006F0001092310281E0809333028091C0008064C7
:100700008093C0008091C10080648093C10080818B
:1007100021E030E030933202209331020E945203F4
:1007200080E090E008958FB7F894992720911C02FB
:100730002E7F20931C022EE720932E028FBF61E0B4
:1007400070E08EE292E00E945E0399270895ECEC3F
:10075000F0E06927660FF11DE60FF11DC895982F8F
:10076000802D3196C89590250895982F8091170275
:10077000882389F5992379F531E030931702809128
:1007800000028093180220910C02822F81708093C6
:100790002102809105029091060290931A028093A3
:1007A000190280910D0280931B0232273170267E40
:1007B000E32FFF27EE0FFF1FEF5FFD4F8081918139
:1007C0009093060280930502232B20930C0285E070
:1007D0000E94B901089580910C0280FF02C08B7FB6
:1007E00001C08D7F80930C0208950F931F93082FF3
:1007F000162F809130028130D9F0813038F082306C
:1008000009F44AC0833009F028C159C0002309F413
:1008100058C11092E8021092E7021092E60210927C
:10082000F00210923402109278021092770239C1CD
:10083000002309F046C180917702909178020E94CE
:10084000A703909378028093770282E0809330022E
:100850001093F002143409F000C125C186958695E5
:1008600003C080910C028695817009F0F6C08091DA
:100870000C02992311F0846001C0826080930C0205
:1008800080910C02877E886080930C0210920D028A
:100890008FEF8093000215C1002309F0DEC0609342
:1008A000340280917702909178020E94A70390937E
:1008B00078028093770283E08093300202C18091B6
:1008C000E6028F3F09F4C9C0002309F461C08230F9
:1008D00008F4C3C0E091E702EE2309F4EBC04E2F09
:1008E0004150E42FFF27E951FD4F82819927382F8E
:1008F0002227442311F4E2E002C0E42FE150FF2755
:10090000E951FD4F82819927282B392B809177025D
:10091000909178022817390709F09FC080E00E9463
:10092000B5033091340280916D0220916E02982FB0
:100930009F5F963008F090E0921771F0E82FFF2744
:10094000E359FD4F32838F5F80936D02863010F044
:1009500010926D020E94E0011092E8021092E702EC
:1009600094E0909330021092E6021092F0021092FE
:100970003402109278021092770280911C028D7FCF
:1009800080931C0280910B02882309F49AC084C0D2
:10099000823008F44EC0E091E802FF27E951FD4F94
:1009A0008281482F5527342F20910C02822F869563
:1009B00086958695837099278130910519F0029765
:1009C000F9F40EC0277E206120930C02442311F419
:1009D00085E001C080E080930D023093000210C0DA
:1009E00080910D028F3260F4E0910502F0910602D1
:1009F000E80FF11D408380910D028F5F80930D02FF
:100A00008091E802E82FFF27E951FD4F62818F5F57
:100A10008093E802833010F01092E80277278091EB
:100A20007702909178020E94A703909378028093B6
:100A300077028091E702E82FFF27E951FD4F1283EB
:100A40008F5F8093E702833010F01092E70280916D
:100A5000E6028F5F8093E60234C01092E8021092A3
:100A6000E70214E0109330021092E6021092F002B6
:100A700010923402109278021092770280911C0238
:100A80008D7F80931C0281E00E94B50380910B0250
:100A9000882329F0109330020E94400312C00023E3
:100AA00081F081E009CF80910C02982F917080FD38
:100AB000D5CED7CE8091EB029927382F222742E05E
:100AC0001CCF1F910F9108951F920F920FB60F9296
:100AD00011242F933F934F935F936F937F938F9343
:100AE0009F93AF93BF93EF93FF938091C00087FFD5
:100AF00042C06091C600E0917902F0917A0230978D
:100B000019F18091FD029091FE02E80FF91F6083B8
:100B100001969093FE028093FD0220910303309191
:100B200004038217930738F110927A021092790227
:100B30008091E3028330F9F08091C1008F77809338
:100B4000C1001092E30217C06E3719F460E081E033
:100B500010C080911C026D3721F4826080931C02CA
:100B60000AC081FF05C08D7F80931C0280E2682748
:100B700080E00E94F503FF91EF91BF91AF919F91AB
:100B80008F917F916F915F914F913F912F910F9036
:100B90000FBE0F901F901895982F8D57823068F4D4
:100BA00080911C02816080931C0280E289278093DF
:100BB000E5028DE780932E0202C090932E0261E041
:100BC00070E08EE292E00E945E0399270895789487
:100BD0001F920F920FB60F921124FF920F931F9343
:100BE0002F933F934F935F936F937F938F939F9335
:100BF000AF93BF93CF93DF93EF93FF932091310295
:100C0000309132028091EE029091EF02281739075D
:100C100080F4E0913802F0913902E20FF31F8081F5
:100C20002F5F3F4F30933202209331020E945203D4
:100C3000D1C0109239021092380210923302809182
:100C4000C1008F7B8093C100FFB6F89480911C0295
:100C500080FF0EC08E7F80931C028091E5028093FE
:100C60002E0261E070E08EE292E00E945E03AFC06F
:100C70008091E402843009F48CC0853040F48230E5
:100C800021F18330B8F5813009F09CC00DC0863069
:100C900009F48DC0863008F483C0873009F48EC013
:100CA000883009F08FC091C0809137020E94CC0536
:100CB000082F83E08093E402609137028091010362
:100CC000909102030E94A70310C08091F8020E9435
:100CD000CC05082F83E08093E4026091F8028091B4
:100CE0000103909102030E94A70390930203809353
:100CF000010366C0E0917B02FF27EE0FFF1FE55C5A
:100D0000FD4F80810E94CC05082F10917B02C12FDE
:100D1000DD27FE01EE0FFF1FE55CFD4F6081809136
:100D20000103909102030E94A70390930203809312
:100D30000103209136022F5F20933602113039F5DE
:100D400080911302E0910E02F0910F02E80FF11D65
:100D5000E0818F5F8093130290911202981730F414
:100D600082E080933C0240E050E002C04E2F5527C5
:100D7000DE01AA0FBB1FFD01E65CFD4F80818230C2
:100D800031F02F3F21F0A55CBD4F4C9319C084E09A
:100D900012C0809101030E94CC05082F85E00BC092
:100DA000809102030E94CC05082F86E004C00E94B7
:100DB0009303082F87E08093E40202C088E003C019
:100DC000002329F089E08093E4020E94E0018F2D46
:100DD00099278FBFFF91EF91DF91CF91BF91AF9195
:100DE0009F918F917F916F915F914F913F912F9143
:100DF0001F910F91FF900F900FBE0F901F901895AD
:100E00001F920F920FB60F9211248F938091C800FA
:100E100087FF02C08091CE008F910F900FBE0F9080
:100E20001F90189578941F920F920FB60F9211246D
:100E30000F900FBE0F901F90189578941F920F92ED
:100E40000FB60F9211240F900FBE0F901F901895A0
:100E500078941F920F920FB60F9211240F900FBE2D
:100E60000F901F90189578941F920F920FB60F92C3
:100E700011240F900FBE0F901F90189578941F9219
:100E80000F920FB60F9211248F939F93809196002B
:100E9000909197009F918F910F900FBE0F901F9090
:100EA000189578941F920F920FB60F9211242F93DA
:100EB0003F938F939F932FB7F894332780917502B8
:100EC00090917602019690937602809375022FBFDF
:100ED0009F918F913F912F910F900FBE0F901F9078
:100EE00018951F920F920FB60F9211248F93809135
:100EF000B0008093B0008091B60081FDFCCF8F914F
:100F00000F900FBE0F901F9018951F920F920FB663
:100F10000F9211242F933F934F935F936F937F937F
:100F20008F939F93AF93BF93EF93FF938091B00004
:100F30008093B0008091B60081FDFCCF8091B3001A
:100F400099270196AA27BB272091220230912302DC
:100F50004091240250912502280F391F4A1F5B1F20
:100F600020932202309323024093240250932502BF
:100F700078940E949A02FF91EF91BF91AF919F9157
:100F80008F917F916F915F914F913F912F910F9032
:100F90000FBE0F901F901895EF92FF920F931F9323
:100FA000CF93DF93833009F442C1843038F4813029
:100FB00009F4F6C0823008F036C10DC0853009F45E
:100FC0005DC1853008F43EC1863009F49BC187308D
:100FD00009F016C2CAC18FB7F8941092FF0220918F
:100FE000E40240E0283009F441E030E0293009F41F
:100FF00031E0442311F4332351F01092E402E091E4
:101000007B02FF27EE0FFF1FE65CFD4F1082992742
:101010008FBF442311F4332331F19FB7F8948091AB
:10102000F8028F5F8093F80280913702833479F45D
:1010300020916E0280916D02821779F0822F8F5F6E
:1010400080936E02863048F010926E0206C0A0E0D7
:10105000442309F4A1E071E002C0A0E070E0892F10
:1010600099278FBF06C0222311F0FF246DC0A0E096
:1010700070E08FB7F894992720910B028FBF22233D
:1010800041F08FB7F89499272AE02093E4028FBFAC
:1010900042C08FB7F894992760913A0240913C0280
:1010A0008FBF8FB7F894282F332750E090916D02AF
:1010B00080916E02981709F451E02FBF552341F536
:1010C000662331F55FB7F89482E080933A028FB7D8
:1010D000F894282F332740E090916D0280916E02A2
:1010E000981709F441E02FBF442311F080E006C0B7
:1010F000E0916E02FF27E359FD4F828180933B020E
:1011000083E48093370210927B02852F99270EC0CB
:101110004150423010F0FF240CC08FB7F89499274B
:1011200025E42093370221E020937B028FBF01E06A
:10113000F02E772349F08FB7F8949927A0931402E3
:101140008FBF84E00E94B9018FB7F894082F112750
:101150008091E4028A3021F40E9440030FBF50C105
:101160000FBFFF2009F44CC12FB7F894332710921A
:101170000203109201031092360281E08093E40290
:101180002FBF0E949303882309F43AC18FB7F894C4
:10119000992729E02093E4028FBF0E94E00130C12B
:1011A0008091C1008F7B8093C1008091C1008F77B7
:1011B0008093C1001092E302109233028091C1002B
:1011C00088608093C1008091C10080618093C100DC
:1011D0008091C10080688093C1008FB7F8949927EF
:1011E0001092E402109230028FBF0E94900160932F
:1011F0007C0270937D0280937E0290937F0288EE42
:1012000093E0A0E0B0E08093800290938102A093ED
:101210008202B0938302809184028E7F82608093E9
:10122000840287E001C083E00E94B901E9C0809197
:10123000C100877F8093C1008091C1008F7E809321
:10124000C100DEC010921102109210028FB7F89404
:1012500099278FBFE0910E02F0910F028091160244
:10126000882309F0CDC08385893809F0C9C0EE53C1
:10127000F24009F0C5C010920802C2C08FB7F894BE
:10128000992720911802A0911902B0911A02309169
:101290001B02409121028FBF2223E1F4932F9C5027
:1012A000ED018B858938B1F49230A1F4FD013D96B2
:1012B0008D8580FF02C0129801C0129A808181FF43
:1012C00002C0119801C0119A808182FF02C010985B
:1012D00001C0109A8FB7F894E42FFF27EE0FFF1F7D
:1012E000EF5FFD4FB183A08320910C02442311F0E6
:1012F0002B7F01C02D7F20930C021092170299279B
:101300008FBF7EC080912F02882361F52091F1026A
:101310003091F2024091F3025091F402EFB7F89449
:10132000FF2760911D0270911E0280911F02909113
:101330002002E090F902F090FA020091FB02109175
:10134000FC026E0D7F1D801F911FEFBF2093F102E5
:101350003093F2024093F3025093F40210922F0262
:101360000E9426030E94900139C00E9490017B01D7
:101370008C018FB7F8949927109235028FBF809116
:10138000840281FF3DC080917C0290917D02A091FA
:101390007E02B0917F02A8019701281B390B4A0BEE
:1013A0005B0BDA01C90120918002309181024091EA
:1013B000820250918302281B390B4A0B5B0B2F3F93
:1013C0008FEF38078FEF48078FE75807C9F01216DD
:1013D0001306140615062CF0C801B7010E94F3018C
:1013E0000FC02093F1023093F2024093F302509326
:1013F000F40281E080932F02C801B7010E94260306
:10140000DF91CF911F910F91FF90EF900895809100
:10141000F5028F3FB1F0282F3327F901EA5DFD4F28
:1014200080818093F5028F3F11F4809300038FEF4A
:1014300080832F3F31F0822F0E94CC0781E090E023
:10144000089580E090E00895FF920F931F93FFB6F8
:10145000F89414BE88E10FB6F8948093600010925F
:1014600060000FBE48E050E06FEF70E086E292E06F
:101470000E94E10B8FEF8093F5028093000381E0DF
:101480008093810080E28093B60083E08093B10076
:1014900080918400909185004AE7209184003091EA
:1014A00085002817390708F44150442311F0C90179
:1014B000F4CF9091B2008091B2008917E1F32091AE
:1014C0008400309185009091B2008091B20089171C
:1014D000E1F38091840090918500821B930B4096EC
:1014E00065E0969587956A95E1F79093F70280936A
:1014F000F6021092B1008091B1008093810080913A
:1015000081008093B6001092B20010928500109274
:1015100084008FEF87BB87B386BB8091B60085714F
:10152000E1F718B88FEF87B90C98149810929500CE
:10153000109294008091710081608093710080917D
:101540009100887F8260809391000A9A099A089A94
:10155000129A119A109A0E94070A8823E1F7809143
:10156000B60080628093B6008091B60081FDFCCF0A
:1015700082E08093B0008091B60080FDFCCF83E0D4
:101580008093B1008091B60083FDFCCF86EE8093FE
:10159000B300809170008260809370000E949A0274
:1015A00012E006E06091F6027091F7028827992711
:1015B0005CE0660F771F881F991F5A95D1F720E0CE
:1015C00031EE40E050E00E94BF0B215030402093AC
:1015D000C400832F99278093C5001093C000009307
:1015E000C2001092C1002093CC008093CD001093D4
:1015F000C8000093CA001092C90084E490E0909360
:10160000ED028093EC0210923A0210923C028AE0C2
:101610008093E40210923602109237021092F80280
:1016200010920203109201031092FF0210927B02AB
:101630001092E8021092E70284E080933002109248
:10164000E6021092F0021092340210927802109288
:10165000770210926E0210926D020E94070A882390
:10166000E1F78F2D99278FBF78948FB7F894282FA3
:101670003327922F8091E4028A3031F0809130023A
:10168000843011F02FBF04C09FBF81E00E94B901D8
:101690008FB7F894482F552757C08091700099272D
:1016A00083709070892B19F4E5E0F0E014C080910C
:1016B000B6008A71E1F78091B3009091B200891B66
:1016C0008C3038F08091B200853F18F4E3E0F0E010
:1016D00002C0E2E0F0E080916E00867009F5809132
:1016E0006F008E72E9F4809171008E72C9F40CB4AF
:1016F00007FC16C08091C100887191F48091C900E7
:10170000887171F48091BC0082FD0AC080917A00DA
:1017100087FF03C081E090E005C085E090E002C053
:1017200080E090E023B78E1708F4E82FFF27E453FA
:10173000FD4FE491207F2160E22BE3BF78948895F0
:10174000F89483B78E7F83BF8091F5028F3F09F4B1
:10175000A4CF282F3327F901EA5DFD4F80818093C4
:10176000F5028F3F11F4809300038FEF80832F3FAA
:1017700009F493CF4FBF822F0E94CC0789CFA1E2FB
:101780001A2EAA1BBB1BFD010DC0AA1FBB1FEE1FFB
:10179000FF1FA217B307E407F50720F0A21BB30B46
:1017A000E40BF50B661F771F881F991F1A9469F7C2
:1017B00060957095809590959B01AC01BD01CF011E
:1017C0000895DC0101C06D9341505040E0F7089549
:0217D000FFCF49
:0817D200FF8502B4028502004C
:00000001FF
