S01700006275696C642F697269732F6D61696E2E7372656343
S11300000C9469000C9488000C9488000C9488006B
S11300100C9488000C9488000C9488000C9488003C
S11300200C9488000C9488000C9488000C9488002C
S11300300C9488000C94DE030C9488000C94E30266
S11300400C949E0B0C94D40B0C949A030C94A5035F
S11300500C94B0030C9488000C9488000C948800D1
S11300600C94F7020C9488000C9488000C9488007B
S11300700C9488000C9488000C9488000C948800DC
S11300800C9488000C9488000C9488000C948800CC
S11300900C9488000C9488000C9488000C948800BC
S11300A00C9488000C9488000C9488000C948800AC
S11300B00C9488000C9488000C9488000C9488009C
S11300C00C9488000C9488000C94880000020E069E
S11300D00C0411241FBECFEFD1E2DEBFCDBF12E06E
S11300E0A0E0B2E0E0EBF9E200E00BBF02C0079051
S11300F00D92AC30B107D9F713E0ACE0B2E001C027
S11301001D92AE3AB107E1F70E9459110C94D7142D
S11301100C9400008FB7F894992708958FBF089521
S1130120282F9FB7F894E82FFF27EB5DFD4F8081C0
S11301308F3F81F4E091A603E21771F40BC0209382
S1130140070304C0FF27EB5DFD4F20832093A60324
S113015020E007C025E005C0809107038F3F91F799
S1130160EECF892F99278FBF822F9927089588234F
S113017019F08CB5806402C08CB58F7B8CBD08955A
S1130180882319F08CB5806802C08CB58F778CBD3C
S113019008950F931F9380E00E94B7000FB7F8945F
S11301A01127229A2398219A209A8CB580618CBDBC
S11301B080E00E94C0008CB5877F8CBD8CB58B7F9E
S11301C08CBD81E00E94B7008DB581608DBD8CB57A
S11301D08C7F8CBD0FBF1F910F9108950F931F93B8
S11301E0CF93DF93182F0FB7F89480910E028823D2
S11301F011F40E94C900802F99278FBF8FB7F894FC
S1130200C82FDD272C2F80910E02882361F481E012
S113021080930E021093750289E00E949000CFBF74
S113022080E090E021C0E12FFF27EC58FD4F808152
S11302308F3F89F4E0910902E11789F40CC010930F
S1130240080204C0FF27EC58FD4F108310930902E5
S113025080E090E002C085E090E02FBF05C080916F
S113026008028F3F79F7EBCFDF91CF911F910F9168
S11302700895FB0121E030E002C0220F331F8A956C
S1130280E2F784A5822B84A708958FB7F894209170
S1130290DC023091DD024091DE025091DF02E091F8
S11302A08400F0918500B09B08C02F5F3F4F4F4FF3
S11302B05F4FE0918400F091850099278FBFC901B9
S11302C0772766279F0144275527622B732B842B9E
S11302D0952B0895FC0182819927982F88272181E5
S11302E03327822B932B25E0969587952A95E1F762
S11302F0817090700895AC01EFB7F8942091840058
S113030030918500C901841B950B039686179707C6
S113031020F0B9016D5F7F4F02C0640F751F611536
S1130320710511F461E070E06150704070938900D0
S11303306093880082E086BB80916F008260809326
S11303406F008E2F99278FBF089580931003882301
S113035011F484E001C081E080936A0284E00E9489
S113036090000895CF93DF93EC010E946A018823E3
S113037039F18A8129819927982F88273327822B5D
S1130380932B87749C7C81549848D1F48F814E813F
S11303902FB7F894332760910202709103022FBFA4
S11303A020E09927982F88275527842B952B86178B
S11303B0970709F021E081E02827822F992702C0BE
S11303C080E090E0DF91CF910895FB0121E030E0DF
S11303D002C0220F331F8A95E2F784A5822399274E
S11303E00895EF92FF920F931F937C018FB7F894B7
S11303F099270091F0021091F1020F5E1E4F1093A5
S1130400F1020093F002015111408FBF86E00E9477
S11304109000C801B7010E9466148A5D9E4F1F9127
S11304200F91FF90EF9008957FB7F8946091B20018
S11304302091200230912102409122025091230206
S1130440B99B11C08091B3009091B200280F311D67
S1130450411D511D2F5F3F4F4F4F5F4F290F311DDE
S1130460411D511D04C0260F311D411D511D872FF3
S113047099278FBFCA01B9010895DF92EF92FF92C5
S11304800F931F938FB7F894282F3327D22E909170
S1130490B3008091B20047B3981711F041FF02C036
S11304A02FBF71C080916C028823E1F10E94140275
S11304B0E0901902F0901A0200911B0210911C02A4
S11304C020910C0330910D0340910E0350910F03C2
S11304D06E197F09800B910B6217730784079507C8
S11304E020F010926C0271E01EC02E0D3F1D401FC3
S11304F0511F8091200290912102A0912202B0917B
S11305002302281B390B4A0B5B0B273E310541059F
S1130510510540F4822F223010F070E005C070E0E5
S113052082E002C070E086EE682F61508091B600D0
S113053083FDFCCF8091B200681709F46F5F2091AE
S11305402002309121024091220250912302DA01CB
S1130550C9010196A11DB11D860F911DA11DB11DDB
S113056082179307A407B50710F4622F6095809152
S1130570B60083FDFCCF6093B300DFBE772319F090
S113058080E00E9490001F910F91FF90EF90DF9008
S11305900895AFB7F894BB27E1E0E0936C02609351
S11305A0190270931A0280931B0290931C022093E9
S11305B00C0330930D0340930E0350930F03AFBF0E
S11305C00E943D0208951F920F920FB60F921124BC
S11305D08F938091B0008093B0008091B60081FD2C
S11305E0FCCF8F910F900FBE0F901F9018951F9204
S11305F00F920FB60F9211240F931F932F933F93D3
S11306004F935F936F937F938F939F93AF93BF9316
S1130610CF93DF93EF93FF932EB5E091E902F0912E
S1130620EA02309739F08091D6029091D702E80F10
S1130630F91F20838091D6029091D702019690935E
S1130640D7028093D60280E00E94C000C091D602F7
S1130650D091D7022091110230911202C217D30710
S113066008F042C000919E0310919F034091E9025B
S11306705091EA02CE010A962817390708F4C901F5
S1130680DA01AC0FBD1FF801EC0FFD1F9C012150D6
S1130690304015C00115110531F080818EBD0DB4B7
S11306A007FEFDCF04C01EBC0DB407FEFDCF8EB502
S11306B04115510509F08C93219611963196C21774
S11306C0D30740F381E00E94C0000115110531F009
S11306D00C0F1D1FF80180818EBD01C01EBCD0937C
S11306E0D702C093D60211C01092EA021092E90216
S11306F010929F0310929E03109212021092110204
S11307001092D7021092D6028EB5FF91EF91DF912D
S1130710CF91BF91AF919F918F917F916F915F9195
S11307204F913F912F911F910F910F900FBE0F90FA
S11307301F90189578941F920F920FB60F92112460
S11307400F900FBE0F901F90189578941F920F92E0
S11307500FB60F9211240F900FBE0F901F90189593
S113076078941F920F920FB60F9211242F933F93F8
S11307708F939F93AF93BF932FB7F89433278091B0
S1130780DC029091DD02A091DE02B091DF020196BD
S1130790A11DB11D8093DC029093DD02A093DE02C3
S11307A0B093DF022FBFBF91AF919F918F913F9183
S11307B02F910F900FBE0F901F9018951F920F92BC
S11307C00FB60F9211242F933F934F935F936F9320
S11307D07F938F939F93AF93BF93EF93FF938091F6
S11307E0B0008093B0008091B60081FDFCCF809171
S11307F0B30099270196AA27BB27209120023091A4
S113080021024091220250912302280F391F4A1FCE
S11308105B1F2093200230932102409322025093C5
S1130820230278940E943D02FF91EF91BF91AF9112
S11308309F918F917F916F915F914F913F912F91F4
S11308400F900FBE0F901F90189521E02093760211
S11308502093EB022091840030918500BC01C901F2
S11308600E947B0108950F931F93982F1FB7F8944C
S113087080910E02823099F580910A02891779F5E8
S11308808091080220E030E08F3F11F421E030E055
S1130890232BF1F49FEF90930A028F3F19F42FEF6B
S11308A030E00DC0282F3327F901EC58FD4F80812B
S11308B0809308028F3F11F4909309029083209350
S11308C0750281E080930E0289E00E94900005C0C9
S11308D08FEF80930A0210920E0201E001C000E043
S11308E0812F99278FBF1FB7F89480910E02882318
S11308F011F40E94B700812F99278FBF90E0013037
S113090009F491E081E09827892F99271F910F918D
S113091008951F93982F1FB7F89480910D02823089
S113092099F580910702891779F58091050220E0F5
S113093030E08F3F11F421E030E0232BF1F49FEFFE
S1130940909307028F3F19F42FEF30E00DC0282F4A
S11309503327F901EA59FD4F8081809305028F3FC7
S113096011F49093060290832093630281E08093B4
S11309700D0282E00E94900005C08FEF8093070271
S113098010920D0221E001C020E0812F99278FBF32
S113099090E0213009F491E081E09827892F99278C
S11309A01F9108958FB7F894282F3327922F8091A1
S11309B00A02882331F480910E02823011F42FBF91
S11309C013C09FBF8FB7F894282F332780910E024E
S11309D0882369F482E080930E0210920A022FBFEA
S11309E00E94C900209A289A81E090E008952FBFC0
S11309F080E00E94EE0080E090E0089580916A0219
S1130A00823031F481E080936A0284E00E94900095
S1130A1008954F925F926F927F928F929F92AF92BE
S1130A20BF92CF92DF92EF92FF920F931F93CF93D7
S1130A30DF932C0180911002882309F083C18091F7
S1130A40A003853009F07EC10E94D204882309F4F2
S1130A5079C18091F802882309F074C1B20182E05F
S1130A600E94E501882311F490E003C0F20196A5E9
S1130A709F708091A602981781F09093A6022898FF
S1130A8085EC8EBD0DB407FEFDCF8EB590689EBD7E
S1130A900DB407FEFDCF8EB5289AE2012196898117
S1130AA0F201218140E09927982F88273327822B50
S1130AB0932B87749C7C8154984809F441E0442327
S1130AC001F1289886E88EBD0DB407FEFDCF8EB5E2
S1130AD01EBC0DB407FEFDCF8EB5289A99278F71E1
S1130AE090702091710240916702240F312D311DC5
S1130AF043E0359527954A95E1F7281739070CF413
S1130B0021C1289882EC8EBD0DB407FEFDCF8EB5B1
S1130B1089E08EBD0DB407FEFDCF8EB5289A0E94E4
S1130B2045017B018C01B20184E00E94E501882328
S1130B3019F4E0E0F0E006C0D2018C918550F20196
S1130B40E80FF11D289881E88EBD0DB407FEFDCF96
S1130B508EB51EBC0DB407FEFDCF8EB5289A8F71DD
S1130B60893079F0289882EC8EBD0DB407FEFDCF54
S1130B708EB586E08EBD0DB407FEFDCF8EB5289AE6
S1130B80E1C08FB7F89499272F9A2091840030916F
S1130B9085008FBF2F98289880E68EBDD2019C9146
S1130BA00DB407FEFDCF8EB59EBD792F7250773000
S1130BB010F4672F01C067E0DE01962F4D910DB44C
S1130BC007FEFDCF8EB54EBD9150C1F76150C60FE3
S1130BD0D11D6F5F21962E193F092E553F4F3901C4
S1130BE0882477FC8094982C6E0C7F1C801E911EA8
S1130BF0309719F4972F961B42C02081E18082819F
S1130C00A3809927AA27BB27BA2FA92F982F882713
S1130C10332744275527522F442733272227FF24DD
S1130C20002711278701FF24EE242E293F29402B7A
S1130C30512BBB24CC24DD242A293B294C295D29B2
S1130C40822B932BA42BB52B86199709A809B909D4
S1130C508383292F3A2F4B2F552722839D01442725
S1130C60552721838B2F9927AA27BB278083C2CF9F
S1130C7028810DB407FEFDCF21968EB52EBD91506F
S1130C80B8F70DB407FEFDCF8EB5289A289882ECEC
S1130C908EBD0DB407FEFDCF8EB586E08EBD0DB4BE
S1130CA007FEFDCF8EB5289A3097D1F12081E180DF
S1130CB08281A3809927AA27BB27BA2FA92F982F0F
S1130CC08827332744275527522F442733272227A1
S1130CD0FF24002711278701FF24EE242E293F2912
S1130CE0402B512BBB24CC24DD242A293B294C291D
S1130CF05D29822B932BA42BB52B860D971DA81D44
S1130D00B91D8383292F3A2F4B2F552722839D0109
S1130D104427552721838B2F9927AA27BB27808314
S1130D20B20181E00E943901F20160A671A682A697
S1130D3093A686E08093A00384E08093100280E071
S1130D4090E002C085E090E0DF91CF911F910F9178
S1130D50FF90EF90DF90CF90BF90AF909F908F90D7
S1130D607F906F905F904F900895AF92BF92CF9213
S1130D70DF92EF92FF920F931F93CF93DF938091B3
S1130D80F802882309F402C10E94D204882309F4DA
S1130D90FDC08FB7F8949927C0917202D091730265
S1130DA08FBF1092F80228988FE88EBD0DB407FE0D
S1130DB0FDCF8EB51EBC0DB407FEFDCF8EB5289AAF
S1130DC0982F80911002833011F0873031F485E040
S1130DD08093A00388E080931002A92EBB24A2FE76
S1130DE063C080911002863019F41092100203C07F
S1130DF0882309F059C0943009F045C0289886E842
S1130E008EBD0DB407FEFDCF8EB51EBC0DB407FE1E
S1130E10FDCFFEB4289A2FE1F22280916702982F29
S1130E2096959695EF2DE91B8E0F8093670200919E
S1130E301D0210911E02F80184A58B7F84A7B801BE
S1130E4083E00E943901F801F6A60E9445017B0166
S1130E508C01C0901D02D0901E02B60181E00E9458
S1130E603901CE19DF092797CE01AA2797FDA0954E
S1130E70BA2F8E0D9F1DA01FB11FF60180A791A749
S1130E80A2A7B3A70EC0E0911D02F0911E0284A593
S1130E90877F84A7E0911D02F0911E0284A58D7FB7
S1130EA084A785E080931002A3FE70C08091100295
S1130EB0843009F04EC085E08093A00310921002A4
S1130EC080911F02833019F410921F025FC0C091F9
S1130ED0A703D091A803CE010E946A01882389F157
S1130EE08A8129819927982F88273327822B932B4E
S1130EF087749C7C8154984821F58F812E81992791
S1130F00982F88273327822B932B8F5F9F4FC9F00D
S1130F1090E08091EB02882309F491E0992389F011
S1130F2012E01093760281E08093EB0280918400BA
S1130F309091850069E973E00E947B0110931F0280
S1130F4025C010921F0210926B0280E00E94A5013E
S1130F501DC08530D9F420917102289886E88EBD91
S1130F600DB407FEFDCF8EB51EBC0DB407FEFDCF3C
S1130F708EB5289A8F71922F96959695891B280F76
S1130F802093710289E08093100208C090911002AE
S1130F90992309F4E5C2993009F012C2289880E235
S1130FA08EBD0DB407FEFDCF8EB51EBC0DB407FE7D
S1130FB0FDCF8EB5482F5527433008F496C3842FB0
S1130FC099278A970CF091C31EBCE0911D02F09101
S1130FD01E024083542F5250573010F4452F01C045
S1130FE047E0DF011196242FFD0160E070E00DB4AD
S1130FF007FEFDCF8EB51EBC992781936827062E68
S11310006295607F6025072E762F62956F700626A5
S1131010669576276727660F660F660F6025215051
S113102031F74150A40FB11D4F5F1196E0911D029D
S1131030F0911E02818190E08770823009F491E082
S1131040992349F020E030E080911F02823081F43E
S113105021E030E00DC08FB7F894282F332790E0BB
S11310608091F202833008F491E02FBF292F3327B7
S1131070232B09F45CC0952F941B18C00DB407FEF4
S1131080FDCF8EB51EBC8C938D916827062E62957C
S1131090607F6025072E762F62956F700626669511
S11310A076276727660F660F660F6025915030F725
S11310B00DB407FEFDCF8EB51EBC9B012827022E62
S11310C02295207F2025032E322F22952F70022671
S11310D0269532272327220F220F220F20250DB415
S11310E007FEFDCF8EB51EBC2827022E2295207F39
S11310F02025032E322F22952F7002262695322783
S11311002327220F220F220F20250DB407FEFDCF27
S11311108EB5E0911D02F0911E0285A7289A15E074
S11311201093A00310921002232B31F015C20DB4BA
S113113007FEFDCF8EB5D9C2E0901D02F0901E02CD
S113114067010894C11CD11CF701818190E0282F0C
S11311503327277030702230310509F491E08091F3
S11311601F02992321F1823009F025C1F7019381EF
S1131170E091A703F091A8038381981709F01BC19C
S11311802230310509F017C180916F008D7F809363
S11311906F001092EB02BF0180E00E9439011092AF
S11311A01F0210926B0280E00E94A50104C18823F3
S11311B0C9F4C7010E94B2018823A1F01093A702C9
S11311C082E08093A8021092A902F70183818093A0
S11311D0AA0287EA92E00E940905882319F483E0B1
S11311E080931F020091840010918500C7010E9422
S11311F0B201882311F0045E1C4F1093D9020093AE
S1131200D80280918400909185009801281B390BA5
S113121012161306A4F480916B02882369F490E0FB
S11312208091EB02882309F491E0992341F0C901EC
S11312300E94250480E801C0806880936B02F60157
S1131240808527819927582F44273327422B532BF6
S113125080912402282F3327F901EE0FFF1FE75056
S1131260FD4F808191817091EC028417950769F498
S1131270F901EF55FC4F8081871709F467C0872F68
S11312808F5F8093EC0280831DC000E010E080E05B
S113129090E0C9EFD2E0E1EAF3E0DF01682F9C01BE
S11312A0888199818417950779F420932402909179
S11312B0EC028C91891709F449C0892F8F5F8093C0
S11312C0EC028C9300E829C08081972F981B0917A2
S11312D010F4092F122F6F5FC901019611962296FF
S11312E0319685309105D1F66530B9F41093240216
S11312F0A12FBB27FD01EE0FFF1FE750FD4F5183C8
S113130040838091EC028F5F8093EC02FD01EF55E6
S1131310FC4F8083A755BC4F1C929091EC02892FFF
S11313208F778F3779F40F3768F0E1EAF3E0292FEC
S1131330207880818F6789132083319683E0E63A91
S1131340F807B9F780912402282F3327F6019281F8
S1131350A22FBB27FD01E755FC4F808180FF07C00A
S1131360FD01ED50FD4F8081981729F102C0816085
S11313708083AD50BD4F9C93DFB6F8948091F20208
S11313808330B0F4E0910A03E80FE33008F0E3504F
S1131390FF27EE0FFF1FED5EFD4F00811181F182EB
S11313A0E0828F5F8093F20285E00E9490007801D2
S11313B08D2D99278FBFF0921E02E0921D02C3C0AB
S11313C0892F8150833008F09CC081508230E0F432
S11313D03091A0033130C1F420E08091EB028823E6
S11313E009F421E0222381F02F9883E08093760290
S11313F03093EB0280918400909185006BE273E05E
S11314000E947B0182E068C0933009F042C0809161
S1131410A003833009F097C00E94D2048823C9F145
S113142028988FE88EBD0DB407FEFDCF8EB51EBC87
S11314300DB407FEFDCF8EB5289A8091810080649B
S11314408093810080E286BB80916F0080628093EC
S11314506F0090916202289888EC8EBD0DB407FE4F
S1131460FDCF8EB590669EBD0DB407FEFDCF8EB543
S1131470289A289882EC8EBD0DB407FEFDCF8EB558
S113148086E08EBD0DB407FEFDCF8EB5289A84E0AC
S113149023C0809110028150823000F58091A00316
S11314A08530E1F40E94D2048823C1F0289882ECAC
S11314B08EBD0DB407FEFDCF8EB583E08EBD0DB499
S11314C007FEFDCF8EB5289A80916F008F7D8093A3
S11314D06F001092F80283E08093A00390911002B1
S11314E0913041F48091A0038330B1F52F9A909309
S11314F0A00325C0923039F58091A003833061F5B3
S11315001EC0973001F50E94D2048823E1F0909127
S11315106202289888EC8EBD0DB407FEFDCF8EB50F
S113152090669EBD0DB407FEFDCF8EB5289A8091BE
S1131530A003853021F484E08093A00304C088E0F4
S11315408093100204C080911002883029F4109214
S1131550100283E00E94900080911002882309F514
S11315608091A0038530D1F48091F8028823B1F4EE
S113157080911F02882391F480916B02882371F477
S113158090E08091EB02882309F491E0992331F0F3
S11315900E94FE0480911002882319F487E00E94BF
S11315A090008091EB02823009F092C01092EB021D
S11315B0F0907602F2E0FF1609F466C023E0F2161A
S11315C009F46AC081E0F81609F082C02091D802BB
S11315D03091D902809184009091850040916B02F2
S11315E0403829F410926B020E94FE0471C08901F4
S11315F0081B190B47FF03C010161106ECF0C0912D
S11316006802D091690280911F028823A9F4CE0157
S11316100E9409059927882351F48CA58E7F8CA7F5
S1131620F0921F02D093A803C093A70329C099275F
S1131630F82E882329F102C065E0F62E20916B0272
S1131640822F99278F77019759F42078226020936D
S11316506B0280E198E00E94F1010E94250438C0E9
S113166027FF0AC0101611063CF480E880936B0231
S1131670C8010E94250402C010926B028F2D09C07C
S113168083E080936B0224C010921F0210926B02BD
S113169080E00E94A5011CC08091A003823019F44F
S11316A0F092A00313C080911002863079F4109256
S11316B01002289881E88EBD0DB407FEFDCF8EB5CB
S11316C01EBC0DB407FEFDCF8EB5289A0E948A0B6E
S11316D08FB7F894282F332780916102813061F00D
S11316E081E0809361022FBF4ACB289A85E08093E2
S11316F0A0031092100230CF109261022FBFDF912D
S1131700CF911F910F91FF90EF90DF90CF90BF90FA
S1131710AF9008958FB7F894282F332780916102F2
S1131720882329F08068809361022FBF089581E0A7
S1131730809361022FBF0E94B506089578941F928A
S11317400F920FB60F9211242F933F934F935F93F1
S11317506F937F938F939F93AF93BF93EF93FF9375
S1131760E6E8F0E080819181208131818FB7F8949F
S11317709927309373022093720221E02093F80298
S11317808FBF0E948A0BFF91EF91BF91AF919F9100
S11317908F917F916F915F914F913F912F910F9016
S11317A00FBE0F901F90189578941F920F920FB64A
S11317B00F9211242F933F934F935F936F937F93D3
S11317C08F939F93AF93BF93EF93FF9380916F0099
S11317D08D7F80936F0078949FB7F8948091EB028B
S11317E0813019F482E08093EB02892F99278FBF0F
S11317F00E948A0BFF91EF91BF91AF919F918F91BE
S11318007F916F915F914F913F912F910F900FBEF8
S11318100F901F9018958FB7F894282F3327809135
S11318206102815080936102803811F02FBF0895C6
S113183081E0809361022FBF0E94B50608951F9333
S11318408FB7F8949927209161022F5F209361024A
S11318508FBF80916A02882311F015E023C0809124
S113186010028823E1F48091A003813049F490E0D0
S11318708091EB02882309F491E0992381F005C05B
S1131880853019F489E090E00CC083E08093100265
S11318900E948A0B85E080936A0210E003C085E011
S11318A090E0182F0E940B0C812F99271F91089507
S11318B01F93FC018FE3828780910F028F5F8093D7
S11318C00F0283832FB7F8943327809161028F5FCF
S11318D0809361022FBF80916A02882311F015E082
S11318E00DC0F093EF02E093EE0281E080936A0270
S11318F01092ED0284E00E94900010E00E940B0C14
S1131900812F99271F9108951F93CF93DF93182F49
S1131910FA01A22F2D3118F086E090E08EC0EA0182
S1131920219689812181B0E09927582F44273327B4
S1131930422B532BCA0187749C7C8154984809F428
S1131940B1E0BB2349F4CA01807390708164986844
S11319508183892F99278983A35FA0832FB7F89464
S1131960332780910202909103022FBF8087892F31
S1131970992781872FB7F8943327809104022FBFCA
S113198099278483158213876683872F99278783F2
S11319908FB7F894282F332780910D02882371F490
S11319A082E080930D02109207022FBFCF010E94A4
S11319B0580C9927182F882399F00FC02FBFF09344
S11319C06502E09364028FB7F894C82FDD272C2FAB
S11319D080910D02882399F406C080E00E94890456
S11319E0812F99272AC081E080930D02109263020F
S11319F082E00E949000CFBF80E090E01EC0809102
S1131A0066028F3F89F4E0910602EE2369F010C06C
S1131A101092050204C0FF27EA59FD4F108210926C
S1131A20060280E090E002C085E090E02FBF05C090
S1131A30809105028F3F79F7EBCFDF91CF911F9112
S1131A400895EF92FF920F931F93E091E802E1FF54
S1131A509DC02091E0023091E1024091E202509158
S1131A60E302E090E402F090E5020091E6021091B6
S1131A70E702621B730B840B950B6E157F058007C1
S1131A80910708F483C0E0FF04C0ED7FE093E8020F
S1131A900CC02E0D3F1D401F511F2093E0023093B8
S1131AA0E1024093E2025093E30280910C02882306
S1131AB009F06CC0809100029091010280933E0273
S1131AC0292F332720933D028093400220933F0225
S1131AD011E010934202109241024FEF40934402EE
S1131AE0409343022FB7F894332782B192E08927B9
S1131AF082B92FBF809143029927982F882720917C
S1131B0044023327822B932B8F5F9F4F39F42FB7D7
S1131B10F894332782B1812782B92FBF40933702CB
S1131B204093380286E080933C028091DA029091DF
S1131B30DB02892B59F541E352E05093DB024093D9
S1131B40DA0285E18093310280910B02882399F0B7
S1131B5010920B0228E06FEF7FEF86E00E94840C66
S1131B609927882341F010930B021092DB02109204
S1131B70DA02882359F481E080930C022FB7F89499
S1131B80332782B194E0892782B92FBF81E00E9474
S1131B9090001F910F91FF90EF9008951F93CF93A2
S1131BA0DF93182FEB01E82FFF27EE0FFF1FE652FC
S1131BB0FD4F1182108210920B02E091DA02F09133
S1131BC0DB02309721F080910B0380FF0FC081E08E
S1131BD080930B0203C08BE00E9490001123C1F498
S1131BE0C153D240A9F410920C0212C020812D508E
S1131BF0332767817727762F662786819927682B75
S1131C00792BAF0183850E94840C882339F3E3CFB9
S1131C10DF91CF911F9108952F923F924F925F923F
S1131C206F927F928F929F92AF92BF92CF92DF92E8
S1131C30EF92FF920F931F93CF93DF93CDB7DEB74D
S1131C4029970FB6F894DEBF0FBECDBFD82E25E07E
S1131C50821709F476C12817B0F032E0831709F42B
S1131C60B3C0381738F0882381F141E0841709F0B4
S1131C70EAC25EC053E0851709F4D6C064E0861753
S1131C8009F0E1C200C188E0D81609F404C28D1538
S1131C9048F0E6E0DE1609F4A2C1F7E0DF1609F029
S1131CA0D2C296C22AE0D21641F0D21608F408C273
S1131CB03BE0D31609F0C7C2B5C280910B03882359
S1131CC009F4C1C240E051E08CC2809160028823D3
S1131CD061F5209103033091040340910503509171
S1131CE00603EFB7F894FF276091190270911A0266
S1131CF080911B0290911C02E0900C03F0900D0364
S1131D0000910E0310910F036E0D7F1D801F911F14
S1131D10EFBF2093030330930403409305035093D0
S1131D200603109260020E94C9020E9414023AC083
S1131D300E9414027B018C018FB7F89499271092AA
S1131D406C028FBF8091E80281FF7DC28091E00226
S1131D509091E102A091E202B091E302A8019701FF
S1131D60281B390B4A0B5B0BDA01C9012091E402F1
S1131D703091E5024091E6025091E702281B390BAD
S1131D804A0B5B0B2F3F6FEF36076FEF46076FE78A
S1131D90560709F458C212161306140615062CF039
S1131DA0C801B7010E94210D4EC220930303309352
S1131DB004034093050350930603D0926002C801C4
S1131DC0B7010E94C9023FC28FB7F89499272091A6
S1131DD0630220930702D0920D028FBF8091070205
S1131DE0882309F030C280916402909165020E94B8
S1131DF0580C082F1127002309F425C280E00E9403
S1131E008904209164023091650280910B02882339
S1131E1009F019C26091DA027091DB02621773074C
S1131E2009F011C2402F09C280916A0210926A021D
S1131E30853001F50E9414026093E0027093E10280
S1131E408093E2029093E3028AEF90E0A0E0B0E096
S1131E508093E4029093E502A093E602B093E70234
S1131E608091E8028E7F82608093E80281E00E9484
S1131E709000E9C1863009F4E6C1873009F4E3C172
S1131E8080936A02E0C12FB7F894332780916102EE
S1131E908F5F809361022FBF40916A02413081F5C8
S1131EA08091ED028F5F8093ED02863048F520919A
S1131EB0EE023091EF0280916B028823C1F490E02E
S1131EC08091EB02882309F491E0992381F0309307
S1131ED069022093680240936B028BED91E10E94AA
S1131EE0F1010E9425041092100383E004C085E0F0
S1131EF08093100382E080936A020E940B0CA3C1BA
S1131F0010926A020E940B0C10911003E090EE02F2
S1131F10F090EF02F70182858F3309F094C180E0DD
S1131F200E94890480910B02882309F08CC160917E
S1131F30DA027091DB026E157F0509F084C1412F2E
S1131F407CC18FB7F894282F33278091F20288231D
S1131F5009F445C1E0910A03FF27EE0FFF1FED5E70
S1131F60FD4FA081B1812FBFFD0182858F33B9F070
S1131F70FD01878126819927582F44273327422B37
S1131F80532B8FB7F89499272091020230910302C2
S1131F908FBF4217530719F04F5F5F4F21F48FB77C
S1131FA0F89499278FBF9FB7F89480910A03E82F7C
S1131FB0FF27EE0FFF1FED5EFD4FB183A0838F5F00
S1131FC080930A03833010F010920A038091F20286
S1131FD081508093F202892F99278FBFB2CF2FB7F8
S1131FE02983F89420906D0230906E0240906F0225
S1131FF0509070026624772488242EE4A22E93E85D
S1132000B92ECC24DD24EE24FF2400E010E0222DA0
S1132010332D442D552D662D772D882D90E00E946B
S1132020E5122A833B834C835D836E837F83888799
S11320309987822E932EA42EB52E2401350100E219
S11320400E94E313A22EB32EC42ED52EA301920117
S113205056954795379527952A0D3B1D4C1D5D1DBB
S113206057FF05C05F772F5F3F4F4F4F5F4F209360
S11320706D0230936E0240936F0250937002698137
S1132080862F99278FBF8FB7F89499273093F10241
S11320902093F00213C08FB7F89499271092EA02A4
S11320A01092E90210929F0310929E031092120262
S11320B0109211021092D7021092D6028FBFC3C0A1
S11320C02FB7F89433278091750280930A0282E037
S11320D080930E022FBF80910A02882309F0B3C0B7
S11320E0209A289A8091A003882309F075C08EEF66
S11320F091E0019701960197E1F716982F9886E0F1
S113210090E0019701960197E1F7169A289883ECDD
S11321108EBD0DB407FEFDCF8EB51EBC0DB407FEFB
S1132120FDCF8EB5289A289882EC8EBD0DB407FE9B
S1132130FDCF8EB588E08EBD0DB407FEFDCF8EB504
S1132140289A8EEF91E0019701960197E1F728987C
S11321508EEC8EBD0DB407FEFDCF8EB58DE48EBD25
S11321600DB407FEFDCF8EB5289A289889EC8EBD54
S11321700DB407FEFDCF8EB587EC8EBD0DB407FE02
S1132180FDCF8EB5289A289885EC8EBD0DB407FE38
S1132190FDCF8EB580E88EBD0DB407FEFDCF8EB5A4
S11321A0289A1092A6028AE180936202289888EC09
S11321B08EBD0DB407FEFDCF8EB58AE78EBD0DB47E
S11321C007FEFDCF8EB5289A2F9A81E08093A00355
S11321D080E00E94330437C00E948A0B34C02FBFB2
S11321E032C090910B03852F8923B9F0E42FFF2788
S11321F0EE0FFF1FE652FD4F2081318111821082C4
S1132200852F8095982390930B03442331F4215315
S11322103240B1F410920C0213C04F5F483098F46E
S1132220550FDFCF80910B02E82FFF27EE0FFF1F22
S1132230E652FD4F6081718141E00E94CE0D03C0E2
S1132240550F41E0CECF29960FB6F894DEBF0FBEEE
S1132250CDBFDF91CF911F910F91FF90EF90DF9051
S1132260CF90BF90AF909F908F907F906F905F9032
S11322704F903F902F900895809107038F3FB1F0C6
S1132280282F3327F901EB5DFD4F808180930703ED
S11322908F3F11F48093A6038FEF80832F3F31F09B
S11322A0822F0E940C0E81E090E0089580E090E07F
S11322B008951F931FB7F89414BE88E10FB6F894DD
S11322C080936000109260000FBE4CE050E06FEF0E
S11322D070E085E292E00E94D0148FEF80930703B0
S11322E08093A60356985E9854985C9880916F00EA
S11322F08F7D80936F00209A289A279A2F980E9AA0
S1132300169A87E792E090931E0280931D02109222
S113231071028AE58093670281E08093810080E204
S11323208093B60083E08093B10080918400909103
S113233085004AE7209184003091850028173907E9
S113234008F44150442311F0C901F4CF9091B20034
S11323508091B2008917E1F32091840030918500C7
S11323609091B2008091B2008917E1F380918400CA
S113237090918500821B930B409665E09695879516
S11323806A95E1F790930903809308031092B100D2
S11323908091B10080938100809181008093B60088
S11323A01092B20010928500109284008FEF87BBC8
S11323B087B386BB8091B6008571E1F70A9A099AC2
S11323C0089A129A119A109A18B88FEF87B90C9834
S11323D01498109285001092840080916F0081609F
S11323E080936F0080918100887F82608093810058
S11323F00E943C118823E1F78FEF8093740280E000
S11324000E94EE0020910002309101022F5F3F4FA5
S1132410C901AA27BB2780936D0290936E02A093F3
S11324206F02B093700281E193E090931402809361
S113243013028F9690931602809315028FE693E011
S113244090931802809317028FEF9FEF9093FA02F4
S11324508093F9029093FC028093FB029093FE0216
S11324608093FD02909300038093FF0290930203F4
S113247080930103809100028295807F80930F02F4
S11324808FEF809366028091B60080628093B600DD
S11324908091B60081FDFCCF82E08093B0008091F2
S11324A0B60080FDFCCF83E08093B1008091B6003C
S11324B083FDFCCF86EE8093B30080917000826030
S11324C0809370000E943D020E943C118823E1F732
S11324D0812F99278FBF78940E941F0C8FB7F8948F
S11324E0482F552757C080917000992783709070AA
S11324F0892B19F4E5E0F0E014C08091B6008A71EC
S1132500E1F78091B3009091B200891B8C3038F0D0
S11325108091B200853F18F4E3E0F0E002C0E2E00D
S1132520F0E080916E00867009F580916F008E72E4
S1132530E9F4809171008E72C9F40CB407FC16C0E2
S11325408091C100887191F48091C900887171F4FF
S11325508091BC0082FD0AC080917A0087FF03C08D
S113256081E090E005C085E090E002C080E090E06A
S113257023B78E1708F4E82FFF27E453FF4FE491A5
S1132580207F2160E22BE3BF78948895F89483B789
S11325908E7F83BF809107038F3F09F4A4CF282F38
S11325A03327F901EB5DFD4F8081809307038F3F53
S11325B011F48093A6038FEF80832F3F09F493CF08
S11325C04FBF822F0E940C0E89CFACE2B0E0EBEE3D
S11325D0F2E10C949914222E332E442E552E662E9D
S11325E0772E882E992EFE013196A8E01192AA9595
S11325F0E9F729823A824B825C826D827E828F82E5
S11326009886FE013996B8E01192BA95E9F7A98641
S1132610BA86CB86DC86ED86FE860F87188B898189
S11326209A81AB81BC8189A79AA7ABA7BCA77C017F
S11326308D018FEF9FEFA0E0B0E0E822F9220A239A
S11326401B2389A59AA5ABA5BCA51D01442455242B
S113265089859A85AB85BC858DA39EA3AFA3B8A7B6
S11326605C016D018FEF9FEFA0E0B0E0A822B922DA
S1132670CA22DB228DA19EA1AFA1B8A53D01882469
S11326809924C801B701A60195010E947A1469A38F
S11326907AA38BA39CA3C801B701A40193010E9450
S11326A07A147B018C01C201B101A60195010E943B
S11326B07A145B016C01C201B101A40193010E946F
S11326C07A143B014C01EA0CFB1C0C1D1D1D89A155
S11326D09AA1ABA1BCA19D01442755272E0D3F1DF6
S11326E0401F511F2A153B054C055D0540F480E051
S11326F090E0A1E0B0E0680E791E8A1E9B1ECA011C
S1132700AA27BB27860D971DA81DB91D8D8F9E8FE7
S1132710AF8FB8A3A9013327222789A19AA1ABA11E
S1132720BCA1A070B070280F391F4A1F5B1F298FEE
S11327303A8F4B8F5C8FA98CBA8CCB8CDC8CED8C54
S1132740FE8C0F8D18A1FE01719698E011929A9556
S1132750E9F7ED8AFE8A0F8B188F2D813E814F8118
S113276058856DA17EA18FA198A50E947A143B0182
S11327704C012D853E854F85588969A57AA58BA581
S11327809CA50E947A142D893E894F89588D260F65
S1132790371F481F591F260D371D481D591D2D8BE6
S11327A03E8B4F8B588F6D887E888F88988C2A2D0E
S11327B03B2D4C2D5D2D662D772D882D992DE2E135
S11327C0AC960C94B514A0E1B0E0E9EEF3E10C94FE
S11327D09914222E332E442E552E662E772E882EB3
S11327E0992E002309F466C088E0FE013196119207
S11327F08A95E9F729833A834B835C836D837E83CF
S11328008F829887E0E2E01B1E16CCF52D813E8175
S11328104F815885602F772767FD7095DA01C901CC
S1132820062E04C0B695A795979587950A94D2F776
S11328308D879E87AF87B88B04C0220F331F441F38
S1132840551FEA95D2F789819A81AB81BC8104C076
S1132850B695A795979587956A95D2F7282B392B26
S11328604A2B5B2B29873A874B875C8729843A84D8
S11328704B845C846D847E848F8498881BC01D8601
S11328801E861F86188A2E2F332727FD30953095F4
S113289021953F4F8D819E81AF81B88504C0B69547
S11328A0A795979587952A95D2F789879A87AB87B5
S11328B0BC87DCCF222D332D442D552D662D772D4D
S11328C0882D992DE2E160960C94B514AA1BBB1BCC
S11328D051E107C0AA1FBB1FA617B70710F0A61B1C
S11328E0B70B881F991F5A95A9F780959095BC013D
S11328F0CD010895629FD001739FF001829FE00D86
S1132900F11D649FE00DF11D929FF00D839FF00D6A
S1132910749FF00D659FF00D9927729FB00DE11D16
S1132920F91F639FB00DE11DF91FBD01CF011124F3
S113293008952F923F924F925F926F927F928F925F
S11329409F92AF92BF92CF92DF92EF92FF920F933A
S11329501F93CF93DF93CDB7DEB7CA1BDB0B0FB644
S1132960F894DEBF0FBECDBF09942A883988488801
S11329705F846E847D848C849B84AA84B984C88497
S1132980DF80EE80FD800C811B81AA81B981CE0F8E
S1132990D11D0FB6F894DEBF0FBECDBFED01089573
S11329A0DC0101C06D9341505040E0F70895FFCF22
S10F29B00100010022FFFFFFFFFFFF01F8
S9030000FC
