S01700006275696C642F697269732F6D61696E2E7372656343
S11300000C9469000C9488000C9488000C9488006B
S11300100C9488000C9488000C9488000C9488003C
S11300200C9488000C9488000C9488000C9488002C
S11300300C9488000C9453040C9488000C9458037A
S11300400C94B80B0C94EE0B0C940F040C941A043F
S11300500C9425040C9488000C9488000C9488005B
S11300600C946C030C9488000C9488000C94880005
S11300700C9488000C9488000C9488000C948800DC
S11300800C9488000C9488000C9488000C948800CC
S11300900C9488000C9488000C9488000C948800BC
S11300A00C9488000C9488000C9488000C948800AC
S11300B00C9488000C9488000C9488000C9488009C
S11300C00C9488000C9488000C94880000020E069E
S11300D00C0411241FBECFEFD1E2DEBFCDBF12E06E
S11300E0A0E0B2E0EEEBF4E200E00BBF02C0079048
S11300F00D92AC30B107D9F713E0ACE0B2E001C027
S11301001D92A037B107E1F70E94B80E0C945E125D
S11301100C9400008FB7F894992708958FBF089521
S1130120282F9FB7F894E82FFF27EC5DFD4F8081BF
S11301308F3F81F4E0916803E21771F40BC02093C0
S1130140CA0204C0FF27EC5DFD4F2083209368039F
S113015020E007C025E005C08091CA028F3F91F7D7
S1130160EECF892F99278FBF822F9927089588234F
S113017019F08CB5806402C08CB58F7B8CBD08955A
S11301800F931F93982F1FB7F89480910D0282301C
S113019099F580910A02891779F58091080220E087
S11301A030E08F3F11F421E030E0232BF1F49FEF96
S11301B090930A028F3F19F42FEF30E00DC0282FDF
S11301C03327F901EE5BFD4F8081809308028F3F56
S11301D011F49093090290832093430281E0809369
S11301E00D0289E00E94900005C08FEF80930A02FF
S11301F010920D0201E001C000E0812F99278FBF0A
S11302001FB7F89480910D02882311F40E94B7005F
S1130210812F99278FBF90E0013009F491E081E0AC
S11302209827892F99271F910F910895882319F0F2
S11302308CB5806802C08CB58F778CBD08950F9300
S11302401F9380E00E94B7000FB7F8941127229AF9
S11302502398219A209A8CB580618CBD80E00E94FD
S113026016018CB5877F8CBD8CB58B7F8CBD81E0EE
S11302700E94B7008DB581608DBD8CB58C7F8CBD1F
S11302800FBF1F910F910895FB0121E030E002C0E0
S1130290220F331F8A95E2F784A5822B84A7089541
S11302A08FB7F8942091A8023091A9024091AA0234
S11302B05091AB02E0918400F0918500B09B08C09E
S11302C02F5F3F4F4F4F5F4FE0918400F0918500C7
S11302D099278FBFC901772766279F014427552790
S11302E0622B732B842B952B0895FC018281992713
S11302F0982F882721813327822B932B25E09695ED
S113030087952A95E1F7817090700895FC0140E08B
S113031050E082819927982F882721813327822BC7
S1130320932B87749C7C8154984811F441E050E0ED
S1130330CA010895FC0187819927982F882726816F
S11303403327822B932B0895AC01EFB7F8942091B7
S1130350840030918500C901841B950B0396861790
S1130360970720F0B9016D5F7F4F02C0640F751FBE
S11303706115710511F461E070E061507040709393
S113038089006093880082E086BB80916F00826060
S113039080936F008E2F99278FBF089520E030E05F
S11303A0FC0181818770823011F421E030E0C901C1
S11303B00895CF93DF93EC010E9475018823D1F057
S11303C0CE010E9486018823A9F0CE010E949A01E1
S11303D02FB7F894332740910202509103022FBFA4
S11303E020E08417950709F021E081E02827822F77
S11303F0992702C080E090E0DF91CF910895FB013E
S113040021E030E002C0220F331F8A95E2F784A571
S113041082239927089521E0209344022093AE0279
S11304202091840030918500BC01C9010E94A4017F
S11304300895EF92FF920F931F937C018FB7F89466
S113044099270091B3021091B4020F5E1E4F1093CE
S1130450B4020093B302015111408FBF84E00E94A3
S11304609000C801B7010E94ED118A5D9E4F1F9153
S11304700F91FF90EF9008957FB7F8946091B200C8
S113048020911F02309120024091210250912202BA
S1130490B99B11C08091B3009091B200280F311D17
S11304A0411D511D2F5F3F4F4F4F5F4F290F311D8E
S11304B0411D511D04C0260F311D411D511D872FA3
S11304C099278FBFCA01B901089586E00E94900060
S11304D00895DF92EF92FF920F931F938FB7F894D2
S11304E0282F3327D22E9091B3008091B20047B3C6
S11304F0981711F041FF02C02FBF71C080913A02DA
S11305008823E1F10E943C02E0901802F090190265
S113051000911A0210911B022091CE023091CF0259
S11305204091D0025091D1026E197F09800B910B3A
S1130530621773078407950720F010923A0271E05E
S11305401EC02E0D3F1D401F511F80911F02909110
S11305502002A0912102B0912202281B390B4A0BE0
S11305605B0B273E31054105510540F4822F2230B3
S113057010F070E005C070E082E002C070E086EE2A
S1130580682F61508091B60083FDFCCF8091B2004A
S1130590681709F46F5F20911F0230912002409187
S11305A0210250912202DA01C9010196A11DB11D57
S11305B0860F911DA11DB11D82179307A407B507CE
S11305C010F4622F60958091B60083FDFCCF609398
S11305D0B300DFBE772319F085E00E9490001F91DD
S11305E00F91FF90EF90DF900895AFB7F894BB2779
S11305F0E1E0E0933A026093180270931902809349
S11306001A0290931B022093CE023093CF024093A0
S1130610D0025093D102AFBF0E94690208951F9384
S1130620982F1FB7F89480910C02823099F580912D
S11306300702891779F58091050220E030E08F3FA9
S113064011F421E030E0232BF1F49FEF90930702A3
S11306508F3F19F42FEF30E00DC0282F3327F90115
S1130660EC5CFD4F8081809305028F3F11F49093E1
S1130670060290832093310281E080930C0280E093
S11306800E94900005C08FEF8093070210920C0225
S113069021E001C020E0812F99278FBF90E0213015
S11306A009F491E081E09827892F99271F910895F3
S11306B01F920F920FB60F9211248F938091B00066
S11306C08093B0008091B60081FDFCCF8F910F9094
S11306D00FBE0F901F9018951F920F920FB60F9296
S11306E011240F931F932F933F934F935F936F9313
S11306F07F938F939F93AF93BF93CF93DF93EF93A6
S1130700FF932EB5E091AC02F091AD02309739F031
S11307108091A4029091A502E80FF91F2083809193
S1130720A4029091A50201969093A5028093A4023D
S113073080E00E941601C091A402D091A5022091EC
S1130740100230911102C217D30708F042C0009181
S11307506003109161034091AC025091AD02CE014F
S11307600A962817390708F4C901DA01AC0FBD1F2E
S1130770F801EC0FFD1F9C012150304015C00115FC
S1130780110531F080818EBD0DB407FEFDCF04C08C
S11307901EBC0DB407FEFDCF8EB54115510509F001
S11307A08C93219611963196C217D30740F381E0BA
S11307B00E9416010115110531F00C0F1D1FF801DF
S11307C080818EBD01C01EBCD093A502C093A4023B
S11307D011C01092AD021092AC02109261031092FB
S11307E0600310921102109210021092A50210924E
S11307F0A4028EB5FF91EF91DF91CF91BF91AF919C
S11308009F918F917F916F915F914F913F912F9124
S11308101F910F910F900FBE0F901F901895789411
S11308201F920F920FB60F9211240F900FBE0F90CC
S11308301F90189578941F920F920FB60F9211245F
S11308400F900FBE0F901F90189578941F920F92DF
S11308500FB60F9211242F933F938F939F93AF93CF
S1130860BF932FB7F89433278091A8029091A902DF
S1130870A091AA02B091AB020196A11DB11D809373
S1130880A8029093A902A093AA02B093AB022FBF2F
S1130890BF91AF919F918F913F912F910F900FBE78
S11308A00F901F9018951F920F920FB60F9211245C
S11308B02F933F934F935F936F937F938F939F9364
S11308C0AF93BF93EF93FF938091B0008093B000F8
S11308D08091B60081FDFCCF8091B30099270196E9
S11308E0AA27BB2720911F023091200240912102A8
S11308F050912202280F391F4A1F5B1F20931F02A9
S113090030932002409321025093220278940E9453
S11309106902FF91EF91BF91AF919F918F917F9168
S11309206F915F914F913F912F910F900FBE0F9058
S11309301F9018950F931F93CF93DF93182F0FB722
S1130940F89480910D02882311F40E941F01802FD6
S113095099278FBF8FB7F894C82FDD272C2F80914C
S11309600D02882361F481E080930D021093430209
S113097089E00E949000CFBF80E090E021C0E12F89
S1130980FF27EE5BFD4F80818F3F89F4E0910902E0
S1130990E11789F40CC01093080204C0FF27EE5B32
S11309A0FD4F10831093090280E090E002C085E0BF
S11309B090E02FBF05C0809108028F3F79F7EBCFFD
S11309C0DF91CF911F910F9108958FB7F894282F3D
S11309D03327922F80910A02882331F480910D02EB
S11309E0823011F42FBF13C09FBF8FB7F894282F04
S11309F0332780910D02882369F482E080930D02ED
S1130A0010920A022FBF0E941F01209A289A81E0A7
S1130A1090E008952FBF80E00E949A0480E090E067
S1130A20089580913802823031F481E08093380255
S1130A3082E00E94900008958093D202882311F4EA
S1130A4084E001C081E08093380282E00E9490003B
S1130A5008953F924F925F926F927F928F929F92EE
S1130A60AF92BF92CF92DF92EF92FF920F931F93B8
S1130A70CF93DF932C0180910F02882309F07AC170
S1130A8080916203853009F075C10E94E5048823D2
S1130A9009F470C18091BB02882309F06BC1B201D3
S1130AA082E00E94FF01882311F490E003C0F20168
S1130AB096A59F7080917402981781F090937402A8
S1130AC0289885EC8EBD0DB407FEFDCF8EB59068D9
S1130AD09EBD0DB407FEFDCF8EB5289AC2010E94BB
S1130AE08601882301F1289886E88EBD0DB407FE9F
S1130AF0FDCF8EB51EBC0DB407FEFDCF8EB5289A72
S1130B0099278F71907020913F0240913502240FF4
S1130B10312D311D43E0359527954A95E1F7281786
S1130B2039070CF427C1289882EC8EBD0DB407FE5A
S1130B30FDCF8EB589E08EBD0DB407FEFDCF8EB519
S1130B40289A0E9450017B018C01B20184E00E942A
S1130B50FF01882319F4E0E0F0E006C0D2018C9193
S1130B608550F201E80FF11D289881E88EBD0DB47F
S1130B7007FEFDCF8EB51EBC0DB407FEFDCF8EB5AE
S1130B80289A8F71893079F0289882EC8EBD0DB443
S1130B9007FEFDCF8EB586E08EBD0DB407FEFDCFFA
S1130BA08EB5289AE7C08FB7F89499272F9A209189
S1130BB08400309185008FBF2F98289880E68EBDE1
S1130BC0D2019C910DB407FEFDCF8EB59EBD8EEF74
S1130BD0382E390EB6E0B31510F0632D01C067E06E
S1130BE0A2014F5F5F4FDA01962F7D910DB407FE8E
S1130BF0FDCF8EB57EBD9150C1F76150EA01C60F9D
S1130C00D11D6F5F21962E193F092E553F4F390193
S1130C10882477FC8094982C6E0C7F1C801E911E77
S1130C20309719F4932D961B42C02081E180828174
S1130C30A3809927AA27BB27BA2FA92F982F8827E3
S1130C40332744275527522F442733272227FF24AD
S1130C50002711278701FF24EE242E293F29402B4A
S1130C60512BBB24CC24DD242A293B294C295D2982
S1130C70822B932BA42BB52B86199709A809B909A4
S1130C808383292F3A2F4B2F552722839D014427F5
S1130C90552721838B2F9927AA27BB278083C2CF6F
S1130CA028810DB407FEFDCF21968EB52EBD91503F
S1130CB0B8F70DB407FEFDCF8EB5289A289882ECBC
S1130CC08EBD0DB407FEFDCF8EB586E08EBD0DB48E
S1130CD007FEFDCF8EB5289A3097D1F12081E180AF
S1130CE08281A3809927AA27BB27BA2FA92F982FDF
S1130CF08827332744275527522F44273327222771
S1130D00FF24002711278701FF24EE242E293F29E1
S1130D10402B512BBB24CC24DD242A293B294C29EC
S1130D205D29822B932BA42BB52B860D971DA81D13
S1130D30B91D8383292F3A2F4B2F552722839D01D9
S1130D404427552721838B2F9927AA27BB278083E4
S1130D50B20181E00E944401F20160A671A682A65C
S1130D6093A686E08093620384E080930F0280E080
S1130D7090E002C085E090E0DF91CF911F910F9148
S1130D80FF90EF90DF90CF90BF90AF909F908F90A7
S1130D907F906F905F904F903F900895AF92BF9275
S1130DA0CF92DF92EF92FF920F931F93CF93DF9333
S1130DB08091BB02882309F4F5C00E94E5048823CE
S1130DC009F4F0C08FB7F8949927C0914002D091EC
S1130DD041028FBF1092BB0228988FE88EBD0DB4DC
S1130DE007FEFDCF8EB51EBC0DB407FEFDCF8EB53C
S1130DF0289A982F80910F02833011F0873031F4B4
S1130E0085E08093620388E080930F02A92EBB24BF
S1130E10A2FE63C080910F02863019F410920F0273
S1130E2003C0882309F059C0943009F045C02898BC
S1130E3086E88EBD0DB407FEFDCF8EB51EBC0DB485
S1130E4007FEFDCFFEB4289A2FE1F22280913502ED
S1130E50982F969596953F2D391B830F80933502D5
S1130E6000911C0210911D02F80184A58B7F84A7B8
S1130E70B80183E00E944401F801F6A60E945001E3
S1130E807B018C01C0901C02D0901D02B60181E050
S1130E900E944401CE19DF092797CE01AA2797FDA6
S1130EA0A095BA2F8E0D9F1DA01FB11FF60180A71C
S1130EB091A7A2A7B3A70EC0E0911C02F0911D0256
S1130EC084A5877F84A7E0911C02F0911D0284A56C
S1130ED08D7F84A785E080930F02A3FE63C0809179
S1130EE00F02843009F041C085E0809362031092C0
S1130EF00F0280911E02833019F410921E0252C018
S1130F000091690310916A03C8010E947501882346
S1130F1021F1C8010E9486018823F9F0C8010E94CA
S1130F209A018F5F9F4FC9F090E08091AE028823B1
S1130F3009F491E0992389F012E01093440281E0CE
S1130F408093AE02809184009091850069E973E0FA
S1130F500E94A40110931E0225C010921E0210923A
S1130F60390280E00E941C051DC08530D9F420910F
S1130F703F02289886E88EBD0DB407FEFDCF8EB5DE
S1130F801EBC0DB407FEFDCF8EB5289A8F71922F2B
S1130F9096959695891B280F20933F0289E08093AC
S1130FA00F0208C090910F02992309F4DFC299300F
S1130FB009F00CC2289880E28EBD0DB407FEFDCF67
S1130FC08EB51EBC0DB407FEFDCF8EB5482F552738
S1130FD0433008F490C3842F99278A970CF08BC36D
S1130FE01EBCE0911C02F0911D024083042F0250AC
S1130FF0073010F4102F01C017E09F012F5F3F4FFF
S1131000912FF901EE24FF240DB407FEFDCF8EB518
S11310101EBC80838191A7014827042E4295407FFE
S11310204025052E542F42954F700426469554278B
S11310304527440F440F440F40257A01915021F76E
S11310401150E901C10FD11D1F5F219680911C022F
S113105090911D020E94CE01882349F020E030E0E7
S113106080911E02823081F421E030E00DC08FB700
S1131070F894282F332790E08091B502833008F448
S113108091E02FBF292F3327232B09F45FC0902F22
S1131090911B1AC00DB407FEFDCF8EB51EBC88830C
S11310A08991F701E8270E2EE295E07FE0250F2EC7
S11310B0FE2FE295EF700E26E695FE27EF27EE0F42
S11310C0EE0FEE0FE0257F01915020F70DB407FEDF
S11310D0FDCF8EB51EBC97012827022E2295207FB6
S11310E02025032E322F22952F7002262695322793
S11310F02327220F220F220F20250DB407FEFDCF38
S11311008EB51EBC2827022E2295207F2025032E73
S1131110322F22952F700226269532272327220F5D
S1131120220F220F20250DB407FEFDCF8EB5E091CE
S11311301C02F0911D0285A7289A15E01093620302
S113114010920F02232B09F00DC205C00DB407FE47
S1131150FDCF8EB5D0C2C0911C02D0911D02CE012C
S11311600E94CE0190911E02882321F1923009F051
S113117028C19B81E0916903F0916A0383819817E8
S113118009F01FC189818770823009F01AC18091EA
S11311906F008D7F80936F001092AE02BF0180E0DC
S11311A00E94440110921E021092390280E00E94B3
S11311B01C0507C19923C1F4CE010E94D9018823DB
S11311C099F01093750282E0809376021092770270
S11311D08B818093780285E792E00E942905882319
S11311E019F483E080931E0200918400109185001D
S11311F0CE010E94D901882311F0045E1C4F109384
S1131200A7020093A6028091840090918500980122
S1131210281B390B12161306A4F480913902882373
S113122069F490E08091AE02882309F491E0992357
S113123041F0C9010E940B0280E801C080688093DC
S113124039025E010894A11CB11C8985288599275F
S1131250582F44273327422B532B80912302282FC6
S11312603327F901EE0FFF1FE454FD4F8081918174
S11312700091AF028417950749F4F901ED59FC4F29
S11312808081801709F468C0802F1BC0EE24FF24DE
S113129080E090E0ACEBB2E0E3E6F3E0BF01182FAE
S11312A09C018D919C9111978417950789F4209343
S11312B023029091AF02FB018081891709F44CC08D
S11312C0892F8F5F8093AF028083E0E8EE2E2AC0DF
S11312D08081902F981BE91610F4E92EF22E1F5FDF
S11312E0C90101966F5F7F4F129631968530910543
S11312F0B1F61530B9F4F0922302AF2DBB27FD01EE
S1131300EE0FFF1FE454FD4F518340838091AF02E1
S11313108F5F8093AF02FD01ED59FC4F8083A55987
S1131320BC4F1C929091AF02892F8F778F3781F435
S1131330EEE7EE1568F4E3E6F3E0292F20788081E8
S11313408F6789132083319633E0E836F307B9F7C2
S113135080912302282F3327F5019281A22FBB27E6
S1131360FD01E559FC4F808180FF07C0FD01EA546F
S1131370FD4F8081981729F102C081608083AA54AF
S1131380BD4F9C93FFB6F8948091B5028330B0F4BE
S1131390E091CD02E80FE33008F0E350FF27EE0FB1
S11313A0FF1FEE5EFD4F00811181D183C0838F5FEB
S11313B08093B50283E00E949000E8018F2D992765
S11313C08FBFD0931D02C0931C02C3C0892F8150CC
S11313D0833008F09CC081508230E0F43091620385
S11313E03130C1F420E08091AE02882309F421E079
S11313F0222381F02F9883E0809344023093AE023D
S113140080918400909185006BE273E00E94A401B6
S113141082E068C0933009F042C080916203833057
S113142009F097C00E94E5048823C9F128988FE841
S11314308EBD0DB407FEFDCF8EB51EBC0DB407FEE8
S1131440FDCF8EB5289A80918100806480938100BD
S113145080E286BB80916F00806280936F009091E0
S11314603002289888EC8EBD0DB407FEFDCF8EB5F2
S113147090669EBD0DB407FEFDCF8EB5289A2898C0
S113148082EC8EBD0DB407FEFDCF8EB586E08EBD19
S11314900DB407FEFDCF8EB5289A84E023C0809159
S11314A00F028150823000F5809162038530E1F4AF
S11314B00E94E5048823C1F0289882EC8EBD0DB407
S11314C007FEFDCF8EB583E08EBD0DB407FEFDCFC4
S11314D08EB5289A80916F008F7D80936F00109253
S11314E0BB0283E08093620390910F02913041F438
S11314F0809162038330B1F52F9A9093620325C0E3
S1131500923039F580916203833061F51EC09730C3
S113151001F50E94E5048823E1F0909130022898B7
S113152088EC8EBD0DB407FEFDCF8EB590669EBDD2
S11315300DB407FEFDCF8EB5289A809162038530E5
S113154021F484E08093620304C088E080930F0256
S113155004C080910F02883029F410920F0281E0B8
S11315600E94900080910F02882309F58091620304
S11315708530D1F48091BB028823B1F480911E029E
S1131580882391F480913902882371F490E080914A
S1131590AE02882309F491E0992331F00E941105E9
S11315A080910F02882319F487E00E9490008091B3
S11315B0AE02823009F092C01092AE02F090440262
S11315C0F2E0FF1609F466C023E0F21609F46AC0DB
S11315D031E0F31609F082C02091A6023091A702EF
S11315E0809184009091850040913902403829F41B
S11315F0109239020E94110571C08901081B190B50
S113160047FF03C010161106ECF0C0913602D091CA
S1131610370280911E028823A9F4CE010E94290575
S11316209927882351F48CA58E7F8CA7F0921E02F3
S1131630D0936A03C093690329C09927F82E88239D
S113164029F102C055E0F52E20913902822F992705
S11316508F77019759F4207822602093390280E132
S113166098E00E9419020E940B0238C027FF0AC0AA
S1131670101611063CF480E880933902C8010E94D8
S11316800B0202C0109239028F2D09C083E08093AF
S1131690390224C010921E021092390280E00E9486
S11316A01C051CC080916203823019F4F09262031D
S11316B013C080910F02863079F410920F0228989B
S11316C081E88EBD0DB407FEFDCF8EB51EBC0DB4F2
S11316D007FEFDCF8EB5289A0E94A40B8FB7F8940D
S11316E0282F332780912F02813061F081E080938D
S11316F02F022FBF5DCB289A85E08093620310925E
S11317000F0230CF10922F022FBFDF91CF911F9184
S11317100F91FF90EF90DF90CF90BF90AF9008951E
S11317208FB7F894282F332780912F02815080930C
S11317302F02803811F02FBF089581E080932F028B
S11317402FBF0E94CE0608958FB7F894282F332711
S113175080912F02882329F0806880932F022FBF65
S1131760089581E080932F022FBF0E94CE06089532
S113177078941F920F920FB60F9211242F933F93D8
S11317804F935F936F937F938F939F93AF93BF9385
S1131790EF93FF93E6E8F0E080819181208131812D
S11317A08FB7F8949927309341022093400221E0A7
S11317B02093BB028FBF0E94A40BFF91EF91BF91B6
S11317C0AF919F918F917F916F915F914F913F91D5
S11317D02F910F900FBE0F901F90189578941F9221
S11317E00F920FB60F9211242F933F934F935F9351
S11317F06F937F938F939F93AF93BF93EF93FF93D5
S113180080916F008D7F80936F0078949FB7F894D8
S11318108091AE02813019F482E08093AE02892F68
S113182099278FBF0E94A40BFF91EF91BF91AF91B5
S11318309F918F917F916F915F914F913F912F91E4
S11318400F900FBE0F901F9018952F923F924F92BA
S11318505F926F927F928F929F92AF92BF92CF923C
S1131860DF92EF92FF920F931F93CF93DF93CDB745
S1131870DEB729970FB6F894DEBF0FBECDBF843014
S113188009F402C1853060F4813009F455C0813017
S1131890D0F0823009F460C0833009F033C2ABC0A9
S11318A0873009F427C2883038F4853009F448C1F8
S11318B0863009F027C279C1883009F47FC18930A4
S11318C009F020C28FC12FB7F894332780913102D9
S11318D08093070282E080930C022FBF809107025D
S11318E0882309F00FC2E0913202F09133028FE3B2
S11318F0828780910E028F5F80930E0283832FB7BD
S1131900F894332780912F028F5F80932F022FBF8B
S113191080913802882369F4F093B202E093B10213
S113192081E0809338021092B00282E00E9490001D
S11319305BC00E94900B5BC0809138021092380209
S1131940853009F4DFC1863009F4DCC1873009F43D
S1131950D9C180933802D6C12FB7F8943327809128
S11319602F028F5F80932F022FBF409138024130A6
S113197071F58091B0028F5F8093B002863038F5A4
S11319802091B1023091B202809139028823C1F4CE
S113199090E08091AE02882309F491E0992381F0CC
S11319A03093370220933602409339028BED91E154
S11319B00E9419020E940B021092D20283E004C01A
S11319C085E08093D20282E0809338020DC01092A9
S11319D038020E94900BE091B102F091B20282852C
S11319E08F3309F08FC103C00E94900B8BC180E03C
S11319F00E940F0387C18FB7F894282F3327809153
S1131A00B502882309F47AC1E091CD02FF27EE0FD5
S1131A10FF1FEE5EFD4F008111812FBFF80182850B
S1131A208F3391F0C8010E949A01AC018FB7F894EA
S1131A30992720910202309103028FBF4217530766
S1131A4019F04F5F5F4F21F48FB7F89499278FBF38
S1131A509FB7F8948091CD02E82FFF27EE0FFF1F68
S1131A60EE5EFD4F118300838F5F8093CD02833040
S1131A7010F01092CD028091B50281508093B5028E
S1131A80892F99278FBFB7CF6FB76983F8942090B8
S1131A903B0230903C0240903D0250903E0266244E
S1131AA0772488248EE4A82E03E8B02ECC24DD24E9
S1131AB0EE24FF2400E010E0222D332D442D552D7B
S1131AC0662D772D882D90E00E946C102A833B832D
S1131AD04C835D836E837F8388879987822E932EC0
S1131AE0A42EB52E2401350100E20E946A11A22E13
S1131AF0B32EC42ED52EA301920156954795379542
S1131B0027952A0D3B1D4C1D5D1D57FF05C05F77B2
S1131B102F5F3F4F4F4F5F4F20933B0230933C0268
S1131B2040933D0250933E02E9818E2F99278FBF47
S1131B308FB7F89499273093B4022093B3023CC032
S1131B4080912E02882361F52091C6023091C7024C
S1131B504091C8025091C902EFB7F894FF276091F1
S1131B6018027091190280911A0290911B02E09060
S1131B70CE02F090CF020091D0021091D1026E0DEE
S1131B807F1D801F911FEFBF2093C6023093C702B1
S1131B904093C8025093C90210922E020E94F5028B
S1131BA00E943C020E946502ADC00E943C028FB7B5
S1131BB0F894992710923A028FBFA4C08FB7F89473
S1131BC099271092AD021092AC0210926103109208
S1131BD0600310921102109210021092A50210924A
S1131BE0A402EACF2FB7F89433278091430280935D
S1131BF00A0282E080930D022FBF80910A0288239B
S1131C0009F080C0209A289A80916203882309F001
S1131C1077C08EEF91E0019701960197E1F716984E
S1131C202F9886E090E0019701960197E1F7169AC4
S1131C30289883EC8EBD0DB407FEFDCF8EB51EBC77
S1131C400DB407FEFDCF8EB5289A289882EC8EBD80
S1131C500DB407FEFDCF8EB588E08EBD0DB407FE32
S1131C60FDCF8EB5289A8EEF91E0019701960197EA
S1131C70E1F728988EEC8EBD0DB407FEFDCF8EB52E
S1131C808DE48EBD0DB407FEFDCF8EB5289A28983D
S1131C9089EC8EBD0DB407FEFDCF8EB587EC8EBDED
S1131CA00DB407FEFDCF8EB5289A289885EC8EBD1D
S1131CB00DB407FEFDCF8EB580E88EBD0DB407FED2
S1131CC0FDCF8EB5289A109274028AE18093300277
S1131CD0289888EC8EBD0DB407FEFDCF8EB58AE73B
S1131CE08EBD0DB407FEFDCF8EB5289A2F9A81E0E4
S1131CF08093620380E00E94C00004C02FBF02C032
S1131D000E94A40B29960FB6F894DEBF0FBECDBF78
S1131D10DF91CF911F910F91FF90EF90DF90CF90C3
S1131D20BF90AF909F908F907F906F905F904F90F7
S1131D303F902F9008958091CA028F3FB1F0282FD1
S1131D403327F901EC5DFD4F80818093CA028F3FF8
S1131D5011F4809368038FEF80832F3F31F0822F3B
S1131D600E94250C81E090E0089580E090E00895C1
S1131D700F931F930FB7F89414BE88E10FB6F8942D
S1131D8080936000109260000FBE4AE050E06FEF55
S1131D9070E084E292E00E9457128FEF8093CA02AF
S1131DA08093680356985E9854985C9880916F006D
S1131DB08F7D80936F00209A289A279A2F980E9AE5
S1131DC0169A85E492E090931D0280931C0210926F
S1131DD03F028AE58093350281E08093810080E2AE
S1131DE08093B60083E08093B10080918400909149
S1131DF085004AE72091840030918500281739072F
S1131E0008F44150442311F0C901F4CF9091B20079
S1131E108091B2008917E1F320918400309185000C
S1131E209091B2008091B2008917E1F3809184000F
S1131E3090918500821B930B409645E0969587957B
S1131E404A95E1F79093CC028093CB021092B100B3
S1131E508091B10080938100809181008093B600CD
S1131E601092B20010928500109284008FEF87BB0D
S1131E7087B386BB8091B6008571E1F718B88FEF00
S1131E8087B90C9814981092850010928400809160
S1131E906F00816080936F0080918100887F8260F1
S1131EA0809381000A9A099A089A129A119A109AB0
S1131EB00E949B0E8823E1F78FEF8093420280E01B
S1131EC00E949A04182F8091B60080628093B60015
S1131ED08091B60081FDFCCF82E08093B0008091B8
S1131EE0B60080FDFCCF83E08093B1008091B60002
S1131EF083FDFCCF86EE8093B300809170008260F6
S1131F00809370000E946902809100029091010206
S1131F100196AA27BB2780933B0290933C02A0938F
S1131F203D02B0933E0283ED92E0909313028093BE
S1131F3012028F96909315028093140281E393E02A
S1131F4090931702809316028FEF9FEF9093BD0238
S1131F508093BC029093BF028093BE029093C1020F
S1131F608093C0029093C3028093C2029093C502EF
S1131F708093C402809100028295807F80930E0238
S1131F808FEF809334020E949B0E8823E1F7802F09
S1131F9099278FBF78942FB7F894332780912F0215
S1131FA08F5F80932F022FBF809138028823D9F44A
S1131FB080910F028823B9F480916203813049F43F
S1131FC090E08091AE02882309F491E0992359F0BE
S1131FD002C0853041F083E080930F020E94A40B7D
S1131FE085E0809338020E94900B8FB7F894482FB5
S1131FF0552757C080917000992783709070892B62
S113200019F4E5E0F0E014C08091B6008A71E1F7BC
S11320108091B3009091B200891B8C3038F080918C
S1132020B200853F18F4E3E0F0E002C0E2E0F0E043
S113203080916E00867009F580916F008E72E9F4CC
S1132040809171008E72C9F40CB407FC16C08091A3
S1132050C100887191F48091C900887171F48091F4
S1132060BC0082FD0AC080917A0087FF03C081E032
S113207090E005C085E090E002C080E090E023B7E6
S11320808E1708F4E82FFF27E453FF4FE491207FD5
S11320902160E22BE3BF78948895F89483B78E7F10
S11320A083BF8091CA028F3F09F4A4CF282F33271E
S11320B0F901EC5DFD4F80818093CA028F3F11F4DA
S11320C0809368038FEF80832F3F09F493CF4FBF32
S11320D0822F0E94250C89CFACE2B0E0E2E7F0E168
S11320E00C942012222E332E442E552E662E772E3B
S11320F0882E992EFE013196A8E01192AA95E9F74F
S113210029823A824B825C826D827E828F8298869B
S1132110FE013996B8E01192BA95E9F7A986BA8614
S1132120CB86DC86ED86FE860F87188B89819A81A3
S1132130AB81BC8189A79AA7ABA7BCA77C018D0101
S11321408FEF9FEFA0E0B0E0E822F9220A231B23DF
S113215089A59AA5ABA5BCA51D0144245524898550
S11321609A85AB85BC858DA39EA3AFA3B8A75C015C
S11321706D018FEF9FEFA0E0B0E0A822B922CA2240
S1132180DB228DA19EA1AFA1B8A53D01882499248D
S1132190C801B701A60195010E94011269A37AA39F
S11321A08BA39CA3C801B701A40193010E9401124F
S11321B07B018C01C201B101A60195010E940112AB
S11321C05B016C01C201B101A40193010E940112DF
S11321D03B014C01EA0CFB1C0C1D1D1D89A19AA19D
S11321E0ABA1BCA19D01442755272E0D3F1D401FC7
S11321F0511F2A153B054C055D0540F480E090E035
S1132200A1E0B0E0680E791E8A1E9B1ECA01AA27AF
S1132210BB27860D971DA81DB91D8D8F9E8FAF8F6F
S1132220B8A3A9013327222789A19AA1ABA1BCA1F4
S1132230A070B070280F391F4A1F5B1F298F3A8F77
S11322404B8F5C8FA98CBA8CCB8CDC8CED8CFE8C88
S11322500F8D18A1FE01719698E011929A95E9F7F5
S1132260ED8AFE8A0F8B188F2D813E814F81588510
S11322706DA17EA18FA198A50E9401123B014C0182
S11322802D853E854F85588969A57AA58BA59CA582
S11322900E9401122D893E894F89588D260F371FC0
S11322A0481F591F260D371D481D591D2D8B3E8B68
S11322B04F8B588F6D887E888F88988C2A2D3B2D64
S11322C04C2D5D2D662D772D882D992DE2E1AC9650
S11322D00C943C12A0E1B0E0E0E7F1E10C94201290
S11322E0222E332E442E552E662E772E882E992E8E
S11322F0002309F466C088E0FE01319611928A95A4
S1132300E9F729833A834B835C836D837E838F82D1
S11323109887E0E2E01B1E16CCF52D813E814F81AB
S11323205885602F772767FD7095DA01C901062E5D
S113233004C0B695A795979587950A94D2F78D878B
S11323409E87AF87B88B04C0220F331F441F551FCD
S1132350EA95D2F789819A81AB81BC8104C0B69594
S1132360A795979587956A95D2F7282B392B4A2BF1
S11323705B2B29873A874B875C8729843A844B8473
S11323805C846D847E848F8498881BC01D861E8621
S11323901F86188A2E2F332727FD309530952195D7
S11323A03F4F8D819E81AF81B88504C0B695A795B6
S11323B0979587952A95D2F789879A87AB87BC87A3
S11323C0DCCF222D332D442D552D662D772D882DD0
S11323D0992DE2E160960C943C12AA1BBB1B51E1BF
S11323E007C0AA1FBB1FA617B70710F0A61BB70B81
S11323F0881F991F5A95A9F780959095BC01CD0126
S11324000895629FD001739FF001829FE00DF11D3A
S1132410649FE00DF11D929FF00D839FF00D749F5A
S1132420F00D659FF00D9927729FB00DE11DF91F06
S1132430639FB00DE11DF91FBD01CF011124089563
S11324402F923F924F925F926F927F928F929F92C0
S1132450AF92BF92CF92DF92EF92FF920F931F93AE
S1132460CF93DF93CDB7DEB7CA1BDB0B0FB6F8945F
S1132470DEBF0FBECDBF09942A88398848885F849F
S11324806E847D848C849B84AA84B984C884DF8010
S1132490EE80FD800C811B81AA81B981CE0FD11DF4
S11324A00FB6F894DEBF0FBECDBFED010895DC0179
S11124B001C06D9341505040E0F70895FFCFF6
S10F24BE0100010022FFFFFFFFFFFF00F0
S9030000FC
