S01700006275696C642F697269732F6D61696E2E7372656343
S11300000C9469000C9488000C9488000C9488006B
S11300100C9488000C9488000C9488000C9488003C
S11300200C9488000C9488000C9488000C9488002C
S11300300C9488000C94D1030C9488000C94D60280
S11300400C94D90B0C940F0C0C948D030C94980302
S11300500C94A3030C9488000C9488000C948800DE
S11300600C94EA020C9488000C9488000C94880088
S11300700C9488000C9488000C9488000C948800DC
S11300800C9488000C9488000C9488000C948800CC
S11300900C9488000C9488000C9488000C948800BC
S11300A00C9488000C9488000C9488000C948800AC
S11300B00C9488000C9488000C9488000C9488009C
S11300C00C9488000C9488000C94880000020E069E
S11300D00C0411241FBECFEFD1E2DEBFCDBF12E06E
S11300E0A0E0B2E0EAEBF9E200E00BBF02C0079047
S11300F00D92AC30B107D9F713E0ACE0B2E001C027
S11301001D92A23BB107E1F70E945E110C94DC142E
S11301100C9400008FB7F894992708958FBF089521
S1130120282F9FB7F894E82FFF27E95DFD4F8081C2
S11301308F3F81F4E091AA03E21771F40BC020937E
S11301400B0304C0FF27E95DFD4F20832093AA031E
S113015020E007C025E005C080910B038F3F91F795
S1130160EECF892F99278FBF822F9927089588234F
S113017019F08CB5806402C08CB58F7B8CBD08955A
S1130180882319F08CB5806802C08CB58F778CBD3C
S113019008950F931F9380E00E94B7000FB7F8945F
S11301A01127229A2398219A209A8CB580618CBDBC
S11301B080E00E94C0008CB5877F8CBD8CB58B7F9E
S11301C08CBD81E00E94B7008DB581608DBD8CB57A
S11301D08C7F8CBD0FBF1F910F9108950F931F93B8
S11301E0CF93DF93182F0FB7F894809110028823D0
S11301F011F40E94C900802F99278FBF8FB7F894FC
S1130200C82FDD272C2F80911002882361F481E010
S1130210809310021093790289E00E949000CFBF6E
S113022080E090E021C0E12FFF27E858FD4F808156
S11302308F3F89F4E0910902E11789F40CC010930F
S1130240080204C0FF27E858FD4F108310930902E9
S113025080E090E002C085E090E02FBF05C080916F
S113026008028F3F79F7EBCFDF91CF911F910F9168
S11302700895FB0121E030E002C0220F331F8A956C
S1130280E2F784A5822B84A708958FB7F894209170
S1130290E0023091E1024091E2025091E302E091E8
S11302A08400F0918500B09B08C02F5F3F4F4F4FF3
S11302B05F4FE0918400F091850099278FBFC901B9
S11302C0772766279F0144275527622B732B842B9E
S11302D0952B0895FC0182819927982F88272181E5
S11302E03327822B932B25E0969587952A95E1F762
S11302F0817090700895AC01EFB7F8942091840058
S113030030918500C901841B950B039686179707C6
S113031020F0B9016D5F7F4F02C0640F751F611536
S1130320710511F461E070E06150704070938900D0
S11303306093880082E086BB80916F008260809326
S11303406F008E2F99278FBF0895CF93DF93EC0111
S11303500E946A01882339F18A8129819927982F7B
S113036088273327822B932B87749C7C815498484D
S1130370D1F48F814E812FB7F89433276091020214
S1130380709103022FBF20E09927982F88275527C3
S1130390842B952B8617970709F021E081E0282705
S11303A0822F992702C080E090E0DF91CF910895D9
S11303B0FB0121E030E002C0220F331F8A95E2F7EF
S11303C084A5822399270895EF92FF920F931F9398
S11303D07C018FB7F89499270091F4021091F502EB
S11303E00F5E1E4F1093F5020093F4020151114069
S11303F08FBF86E00E949000C801B7010E946B1471
S11304008A5D9E4F1F910F91FF90EF9008957FB7E3
S1130410F8946091B200209122023091230240911D
S1130420240250912502B99B11C08091B300909190
S1130430B200280F311D411D511D2F5F3F4F4F4FFB
S11304405F4F290F311D411D511D04C0260F311D61
S1130450411D511D872F99278FBFCA01B9010895E6
S1130460DF92EF92FF920F931F938FB7F894282F88
S11304703327D22E9091B3008091B20047B39817DE
S113048011F041FF02C02FBF71C080916E0288231A
S1130490E1F10E940702E0901B02F0901C0200911F
S11304A01D0210911E0220911003309111034091FE
S11304B01203509113036E197F09800B910B62177D
S11304C073078407950720F010926E0271E01EC036
S11304D02E0D3F1D401F511F809122029091230237
S11304E0A0912402B0912502281B390B4A0B5B0B07
S11304F0273E31054105510540F4822F223010F08A
S113050070E005C070E082E002C070E086EE682F03
S113051061508091B60083FDFCCF8091B2006817D2
S113052009F46F5F2091220230912302409124024A
S113053050912502DA01C9010196A11DB11D860F52
S1130540911DA11DB11D82179307A407B50710F4CF
S1130550622F60958091B60083FDFCCF6093B30059
S1130560DFBE772319F080E00E9490001F910F9165
S1130570FF90EF90DF900895AFB7F894BB27E1E0C8
S1130580E0936E0260931B0270931C0280931D0221
S113059090931E022093100330931103409312038F
S11305A050931303AFBF0E94300208951F920F921D
S11305B00FB60F9211248F938091B0008093B000F6
S11305C08091B60081FDFCCF8F910F900FBE0F90EC
S11305D01F9018951F920F920FB60F9211240F932C
S11305E01F932F933F934F935F936F937F938F93B7
S11305F09F93AF93BF93CF93DF93EF93FF932EB566
S1130600E091ED02F091EE02309739F08091DA0238
S11306109091DB02E80FF91F20838091DA02909118
S1130620DB0201969093DB028093DA0280E00E9461
S1130630C000C091DA02D091DB0220911302309104
S11306401402C217D30708F042C00091A20310910C
S1130650A3034091ED025091EE02CE010A962817B1
S1130660390708F4C901DA01AC0FBD1FF801EC0F1A
S1130670FD1F9C012150304015C00115110531F0BA
S113068080818EBD0DB407FEFDCF04C01EBC0DB429
S113069007FEFDCF8EB54115510509F08C932196C7
S11306A011963196C217D30740F381E00E94C0002F
S11306B00115110531F00C0F1D1FF80180818EBD4D
S11306C001C01EBCD093DB02C093DA0211C01092A9
S11306D0EE021092ED021092A3031092A203109264
S11306E01402109213021092DB021092DA028EB5F9
S11306F0FF91EF91DF91CF91BF91AF919F918F9136
S11307007F916F915F914F913F912F911F910F9125
S11307100F900FBE0F901F90189578941F920F9210
S11307200FB60F9211240F900FBE0F901F901895C3
S113073078941F920F920FB60F9211240F900FBE50
S11307400F901F90189578941F920F920FB60F92E6
S113075011242F933F938F939F93AF93BF932FB7FE
S1130760F89433278091E0029091E102A091E20293
S1130770B091E3020196A11DB11D8093E002909314
S1130780E102A093E202B093E3022FBFBF91AF91C5
S11307909F918F913F912F910F900FBE0F901F90BB
S11307A018951F920F920FB60F9211242F933F9317
S11307B04F935F936F937F938F939F93AF93BF9365
S11307C0EF93FF938091B0008093B0008091B600C6
S11307D081FDFCCF8091B30099270196AA27BB27FE
S11307E0209122023091230240912402509125024B
S11307F0280F391F4A1F5B1F2093220230932302C4
S1130800409324025093250278940E943002FF9171
S1130810EF91BF91AF919F918F917F916F915F9174
S11308204F913F912F910F900FBE0F901F901895ED
S113083021E020937A022093EF02209184003091EA
S11308408500BC01C9010E947B0108958FB7F8940B
S1130850282F3327922F80910A02882331F4809124
S11308601002823011F42FBF13C09FBF8FB7F894CA
S1130870282F332780911002882369F482E0809323
S1130880100210920A022FBF0E94C900209A289ACF
S113089081E090E008952FBF80E00E94EE0080E0A8
S11308A090E008951F93982F1FB7F89480910F023A
S11308B0823099F580910702891779F580910502B4
S11308C020E030E08F3F11F421E030E0232BF1F4FD
S11308D09FEF909307028F3F19F42FEF30E00DC084
S11308E0282F3327F901E859FD4F808180930502B1
S11308F08F3F11F49093060290832093650281E068
S113090080930F0282E00E94900005C08FEF8093D5
S1130910070210920F0221E001C020E0812F9927E5
S11309208FBF90E0213009F491E081E09827892F6E
S113093099271F9108950F931F93982F1FB7F89429
S113094080911002823099F580910A02891779F515
S11309508091080220E030E08F3F11F421E030E084
S1130960232BF1F49FEF90930A028F3F19F42FEF9A
S113097030E00DC0282F3327F901E858FD4F80815E
S1130980809308028F3F11F490930902908320937F
S1130990790281E08093100289E00E94900005C0F2
S11309A08FEF80930A021092100201E001C000E070
S11309B0812F99278FBF1FB7F89480911002882345
S11309C011F40E94B700812F99278FBF90E0013066
S11309D009F491E081E09827892F99271F910F91BD
S11309E00895EF92FF920F931F93E091EC02E1FFC1
S11309F02BC02091E4023091E5024091E60250912F
S1130A00E702E090E802F090E9020091EA02109116
S1130A10EB02621B730B840B950B6E157F0580072D
S1130A20910790F0E0FF04C0ED7FE093EC020CC06E
S1130A302E0D3F1D401F511F2093E4023093E50209
S1130A404093E6025093E70281E00E9490001F91D8
S1130A500F91FF90EF90089580916C02823031F4F1
S1130A6081E080936C0284E00E949000089580935A
S1130A701403882311F484E001C081E080936C02A4
S1130A8084E00E94900008954F925F926F927F924B
S1130A908F929F92AF92BF92CF92DF92EF92FF928A
S1130AA00F931F93CF93DF932C018091120288231D
S1130AB009F083C18091A403853009F07EC10E94AE
S1130AC02604882309F479C18091FC02882309F063
S1130AD074C1B20182E00E94D801882311F490E02D
S1130AE003C0F20196A59F708091AA02981781F025
S1130AF09093AA02289885EC8EBD0DB407FEFDCF15
S1130B008EB590689EBD0DB407FEFDCF8EB5289AB4
S1130B10E20121968981F201218140E09927982FF1
S1130B2088273327822B932B87749C7C8154984885
S1130B3009F441E0442301F1289886E88EBD0DB400
S1130B4007FEFDCF8EB51EBC0DB407FEFDCF8EB5DE
S1130B50289A99278F7190702091750240916902AB
S1130B60240F312D311D43E0359527954A95E1F742
S1130B70281739070CF421C1289882EC8EBD0DB4D6
S1130B8007FEFDCF8EB589E08EBD0DB407FEFDCF07
S1130B908EB5289A0E9445017B018C01B20184E044
S1130BA00E94D801882319F4E0E0F0E006C0D201E5
S1130BB08C918550F201E80FF11D289881E88EBDD3
S1130BC00DB407FEFDCF8EB51EBC0DB407FEFDCFE0
S1130BD08EB5289A8F71893079F0289882EC8EBD71
S1130BE00DB407FEFDCF8EB586E08EBD0DB407FEB5
S1130BF0FDCF8EB5289AE1C08FB7F89499272F9A24
S1130C0020918400309185008FBF2F98289880E62A
S1130C108EBDD2019C910DB407FEFDCF8EB59EBD55
S1130C20792F7250773010F4672F01C067E0DE012E
S1130C30962F4D910DB407FEFDCF8EB54EBD91504C
S1130C40C1F76150C60FD11D6F5F21962E193F0960
S1130C502E553F4F3901882477FC8094982C6E0CD4
S1130C607F1C801E911E309719F4972F961B42C04B
S1130C702081E1808281A3809927AA27BB27BA2FEC
S1130C80A92F982F8827332744275527522F4427E5
S1130C9033272227FF24002711278701FF24EE246E
S1130CA02E293F29402B512BBB24CC24DD242A2977
S1130CB03B294C295D29822B932BA42BB52B861918
S1130CC09709A809B9098383292F3A2F4B2F552750
S1130CD022839D014427552721838B2F9927AA27F7
S1130CE0BB278083C2CF28810DB407FEFDCF219698
S1130CF08EB52EBD9150B8F70DB407FEFDCF8EB55D
S1130D00289A289882EC8EBD0DB407FEFDCF8EB5CF
S1130D1086E08EBD0DB407FEFDCF8EB5289A3097C0
S1130D20D1F12081E1808281A3809927AA27BB2762
S1130D30BA2FA92F982F8827332744275527522FB6
S1130D40442733272227FF24002711278701FF2464
S1130D50EE242E293F29402B512BBB24CC24DD2407
S1130D602A293B294C295D29822B932BA42BB52BB3
S1130D70860D971DA81DB91D8383292F3A2F4B2F4C
S1130D80552722839D014427552721838B2F99279B
S1130D90AA27BB278083B20181E00E943901F201B6
S1130DA060A671A682A693A686E08093A40384E03D
S1130DB08093120280E090E002C085E090E0DF9131
S1130DC0CF911F910F91FF90EF90DF90CF90BF9044
S1130DD0AF909F908F907F906F905F904F90089509
S1130DE0AF92BF92CF92DF92EF92FF920F931F9335
S1130DF0CF93DF938091FC02882309F402C10E94FF
S1130E002604882309F4FDC08FB7F8949927C0916C
S1130E107602D09177028FBF1092FC0228988FE857
S1130E208EBD0DB407FEFDCF8EB51EBC0DB407FEFE
S1130E30FDCF8EB5289A982F80911202833011F03D
S1130E40873031F485E08093A40388E08093120214
S1130E50A92EBB24A2FE63C080911202863019F42D
S1130E601092120203C0882309F059C0943009F08B
S1130E7045C0289886E88EBD0DB407FEFDCF8EB51B
S1130E801EBC0DB407FEFDCFFEB4289A2FE1F2225A
S1130E9080916902982F96959695EF2DE91B8E0FF8
S1130EA08093690200911F0210912002F80184A529
S1130EB08B7F84A7B80183E00E943901F801F6A66C
S1130EC00E9445017B018C01C0901F02D09020023A
S1130ED0B60181E00E943901CE19DF092797CE01BE
S1130EE0AA2797FDA095BA2F8E0D9F1DA01FB11F95
S1130EF0F60180A791A7A2A7B3A70EC0E0911F0295
S1130F00F091200284A5877F84A7E0911F02F091CD
S1130F10200284A58D7F84A785E080931202A3FE1E
S1130F2070C080911202843009F04EC085E0809335
S1130F30A4031092120280912102833019F41092BA
S1130F4021025FC0C091AB03D091AC03CE010E94DB
S1130F506A01882389F18A8129819927982F882712
S1130F603327822B932B87749C7C8154984821F5DA
S1130F708F812E819927982F88273327822B932BB3
S1130F808F5F9F4FC9F090E08091EF02882309F4AE
S1130F9091E0992389F012E010937A0281E0809322
S1130FA0EF02809184009091850069E973E00E94CA
S1130FB07B011093210225C01092210210926D0230
S1130FC080E00E9437051DC08530D9F42091750258
S1130FD0289886E88EBD0DB407FEFDCF8EB51EBCE5
S1130FE00DB407FEFDCF8EB5289A8F71922F96957A
S1130FF09695891B280F2093750289E0809312022D
S113100008C090911202992309F4E5C2993009F0BD
S113101012C2289880E28EBD0DB407FEFDCF8EB5B6
S11310201EBC0DB407FEFDCF8EB5482F55274330A7
S113103008F496C3842F99278A970CF091C31EBC99
S1131040E0911F02F09120024083542F52505730F8
S113105010F4452F01C047E0DF011196242FFD0154
S113106060E070E00DB407FEFDCF8EB51EBC99277D
S113107081936827062E6295607F6025072E762F60
S113108062956F700626669576276727660F660F4A
S1131090660F6025215031F74150A40FB11D4F5FF9
S11310A01196E0911F02F0912002818190E08770F7
S11310B0823009F491E0992349F020E030E08091F6
S11310C02102823081F421E030E00DC08FB7F89422
S11310D0282F332790E08091F602833008F491E0C2
S11310E02FBF292F3327232B09F45CC0952F941B82
S11310F018C00DB407FEFDCF8EB51EBC8C938D9128
S11311006827062E6295607F6025072E762F6295EC
S11311106F700626669576276727660F660F660F3B
S11311206025915030F70DB407FEFDCF8EB51EBC7F
S11311309B012827022E2295207F2025032E322F63
S113114022952F700226269532272327220F220F5D
S1131150220F20250DB407FEFDCF8EB51EBC282717
S1131160022E2295207F2025032E322F22952F70C8
S11311700226269532272327220F220F220F20250D
S11311800DB407FEFDCF8EB5E0911F02F091200251
S113119085A7289A15E01093A40310921202232B1A
S11311A031F015C20DB407FEFDCF8EB5D9C2E09063
S11311B01F02F090200267010894C11CD11CF701A2
S11311C0818190E0282F3327277030702230310539
S11311D009F491E080912102992321F1823009F0F0
S11311E025C1F7019381E091AB03F091AC038381B6
S11311F0981709F01BC12230310509F017C18091FD
S11312006F008D7F80936F001092EF02BF0180E02A
S11312100E9439011092210210926D0280E00E9416
S1131220370504C18823C9F4C7010E94A501882396
S1131230A1F01093AB0282E08093AC021092AD0255
S1131240F70183818093AE028BEA92E00E94440509
S1131250882319F483E08093210200918400109183
S11312608500C7010E94A501882311F0045E1C4F6C
S11312701093DD020093DC0280918400909185003C
S11312809801281B390B12161306A4F480916D02E1
S1131290882369F490E08091EF02882309F491E0B7
S11312A0992341F0C9010E94180480E801C08068B4
S11312B080936D02F601808527819927582F442752
S11312C03327422B532B80912602282F3327F901F1
S11312D0EE0FFF1FE350FD4F808191817091F0026A
S11312E08417950769F4F901EB55FC4F8081871742
S11312F009F467C0872F8F5F8093F00280831DC03D
S113130000E010E080E090E0CDEFD2E0E5EAF3E029
S1131310DF01682F9C01888199818417950779F4EE
S1131320209326029091F0028C91891709F449C008
S1131330892F8F5F8093F0028C9300E829C080810D
S1131340972F981B091710F4092F122F6F5FC901EB
S1131350019611962296319685309105D1F6653025
S1131360B9F410932602A12FBB27FD01EE0FFF1F36
S1131370E350FD4F518340838091F0028F5F80934F
S1131380F002FD01EB55FC4F8083A355BC4F1C922A
S11313909091F002892F8F778F3779F40F3768F0A7
S11313A0E5EAF3E0292F207880818F678913208371
S11313B0319683E0EA3AF807B9F780912602282F9C
S11313C03327F6019281A22FBB27FD01E355FC4F81
S11313D0808180FF07C0FD01E950FD4F808198178F
S11313E029F102C081608083A950BD4F9C93DFB670
S11313F0F8948091F6028330B0F4E0910E03E80F84
S1131400E33008F0E350FF27EE0FFF1FEB5EFD4FC4
S113141000811181F182E0828F5F8093F60285E082
S11314200E94900078018D2D99278FBFF0922002A1
S1131430E0921F02C3C0892F8150833008F09CC002
S113144081508230E0F43091A4033130C1F420E0C3
S11314508091EF02882309F421E0222381F02F9860
S113146083E080937A023093EF028091840090911C
S113147085006BE273E00E947B0182E068C09330D8
S113148009F042C08091A403833009F097C00E9400
S113149026048823C9F128988FE88EBD0DB407FE71
S11314A0FDCF8EB51EBC0DB407FEFDCF8EB5289AB8
S11314B08091810080648093810080E286BB80916A
S11314C06F00806280936F0090916402289888EC8A
S11314D08EBD0DB407FEFDCF8EB590669EBD0DB4D6
S11314E007FEFDCF8EB5289A289882EC8EBD0DB4E8
S11314F007FEFDCF8EB586E08EBD0DB407FEFDCF91
S11315008EB5289A84E023C08091120281508230E3
S113151000F58091A4038530E1F40E942604882319
S1131520C1F0289882EC8EBD0DB407FEFDCF8EB5B8
S113153083E08EBD0DB407FEFDCF8EB5289A809151
S11315406F008F7D80936F001092FC0283E0809384
S1131550A40390911202913041F48091A40383304A
S1131560B1F52F9A9093A40325C0923039F5809158
S1131570A403833061F51EC0973001F50E94260450
S11315808823E1F090916402289888EC8EBD0DB414
S113159007FEFDCF8EB590669EBD0DB407FEFDCF50
S11315A08EB5289A8091A403853021F484E0809339
S11315B0A40304C088E08093120204C08091120244
S11315C0883029F41092120283E00E9490008091E6
S11315D01202882309F58091A4038530D1F4809107
S11315E0FC028823B1F480912102882391F4809134
S11315F06D02882371F490E08091EF02882309F44E
S113160091E0992331F00E942C05809112028823E5
S113161019F487E00E9490008091EF02823009F073
S113162092C01092EF02F0907A02F2E0FF1609F4F1
S113163066C023E0F21609F46AC081E0F81609F0E6
S113164082C02091DC023091DD028091840090916F
S1131650850040916D02403829F410926D020E9479
S11316602C0571C08901081B190B47FF03C0101614
S11316701106ECF0C0916A02D0916B0280912102B4
S11316808823A9F4CE010E9444059927882351F4A4
S11316908CA58E7F8CA7F0922102D093AC03C093CB
S11316A0AB0329C09927F82E882329F102C065E0ED
S11316B0F62E20916D02822F99278F77019759F486
S11316C02078226020936D0280E198E00E94E4017A
S11316D00E94180438C027FF0AC0101611063CF4F3
S11316E080E880936D02C8010E94180402C0109221
S11316F06D028F2D09C083E080936D0224C0109287
S1131700210210926D0280E00E9437051CC0809176
S1131710A403823019F4F092A40313C0809112023E
S1131720863079F410921202289881E88EBD0DB4A7
S113173007FEFDCF8EB51EBC0DB407FEFDCF8EB5E2
S1131740289A0E94C50B8FB7F894282F33278091CD
S11317506302813061F081E0809363022FBF4ACB42
S1131760289A85E08093A4031092120230CF10923D
S113177063022FBFDF91CF911F910F91FF90EF90E4
S1131780DF90CF90BF90AF9008958FB7F894282F33
S1131790332780916302882329F080688093630251
S11317A02FBF089581E0809363022FBF0E94F0064B
S11317B0089578941F920F920FB60F9211242F93CD
S11317C03F934F935F936F937F938F939F93AF93C5
S11317D0BF93EF93FF93E6E8F0E08081918120814D
S11317E031818FB7F894992730937702209376024A
S11317F021E02093FC028FBF0E94C50BFF91EF9163
S1131800BF91AF919F918F917F916F915F914F9114
S11318103F912F910F900FBE0F901F9018957894C1
S11318201F920F920FB60F9211242F933F934F9351
S11318305F936F937F938F939F93AF93BF93EF9334
S1131840FF9380916F008D7F80936F0078949FB792
S1131850F8948091EF02813019F482E08093EF02D2
S1131860892F99278FBF0E94C50BFF91EF91BF91DC
S1131870AF919F918F917F916F915F914F913F9124
S11318802F910F900FBE0F901F9018958FB7F8945B
S1131890282F33278091630281508093630280381C
S11318A011F02FBF089581E0809363022FBF0E943F
S11318B0F00608951F938FB7F89499272091630237
S11318C02F5F209363028FBF80916C02882311F0F5
S11318D015E023C0809112028823E1F48091A403CF
S11318E0813049F490E08091EF02882309F491E07B
S11318F0992381F005C0853019F489E090E00CC08B
S113190083E0809312020E94C50B85E080936C02F1
S113191010E003C085E090E0182F0E94460C812F50
S113192099271F9108951F93FC018FE3828780916B
S113193011028F5F8093110283832FB7F8943327AA
S1131940809163028F5F809363022FBF80916C024A
S1131950882311F015E00DC0F093F302E093F20236
S113196081E080936C021092F10284E00E94900066
S113197010E00E94460C812F99271F910895AF9281
S1131980BF92CF92DF92EF92FF920F931F93CF9368
S1131990DF93E82E6B01E82FFF27EE0FFF1FE252C3
S11319A0FD4F1182108210920B02A091DE02B091C1
S11319B0DF02109721F080910F0380FFA7C081E020
S11319C080930B0294C08181208140E09927782F75
S11319D066273327622B732BCB0187749C7C81543D
S11319E0984809F441E0442349F4CB018073907092
S11319F0816498688083892F99278183452F55278F
S1131A00542F4427802F9927482B592B135F1C935D
S1131A102FB7F894332780910202909103022FBFCD
S1131A208783892F992780872FB7F894332780914C
S1131A3004022FBF992783831482E501F88245832A
S1131A40452F552746838FB7F894282F3327809145
S1131A500F02882371F482E080930F021092070230
S1131A602FBFCD010E94930C9927182F882399F03A
S1131A700FC02FBFB0936702A09366028FB7F8948C
S1131A80C82FDD272C2F80910F02882399F406C0DC
S1131A9080E00E945204812F992724C081E0809322
S1131AA00F021092650282E00E949000CFBF80E096
S1131AB090E018C0809168028F3F89F4E09106029B
S1131AC0EE2369F01EC01092050204C0FF27E859F6
S1131AD0FD4F10821092060280E090E002C085E083
S1131AE090E02FBF892B19F08BE00E949000EE202C
S1131AF0E9F4E3E3CE16E2E0DE06C1F410920C0250
S1131B0015C0809105028F3F09F7DDCF6BE0A62E4B
S1131B10B12CAA0EBB1EED01FB84FD0131965F8141
S1131B200E811C911D501D31F8F64DCFDF91CF91E0
S1131B301F910F91FF90EF90DF90CF90BF90AF90E7
S1131B4008952F923F924F925F926F927F928F925D
S1131B509F92AF92BF92CF92DF92EF92FF920F9338
S1131B601F93CF93DF93CDB7DEB729970FB6F894C1
S1131B70DEBF0FBECDBFD82E25E0821709F476C193
S1131B802817B0F032E0831709F4B3C0381738F0DF
S1131B90882381F141E0841709F05AC35EC053E001
S1131BA0851709F4D6C064E0861709F051C300C153
S1131BB088E0D81609F474C28D1548F0E6E0DE1604
S1131BC009F412C2F7E0DF1609F042C306C32AE0A3
S1131BD0D21641F0D21608F478C23BE0D31609F0CD
S1131BE037C325C380910F03882309F431C340E030
S1131BF051E0FCC280916202882361F520910703C1
S1131C00309108034091090350910A03EFB7F89407
S1131C10FF2760911B0270911C0280911D0290911C
S1131C201E02E0901003F090110300911203109132
S1131C3013036E0D7F1D801F911FEFBF20930703B9
S1131C40309308034093090350930A0310926202ED
S1131C500E94BC020E9407023AC00E9407027B0154
S1131C608C018FB7F894992710926E028FBF8091E0
S1131C70EC0281FFEDC28091E4029091E502A09113
S1131C80E602B091E702A8019701281B390B4A0B21
S1131C905B0BDA01C9012091E8023091E90240911D
S1131CA0EA025091EB02281B390B4A0B5B0B2F3FC6
S1131CB06FEF36076FEF46076FE7560709F4C8C2A0
S1131CC012161306140615062CF0C801B7010E945B
S1131CD0F104BEC220930703309308034093090321
S1131CE050930A03D0926202C801B7010E94BC0259
S1131CF0AFC28FB7F8949927209165022093070209
S1131D00D0920F028FBF80910702882309F0A0C2EE
S1131D1080916602909167020E94930C082F11270C
S1131D20002309F495C280E00E94520420916602C7
S1131D303091670280910B02882309F089C2609177
S1131D40DE027091DF026217730709F081C2402F2F
S1131D5079C280916C0210926C02853001F50E9468
S1131D6007026093E4027093E5028093E602909385
S1131D70E7028AEF90E0A0E0B0E08093E80290935D
S1131D80E902A093EA02B093EB028091EC028E7F09
S1131D9082608093EC0281E00E94900059C28630F8
S1131DA009F456C2873009F453C280936C0250C2BE
S1131DB02FB7F8943327809163028F5F8093630277
S1131DC02FBF40916C02413081F58091F1028F5F09
S1131DD08093F102863048F52091F2023091F302AB
S1131DE080916D028823C1F490E08091EF028823F2
S1131DF009F491E0992381F030936B0220936A02F5
S1131E0040936D028BED91E10E94E4010E9418045D
S1131E101092140383E004C085E08093140382E0ED
S1131E2080936C020E94460C13C210926C020E94B2
S1131E30460C10911403E090F202F090F302F701C3
S1131E4082858F3309F004C280E00E94520480919D
S1131E500B02882309F0FCC16091DE027091DF025D
S1131E606E157F0509F0F4C1412FECC18FB7F894CA
S1131E70282F33278091F602882309F4B5C1E09115
S1131E800E03FF27EE0FFF1FEB5EFD4FA081B18114
S1131E902FBFFD018285978126818F3309F06EC0A3
S1131EA06385892F9927582F4427822F9927482BF8
S1131EB0592B8FB7F894992720910202309103028D
S1131EC08FBF4217530721F04F5F5F4F09F070C077
S1131ED0663009F06DC01C96B0937002A0936F0237
S1131EE01C97FD01848525859927982F88273327FA
S1131EF0822B932B0197D9F4868527859927982FD0
S1131F0088273327822B932B8230910541F083302D
S1131F10910529F08430910511F0059741F48FB7AC
S1131F20F894992722B134E0232722B98FBFE09196
S1131F306F02F0917002848125819927982F882758
S1131F403327822B932B019741F48FB7F894992769
S1131F5022B132E0232722B98FBFFD0186A599273C
S1131F6090930E0280930D02882311F18FB7F89499
S1131F70992722B131E0232722B919C0892F992743
S1131F80582F4427822F9927482B592B8FB7F89421
S1131F90992720910202309103028FBF4217530701
S1131FA019F04F5F5F4F21F48FB7F89499278FBFD3
S1131FB09FB7F89480910E03E82FFF27EE0FFF1FC1
S1131FC0EB5EFD4FB183A0838F5F80930E0383305C
S1131FD010F010920E038091F60281508093F60265
S1131FE0892F99278FBF42CF2FB72983F894209048
S1131FF07102309072024090730250907402662411
S113200077248824FEE4AF2EE3E8BE2ECC24DD241E
S1132010EE24FF2400E010E0222D332D442D552D15
S1132020662D772D882D90E00E94EA122A833B8347
S11320304C835D836E837F8388879987822E932E5A
S1132040A42EB52E2401350100E20E94E813A22E2D
S1132050B32EC42ED52EA3019201569547953795DC
S113206027952A0D3B1D4C1D5D1D57FF05C05F774D
S11320702F5F3F4F4F4F5F4F209371023093720297
S113208040937302509374026981862F99278FBFFE
S11320908FB7F89499273093F5022093F40213C074
S11320A08FB7F89499271092EE021092ED021092D5
S11320B0A3031092A203109214021092130210921E
S11320C0DB021092DA028FBFC3C02FB7F894332714
S11320D08091790280930A0282E0809310022FBFDC
S11320E080910A02882309F0B3C0209A289A80912B
S11320F0A403882309F075C08EEF91E0019701963F
S11321000197E1F716982F9886E090E001970196E1
S11321100197E1F7169A289883EC8EBD0DB407FE5B
S1132120FDCF8EB51EBC0DB407FEFDCF8EB5289A2B
S1132130289882EC8EBD0DB407FEFDCF8EB588E0E5
S11321408EBD0DB407FEFDCF8EB5289A8EEF91E0BB
S1132150019701960197E1F728988EEC8EBD0DB496
S113216007FEFDCF8EB58DE48EBD0DB407FEFDCF09
S11321708EB5289A289889EC8EBD0DB407FEFDCF44
S11321808EB587EC8EBD0DB407FEFDCF8EB5289AB3
S1132190289885EC8EBD0DB407FEFDCF8EB580E882
S11321A08EBD0DB407FEFDCF8EB5289A1092AA02FB
S11321B08AE180936402289888EC8EBD0DB407FEF2
S11321C0FDCF8EB58AE78EBD0DB407FEFDCF8EB56B
S11321D0289A2F9A81E08093A40380E00E949B04B4
S11321E037C00E94C50B34C02FBF32C090910F037B
S11321F0852F8923B9F0E42FFF27EE0FFF1FE2524A
S1132200FD4F2081318111821082852F8095982382
S113221090930F03442331F423533240B1F41092CA
S11322200C0213C04F5F483098F4550FDFCF8091F4
S11322300B02E82FFF27EE0FFF1FE252FD4F6081D4
S1132240718141E00E94BF0C03C0550F41E0CECF25
S113225029960FB6F894DEBF0FBECDBFDF91CF91A4
S11322601F910F91FF90EF90DF90CF90BF90AF90B0
S11322709F908F907F906F905F904F903F902F90A2
S1132280089580910B038F3FB1F0282F3327F90174
S1132290E95DFD4F808180930B038F3F11F48093A0
S11322A0AA038FEF80832F3F31F0822F0E94A10D6C
S11322B081E090E0089580E090E008951F931FB7B7
S11322C0F89414BE88E10FB6F894809360001092DD
S11322D060000FBE4CE050E06FEF70E087E292E0E8
S11322E00E94D5148FEF80930B038093AA03569812
S11322F05E9854985C9880916F008F7D80936F00F6
S1132300209A289A279A2F980E9A169A8BE792E089
S11323109093200280931F02109275028AE58093A5
S1132320690281E08093810080E28093B60083E0BB
S11323308093B10080918400909185004AE72091B8
S11323408400309185002817390708F4415044234C
S113235011F0C901F4CF9091B2008091B2008917B5
S1132360E1F320918400309185009091B200809136
S1132370B2008917E1F38091840090918500821B5B
S1132380930B4096B5E096958795BA95E1F79093AF
S11323900D0380930C031092B1008091B1008093DF
S11323A08100809181008093B6001092B200109257
S11323B08500109284008FEF87BB87B386BB809122
S11323C0B6008571E1F70A9A099A089A129A119A45
S11323D0109A18B88FEF87B90C981498109285004A
S11323E01092840080916F00816080936F008091CF
S11323F08100887F8260809381000E94411188233C
S1132400E1F78FEF8093780280E00E94EE00209144
S11324100002309101022F5F3F4FC901AA27BB2759
S11324208093710290937202A0937302B09374022A
S113243085E193E090931602809315028F96909312
S113244018028093170283E793E090931A02809313
S113245019028FEF9FEF9093FE028093FD029093F9
S113246000038093FF0290930203809301039093EF
S113247004038093030390930603809305038091E0
S113248000028295807F809311028FEF809368020F
S11324908091B60080628093B6008091B60081FD81
S11324A0FCCF82E08093B0008091B60080FDFCCF29
S11324B083E08093B1008091B60083FDFCCF86EE6B
S11324C08093B300809170008260809370000E94BA
S11324D030020E9441118823E1F7812F99278FBF91
S11324E078940E945A0C8FB7F894482F552757C0F8
S11324F080917000992783709070892B19F4E5E01E
S1132500F0E014C08091B6008A71E1F78091B300C5
S11325109091B200891B8C3038F08091B200853FD5
S113252018F4E3E0F0E002C0E2E0F0E080916E0035
S1132530867009F580916F008E72E9F480917100C4
S11325408E72C9F40CB407FC16C08091C100887166
S113255091F48091C900887171F48091BC0082FD6E
S11325600AC080917A0087FF03C081E090E005C033
S113257085E090E002C080E090E023B78E1708F475
S1132580E82FFF27E453FF4FE491207F2160E22BE3
S1132590E3BF78948895F89483B78E7F83BF809146
S11325A00B038F3F09F4A4CF282F3327F901E95DEA
S11325B0FD4F808180930B038F3F11F48093AA0316
S11325C08FEF80832F3F09F493CF4FBF822F0E9458
S11325D0A10D89CFACE2B0E0E0EFF2E10C949E14DF
S11325E0222E332E442E552E662E772E882E992E8B
S11325F0FE013196A8E01192AA95E9F729823A8260
S11326004B825C826D827E828F829886FE0139962F
S1132610B8E01192BA95E9F7A986BA86CB86DC862A
S1132620ED86FE860F87188B89819A81AB81BC81E8
S113263089A79AA7ABA7BCA77C018D018FEF9FEF59
S1132640A0E0B0E0E822F9220A231B2389A59AA579
S1132650ABA5BCA51D014424552489859A85AB8569
S1132660BC858DA39EA3AFA3B8A75C016D018FEFBA
S11326709FEFA0E0B0E0A822B922CA22DB228DA1FC
S11326809EA1AFA1B8A53D0188249924C801B70132
S1132690A60195010E947F1469A37AA38BA39CA32E
S11326A0C801B701A40193010E947F147B018C012E
S11326B0C201B101A60195010E947F145B016C0166
S11326C0C201B101A40193010E947F143B014C019A
S11326D0EA0CFB1C0C1D1D1D89A19AA1ABA1BCA178
S11326E09D01442755272E0D3F1D401F511F2A15BC
S11326F03B054C055D0540F480E090E0A1E0B0E0CE
S1132700680E791E8A1E9B1ECA01AA27BB27860D46
S1132710971DA81DB91D8D8F9E8FAF8FB8A3A901DA
S11327203327222789A19AA1ABA1BCA1A070B070C4
S1132730280F391F4A1F5B1F298F3A8F4B8F5C8FDD
S1132740A98CBA8CCB8CDC8CED8CFE8C0F8D18A1F3
S1132750FE01719698E011929A95E9F7ED8AFE8A46
S11327600F8B188F2D813E814F8158856DA17EA1DD
S11327708FA198A50E947F143B014C012D853E85B5
S11327804F85588969A57AA58BA59CA50E947F14BD
S11327902D893E894F89588D260F371F481F591F91
S11327A0260D371D481D591D2D8B3E8B4F8B588F81
S11327B06D887E888F88988C2A2D3B2D4C2D5D2D1D
S11327C0662D772D882D992DE2E1AC960C94BA14E0
S11327D0A0E1B0E0EEEEF3E10C949E14222E332E31
S11327E0442E552E662E772E882E992E002309F41A
S11327F066C088E0FE01319611928A95E9F7298333
S11328003A834B835C836D837E838F829887E0E277
S1132810E01B1E16CCF52D813E814F815885602F1B
S1132820772767FD7095DA01C901062E04C0B695B5
S1132830A795979587950A94D2F78D879E87AF873A
S1132840B88B04C0220F331F441F551FEA95D2F7DB
S113285089819A81AB81BC8104C0B695A79597956F
S113286087956A95D2F7282B392B4A2B5B2B29871E
S11328703A874B875C8729843A844B845C846D84D3
S11328807E848F8498881BC01D861E861F86188AA6
S11328902E2F332727FD3095309521953F4F8D817D
S11328A09E81AF81B88504C0B695A7959795879505
S11328B02A95D2F789879A87AB87BC87DCCF222DEC
S11328C0332D442D552D662D772D882D992DE2E13C
S11328D060960C94BA14AA1BBB1B51E107C0AA1F33
S11328E0BB1FA617B70710F0A61BB70B881F991FAD
S11328F05A95A9F780959095BC01CD010895629FE2
S1132900D001739FF001829FE00DF11D649FE00DE3
S1132910F11D929FF00D839FF00D749FF00D659F44
S1132920F00D9927729FB00DE11DF91F639FB00D43
S1132930E11DF91FBD01CF01112408952F923F928B
S11329404F925F926F927F928F929F92AF92BF92BB
S1132950CF92DF92EF92FF920F931F93CF93DF9367
S1132960CDB7DEB7CA1BDB0B0FB6F894DEBF0FBEC4
S1132970CDBF09942A88398848885F846E847D8411
S11329808C849B84AA84B984C884DF80EE80FD8013
S11329900C811B81AA81B981CE0FD11D0FB6F89489
S11329A0DEBF0FBECDBFED010895DC0101C06D9304
S10D29B041505040E0F70895FFCFB6
S10F29BA0100010022FFFFFFFFFFFF01EE
S9030000FC
