S01700006275696C642F697269732F6D61696E2E7372656343
S11300000C9469000C9488000C9488000C9488006B
S11300100C9488000C9488000C9488000C9488003C
S11300200C9488000C9488000C9488000C9488002C
S11300300C9488000C9425040C9488000C942A03D6
S11300400C949E0B0C94D40B0C94E1030C94EC03D1
S11300500C94F7030C9488000C9488000C9488008A
S11300600C943E030C9488000C9488000C94880033
S11300700C9488000C9488000C9488000C948800DC
S11300800C9488000C9488000C9488000C948800CC
S11300900C9488000C9488000C9488000C948800BC
S11300A00C9488000C9488000C9488000C948800AC
S11300B00C9488000C9488000C9488000C9488009C
S11300C00C9488000C9488000C94880000020E069E
S11300D00C0411241FBECFEFD1E2DEBFCDBF12E06E
S11300E0A0E0B2E0E6EFF9E200E00BBF02C0079047
S11300F00D92AC30B107D9F713E0ACE0B2E001C027
S11301001D92A13BB107E1F70E947C110C94FA14F3
S11301100C9400008FB7F894992708958FBF089521
S1130120282F9FB7F894E82FFF27E85DFD4F8081C3
S11301308F3F81F4E091A903E21771F40BC020937F
S11301400A0304C0FF27E85DFD4F20832093A90321
S113015020E007C025E005C080910A038F3F91F796
S1130160EECF892F99278FBF822F9927089588234F
S113017019F08CB5806402C08CB58F7B8CBD08955A
S1130180882319F08CB5806802C08CB58F778CBD3C
S113019008950F931F9380E00E94B7000FB7F8945F
S11301A01127229A2398219A209A8CB580618CBDBC
S11301B080E00E94C0008CB5877F8CBD8CB58B7F9E
S11301C08CBD81E00E94B7008DB581608DBD8CB57A
S11301D08C7F8CBD0FBF1F910F910895FB0121E00F
S11301E030E002C0220F331F8A95E2F784A5822BE8
S11301F084A708958FB7F8942091DF023091E0022C
S11302004091E1025091E202E0918400F091850076
S1130210B09B08C02F5F3F4F4F4F5F4FE09184006A
S1130220F091850099278FBFC901772766279F0121
S113023044275527622B732B842B952B0895FC019F
S113024082819927982F882721813327822B932B0A
S113025025E0969587952A95E1F781709070089529
S1130260AC01EFB7F8942091840030918500C90166
S1130270841B950B03968617970720F0B9016D5FD1
S11302807F4F02C0640F751F6115710511F461E0A1
S113029070E061507040709389006093880082E040
S11302A086BB80916F00826080936F008E2F9927A8
S11302B08FBF0895CF93DF93EC010E941F01882321
S11302C039F18A8129819927982F88273327822B0E
S11302D0932B87749C7C81549848D1F48F814E81F0
S11302E02FB7F894332760910202709103022FBF55
S11302F020E09927982F88275527842B952B86173C
S1130300970709F021E081E02827822F992702C06E
S113031080E090E0DF91CF910895FB0121E030E08F
S113032002C0220F331F8A95E2F784A582239927FE
S11303300895EF92FF920F931F937C018FB7F89467
S113034099270091F3021091F4020F5E1E4F10934F
S1130350F4020093F302015111408FBF86E00E9422
S11303609000C801B7010E9489148A5D9E4F1F91B5
S11303700F91FF90EF9008951F93982F1FB7F89453
S113038080911002823099F580910702891779F5DE
S11303908091050220E030E08F3F11F421E030E04D
S11303A0232BF1F49FEF909307028F3F19F42FEF63
S11303B030E00DC0282F3327F901E759FD4F808124
S11303C0809305028F3F11F490930602908320934B
S11303D0660281E08093100282E00E94900005C0D2
S11303E08FEF809307021092100221E001C020E0F9
S11303F0812F99278FBF90E0213009F491E081E0AB
S11304009827892F99271F9108950F931F93982F49
S11304101FB7F89480911102823099F580910A02F5
S1130420891779F58091080220E030E08F3F11F4BC
S113043021E030E0232BF1F49FEF90930A028F3FE9
S113044019F42FEF30E00DC0282F3327F901E958B4
S1130450FD4F8081809308028F3F11F4909309022D
S113046090832093780281E08093110289E00E94B6
S1130470900005C08FEF80930A021092110201E0F0
S113048001C000E0812F99278FBF1FB7F894809196
S11304901102882311F40E94B700812F99278FBF7E
S11304A090E0013009F491E081E09827892F9927A1
S11304B01F910F9108957FB7F8946091B200209135
S11304C02302309124024091250250912602B99BC7
S11304D011C08091B3009091B200280F311D411DCD
S11304E0511D2F5F3F4F4F4F5F4F290F311D411D4E
S11304F0511D04C0260F311D411D511D872F992701
S11305008FBFCA01B9010895DF92EF92FF920F9352
S11305101F938FB7F894282F3327D22E9091B300CE
S11305208091B20047B3981711F041FF02C02FBF6A
S113053071C080916F028823E1F10E945B02E09018
S11305401C02F0901D0200911E0210911F022091C6
S11305500F033091100340911103509112036E194F
S11305607F09800B910B621773078407950720F0AE
S113057010926F0271E01EC02E0D3F1D401F511FCF
S11305808091230290912402A0912502B091260229
S1130590281B390B4A0B5B0B273E310541055105DE
S11305A040F4822F223010F070E005C070E082E049
S11305B002C070E086EE682F61508091B60083FD22
S11305C0FCCF8091B200681709F46F5F2091230279
S11305D0309124024091250250912602DA01C9018A
S11305E00196A11DB11D860F911DA11DB11D82177C
S11305F09307A407B50710F4622F60958091B600A5
S113060083FDFCCF6093B300DFBE772319F080E055
S11306100E9490001F910F91FF90EF90DF9008953A
S1130620AFB7F894BB27E1E0E0936F0260931C023C
S113063070931D0280931E0290931F0220930F0358
S1130640309310034093110350931203AFBF0E94E1
S1130650840208951F920F920FB60F9211248F9364
S11306608091B0008093B0008091B60081FDFCCFF2
S11306708F910F900FBE0F901F9018951F920F929D
S11306800FB60F9211240F931F932F933F934F9301
S11306905F936F937F938F939F93AF93BF93CF9306
S11306A0DF93EF93FF932EB5E091EC02F091ED020E
S11306B0309739F08091D9029091DA02E80FF91F4E
S11306C020838091D9029091DA0201969093DA0204
S11306D08093D90280E00E94C000C091D902D091D9
S11306E0DA022091140230911502C217D30708F0E0
S11306F042C00091A1031091A2034091EC025091D9
S1130700ED02CE010A962817390708F4C901DA0167
S1130710AC0FBD1FF801EC0FFD1F9C0121503040B0
S113072015C00115110531F080818EBD0DB407FE91
S1130730FDCF04C01EBC0DB407FEFDCF8EB5411520
S1130740510509F08C93219611963196C217D3075F
S113075040F381E00E94C0000115110531F00C0F37
S11307601D1FF80180818EBD01C01EBCD093DA022A
S1130770C093D90211C01092ED021092EC021092B3
S1130780A2031092A1031092150210921402109267
S1130790DA021092D9028EB5FF91EF91DF91CF91D9
S11307A0BF91AF919F918F917F916F915F914F9185
S11307B03F912F911F910F910F900FBE0F901F909B
S11307C0189578941F920F920FB60F9211240F90E0
S11307D00FBE0F901F90189578941F920F920FB62A
S11307E00F9211240F900FBE0F901F9018957894BC
S11307F01F920F920FB60F9211242F933F938F9352
S11308009F93AF93BF932FB7F89433278091DF0260
S11308109091E002A091E102B091E2020196A11D43
S1130820B11D8093DF029093E002A093E102B093A4
S1130830E2022FBFBF91AF919F918F913F912F9172
S11308400F900FBE0F901F9018951F920F920FB626
S11308500F9211242F933F934F935F936F937F9342
S11308608F939F93AF93BF93EF93FF938091B000C7
S11308708093B0008091B60081FDFCCF8091B300DD
S113088099270196AA27BB2720912302309124029D
S11308904091250250912602280F391F4A1F5B1FE1
S11308A0209323023093240240932502509326027E
S11308B078940E948402FF91EF91BF91AF919F9130
S11308C08F917F916F915F914F913F912F910F90F5
S11308D00FBE0F901F90189521E02093790220936A
S11308E0EE022091840030918500BC01C9010E9470
S11308F0300108950F931F93CF93DF93182F0FB7F1
S1130900F89480911102882311F40E94C900802F69
S113091099278FBF8FB7F894C82FDD272C2F80918C
S11309201102882361F481E080931102109378020C
S113093089E00E949000CFBF80E090E021C0E12FC9
S1130940FF27E958FD4F80818F3F89F4E091090228
S1130950E11789F40CC01093080204C0FF27E9587A
S1130960FD4F10831093090280E090E002C085E0FF
S113097090E02FBF05C0809108028F3F79F7EBCF3D
S1130980DF91CF911F910F9108958FB7F894282F7D
S11309903327922F80910A02882331F48091110227
S11309A0823011F42FBF13C09FBF8FB7F894282F44
S11309B0332780911102882369F482E08093110225
S11309C010920A022FBF0E94C900209A289A81E03F
S11309D090E008952FBF80E00E947A0480E090E0C8
S11309E0089580916D02823031F481E080936D022C
S11309F084E00E949000089580931303882311F4E7
S1130A0084E001C081E080936D0284E00E94900044
S1130A1008954F925F926F927F928F929F92AF92BE
S1130A20BF92CF92DF92EF92FF920F931F93CF93D7
S1130A30DF932C0180911302882309F083C18091F4
S1130A40A303853009F07EC10E94C504882309F4FC
S1130A5079C18091FB02882309F074C1B20182E05C
S1130A600E948D01882311F490E003C0F20196A541
S1130A709F708091A902981781F09093A9022898F9
S1130A8085EC8EBD0DB407FEFDCF8EB590689EBD7E
S1130A900DB407FEFDCF8EB5289AE2012196898117
S1130AA0F201218140E09927982F88273327822B50
S1130AB0932B87749C7C8154984809F441E0442327
S1130AC001F1289886E88EBD0DB407FEFDCF8EB5E2
S1130AD01EBC0DB407FEFDCF8EB5289A99278F71E1
S1130AE090702091740240916A02240F312D311DBF
S1130AF043E0359527954A95E1F7281739070CF413
S1130B0021C1289882EC8EBD0DB407FEFDCF8EB5B1
S1130B1089E08EBD0DB407FEFDCF8EB5289A0E94E4
S1130B20FA007B018C01B20184E00E948D018823CC
S1130B3019F4E0E0F0E006C0D2018C918550F20196
S1130B40E80FF11D289881E88EBD0DB407FEFDCF96
S1130B508EB51EBC0DB407FEFDCF8EB5289A8F71DD
S1130B60893079F0289882EC8EBD0DB407FEFDCF54
S1130B708EB586E08EBD0DB407FEFDCF8EB5289AE6
S1130B80E1C08FB7F89499272F9A2091840030916F
S1130B9085008FBF2F98289880E68EBDD2019C9146
S1130BA00DB407FEFDCF8EB59EBD792F7250773000
S1130BB010F4672F01C067E0DE01962F4D910DB44C
S1130BC007FEFDCF8EB54EBD9150C1F76150C60FE3
S1130BD0D11D6F5F21962E193F092E553F4F3901C4
S1130BE0882477FC8094982C6E0C7F1C801E911EA8
S1130BF0309719F4972F961B42C02081E18082819F
S1130C00A3809927AA27BB27BA2FA92F982F882713
S1130C10332744275527522F442733272227FF24DD
S1130C20002711278701FF24EE242E293F29402B7A
S1130C30512BBB24CC24DD242A293B294C295D29B2
S1130C40822B932BA42BB52B86199709A809B909D4
S1130C508383292F3A2F4B2F552722839D01442725
S1130C60552721838B2F9927AA27BB278083C2CF9F
S1130C7028810DB407FEFDCF21968EB52EBD91506F
S1130C80B8F70DB407FEFDCF8EB5289A289882ECEC
S1130C908EBD0DB407FEFDCF8EB586E08EBD0DB4BE
S1130CA007FEFDCF8EB5289A3097D1F12081E180DF
S1130CB08281A3809927AA27BB27BA2FA92F982F0F
S1130CC08827332744275527522F442733272227A1
S1130CD0FF24002711278701FF24EE242E293F2912
S1130CE0402B512BBB24CC24DD242A293B294C291D
S1130CF05D29822B932BA42BB52B860D971DA81D44
S1130D00B91D8383292F3A2F4B2F552722839D0109
S1130D104427552721838B2F9927AA27BB27808314
S1130D20B20181E00E94EE00F20160A671A682A6E3
S1130D3093A686E08093A30384E08093130280E06B
S1130D4090E002C085E090E0DF91CF911F910F9178
S1130D50FF90EF90DF90CF90BF90AF909F908F90D7
S1130D607F906F905F904F900895AF92BF92CF9213
S1130D70DF92EF92FF920F931F93CF93DF938091B3
S1130D80FB02882309F402C10E94C504882309F4E4
S1130D90FDC08FB7F8949927C0917502D09176025F
S1130DA08FBF1092FB0228988FE88EBD0DB407FE0A
S1130DB0FDCF8EB51EBC0DB407FEFDCF8EB5289AAF
S1130DC0982F80911302833011F0873031F485E03D
S1130DD08093A30388E080931302A92EBB24A2FE70
S1130DE063C080911302863019F41092130203C079
S1130DF0882309F059C0943009F045C0289886E842
S1130E008EBD0DB407FEFDCF8EB51EBC0DB407FE1E
S1130E10FDCFFEB4289A2FE1F22280916A02982F26
S1130E2096959695EF2DE91B8E0F80936A0200919B
S1130E30200210912102F80184A58B7F84A7B801B8
S1130E4083E00E94EE00F801F6A60E94FA007B01FE
S1130E508C01C0902002D0902102B60181E00E9452
S1130E60EE00CE19DF092797CE01AA2797FDA0959A
S1130E70BA2F8E0D9F1DA01FB11FF60180A791A749
S1130E80A2A7B3A70EC0E0912002F091210284A58D
S1130E90877F84A7E0912002F091210284A58D7FB1
S1130EA084A785E080931302A3FE70C0809113028F
S1130EB0843009F04EC085E08093A303109213029E
S1130EC080912202833019F4109222025FC0C091F3
S1130ED0AA03D091AB03CE010E941F01882389F19C
S1130EE08A8129819927982F88273327822B932B4E
S1130EF087749C7C8154984821F58F812E81992791
S1130F00982F88273327822B932B8F5F9F4FC9F00D
S1130F1090E08091EE02882309F491E0992389F00E
S1130F2012E01093790281E08093EE0280918400B4
S1130F309091850069E973E00E94300110932202C8
S1130F4025C01092220210926E0280E00E94FC04DE
S1130F501DC08530D9F420917402289886E88EBD8E
S1130F600DB407FEFDCF8EB51EBC0DB407FEFDCF3C
S1130F708EB5289A8F71922F96959695891B280F76
S1130F802093740289E08093130208C090911302A5
S1130F90992309F4E5C2993009F012C2289880E235
S1130FA08EBD0DB407FEFDCF8EB51EBC0DB407FE7D
S1130FB0FDCF8EB5482F5527433008F496C3842FB0
S1130FC099278A970CF091C31EBCE0912002F091FE
S1130FD021024083542F5250573010F4452F01C042
S1130FE047E0DF011196242FFD0160E070E00DB4AD
S1130FF007FEFDCF8EB51EBC992781936827062E68
S11310006295607F6025072E762F62956F700626A5
S1131010669576276727660F660F660F6025215051
S113102031F74150A40FB11D4F5F1196E09120029A
S1131030F0912102818190E08770823009F491E07F
S1131040992349F020E030E080912202823081F43B
S113105021E030E00DC08FB7F894282F332790E0BB
S11310608091F502833008F491E02FBF292F3327B4
S1131070232B09F45CC0952F941B18C00DB407FEF4
S1131080FDCF8EB51EBC8C938D916827062E62957C
S1131090607F6025072E762F62956F700626669511
S11310A076276727660F660F660F6025915030F725
S11310B00DB407FEFDCF8EB51EBC9B012827022E62
S11310C02295207F2025032E322F22952F70022671
S11310D0269532272327220F220F220F20250DB415
S11310E007FEFDCF8EB51EBC2827022E2295207F39
S11310F02025032E322F22952F7002262695322783
S11311002327220F220F220F20250DB407FEFDCF27
S11311108EB5E0912002F091210285A7289A15E06E
S11311201093A30310921302232B31F015C20DB4B4
S113113007FEFDCF8EB5D9C2E0902002F0902102C7
S113114067010894C11CD11CF701818190E0282F0C
S11311503327277030702230310509F491E08091F3
S11311602202992321F1823009F025C1F7019381EC
S1131170E091AA03F091AB038381981709F01BC196
S11311802230310509F017C180916F008D7F809363
S11311906F001092EE02BF0180E00E94EE001092F8
S11311A0220210926E0280E00E94FC0404C1882393
S11311B0C9F4C7010E945A018823A1F01093AA021E
S11311C082E08093AB021092AC02F701838180939A
S11311D0AD028AEA92E00E940905882319F483E0AB
S11311E0809322020091840010918500C7010E941F
S11311F05A01882311F0045E1C4F1093DC02009303
S1131200DB0280918400909185009801281B390BA2
S113121012161306A4F480916E02882369F490E0F8
S11312208091EE02882309F491E0992341F0C901E9
S11312300E946C0480E801C0806880936E02F6010D
S1131240808527819927582F44273327422B532BF6
S113125080912702282F3327F901EE0FFF1FE45056
S1131260FD4F808191817091EF028417950769F495
S1131270F901EC55FC4F8081871709F467C0872F6B
S11312808F5F8093EF0280831DC000E010E080E058
S113129090E0CCEFD2E0E4EAF3E0DF01682F9C01B8
S11312A0888199818417950779F420932702909176
S11312B0EF028C91891709F449C0892F8F5F8093BD
S11312C0EF028C9300E829C08081972F981B09179F
S11312D010F4092F122F6F5FC901019611962296FF
S11312E0319685309105D1F66530B9F41093270213
S11312F0A12FBB27FD01EE0FFF1FE450FD4F5183CB
S113130040838091EF028F5F8093EF02FD01EC55E3
S1131310FC4F8083A455BC4F1C929091EF02892FFF
S11313208F778F3779F40F3768F0E4EAF3E0292FE9
S1131330207880818F6789132083319683E0E93A8E
S1131340F807B9F780912702282F3327F6019281F5
S1131350A22FBB27FD01E455FC4F808180FF07C00D
S1131360FD01EA50FD4F8081981729F102C0816088
S11313708083AA50BD4F9C93DFB6F8948091F50208
S11313808330B0F4E0910D03E80FE33008F0E3504C
S1131390FF27EE0FFF1FEA5EFD4F00811181F182EE
S11313A0E0828F5F8093F50285E00E9490007801CF
S11313B08D2D99278FBFF0922102E0922002C3C0A5
S11313C0892F8150833008F09CC081508230E0F432
S11313D03091A3033130C1F420E08091EE028823E0
S11313E009F421E0222381F02F9883E0809379028D
S11313F03093EE0280918400909185006BE273E05B
S11314000E94300182E068C0933009F042C08091AC
S1131410A303833009F097C00E94C5048823C9F14F
S113142028988FE88EBD0DB407FEFDCF8EB51EBC87
S11314300DB407FEFDCF8EB5289A8091810080649B
S11314408093810080E286BB80916F0080628093EC
S11314506F0090916502289888EC8EBD0DB407FE4C
S1131460FDCF8EB590669EBD0DB407FEFDCF8EB543
S1131470289A289882EC8EBD0DB407FEFDCF8EB558
S113148086E08EBD0DB407FEFDCF8EB5289A84E0AC
S113149023C0809113028150823000F58091A30310
S11314A08530E1F40E94C5048823C1F0289882ECB9
S11314B08EBD0DB407FEFDCF8EB583E08EBD0DB499
S11314C007FEFDCF8EB5289A80916F008F7D8093A3
S11314D06F001092FB0283E08093A30390911302A8
S11314E0913041F48091A3038330B1F52F9A909306
S11314F0A30325C0923039F58091A303833061F5AD
S11315001EC0973001F50E94C5048823E1F0909134
S11315106502289888EC8EBD0DB407FEFDCF8EB50C
S113152090669EBD0DB407FEFDCF8EB5289A8091BE
S1131530A303853021F484E08093A30304C088E0EE
S11315408093130204C080911302883029F410920E
S1131550130283E00E94900080911302882309F50E
S11315608091A3038530D1F48091FB028823B1F4E8
S113157080912202882391F480916E02882371F471
S113158090E08091EE02882309F491E0992331F0F0
S11315900E94F10480911302882319F487E00E94C9
S11315A090008091EE02823009F092C01092EE0217
S11315B0F0907902F2E0FF1609F466C023E0F21617
S11315C009F46AC081E0F81609F082C02091DB02B8
S11315D03091DC02809184009091850040916E02EC
S11315E0403829F410926E020E94F10471C08901FE
S11315F0081B190B47FF03C010161106ECF0C0912D
S11316006B02D0916C02809122028823A9F4CE014E
S11316100E9409059927882351F48CA58E7F8CA7F5
S1131620F0922202D093AB03C093AA0329C0992756
S1131630F82E882329F102C065E0F62E20916E026F
S1131640822F99278F77019759F42078226020936D
S11316506E0280E198E00E9499010E946C0438C0F7
S113166027FF0AC0101611063CF480E880936E022E
S1131670C8010E946C0402C010926E028F2D09C032
S113168083E080936E0224C01092220210926E02B4
S113169080E00E94FC041CC08091A303823019F4F2
S11316A0F092A30313C080911302863079F4109250
S11316B01302289881E88EBD0DB407FEFDCF8EB5C8
S11316C01EBC0DB407FEFDCF8EB5289A0E948A0B6E
S11316D08FB7F894282F332780916402813061F00A
S11316E081E0809364022FBF4ACB289A85E08093DF
S11316F0A3031092130230CF109264022FBFDF9124
S1131700CF911F910F91FF90EF90DF90CF90BF90FA
S1131710AF9008958FB7F894282F332780916402EF
S1131720882329F08068809364022FBF089581E0A4
S1131730809364022FBF0E94B506089578941F9287
S11317400F920FB60F9211242F933F934F935F93F1
S11317506F937F938F939F93AF93BF93EF93FF9375
S1131760E6E8F0E080819181208131818FB7F8949F
S11317709927309376022093750221E02093FB028F
S11317808FBF0E948A0BFF91EF91BF91AF919F9100
S11317908F917F916F915F914F913F912F910F9016
S11317A00FBE0F901F90189578941F920F920FB64A
S11317B00F9211242F933F934F935F936F937F93D3
S11317C08F939F93AF93BF93EF93FF9380916F0099
S11317D08D7F80936F0078949FB7F8948091EE0288
S11317E0813019F482E08093EE02892F99278FBF0C
S11317F00E948A0BFF91EF91BF91AF919F918F91BE
S11318007F916F915F914F913F912F910F900FBEF8
S11318100F901F9018958FB7F894282F3327809135
S11318206402815080936402803811F02FBF0895C0
S113183081E0809364022FBF0E94B50608951F9330
S11318408FB7F8949927209164022F5F2093640244
S11318508FBF80916D02882311F015E023C0809121
S113186013028823E1F48091A303813049F490E0CA
S11318708091EE02882309F491E0992381F005C058
S1131880853019F489E090E00CC083E08093130262
S11318900E948A0B85E080936D0210E003C085E00E
S11318A090E0182F0E940B0C812F99271F91089507
S11318B01F93FC018FE38287809112028F5F8093D4
S11318C0120283832FB7F8943327809164028F5FC9
S11318D0809364022FBF80916D02882311F015E07C
S11318E00DC0F093F202E093F10281E080936D0267
S11318F01092F00284E00E94900010E00E940B0C11
S1131900812F99271F9108951F93CF93DF93182F49
S1131910FA01A22F2D3118F086E090E08EC0EA0182
S1131920219689812181B0E09927582F44273327B4
S1131930422B532BCA0187749C7C8154984809F428
S1131940B1E0BB2349F4CA01807390708164986844
S11319508183892F99278983A35FA0832FB7F89464
S1131960332780910202909103022FBF8087892F31
S1131970992781872FB7F8943327809104022FBFCA
S113198099278483158213876683872F99278783F2
S11319908FB7F894282F332780911002882371F48D
S11319A082E080931002109207022FBFCF010E94A1
S11319B0580C9927182F882399F00FC02FBFF09344
S11319C06802E09367028FB7F894C82FDD272C2FA5
S11319D080911002882399F406C080E00E94BC0123
S11319E0812F99272AC081E0809310021092660209
S11319F082E00E949000CFBF80E090E01EC0809102
S1131A0069028F3F89F4E0910602EE2369F010C069
S1131A101092050204C0FF27E759FD4F108210926F
S1131A20060280E090E002C085E090E02FBF05C090
S1131A30809105028F3F79F7EBCFDF91CF911F9112
S1131A400895EF92FF920F931F93E091EB02E1FF51
S1131A507EC02091E3023091E4024091E50250916E
S1131A60E602E090E702F090E8020091E9021091AA
S1131A70EA02621B730B840B950B6E157F058007BE
S1131A80910708F464C0E0FF04C0ED7FE093EB022B
S1131A900CC02E0D3F1D401F511F2093E3023093B5
S1131AA0E4024093E5025093E60220910D02309146
S1131AB00E022F5F3F4F30930E0220930D02809150
S1131AC00C02882309F043C0809100029091010226
S1131AD080934102892F99278093400220934302E7
S1131AE0832F9927809342028FEF80933A02809349
S1131AF03B0286E080933F028091DD029091DE02FA
S1131B00892B29F544E352E05093DE024093DD0231
S1131B1081E18093340280910B028823A9F0109212
S1131B200B0224E06FEF7FEF86E00E94840C99277C
S1131B30282F882349F081E080930B021092DE0263
S1131B401092DD02222319F481E080930C0281E0DB
S1131B500E9490001F910F91FF90EF9008951F93A2
S1131B60CF93DF93182FEB01E82FFF27EE0FFF1F12
S1131B70E352FD4F1182108210920B02E091DD02BC
S1131B80F091DE02309721F080910E0380FF0FC0A8
S1131B9081E080930B0203C08BE00E94900011232C
S1131BA0C1F4C453D240A9F410920C0212C0208193
S1131BB02D50332767817727762F662786819927CB
S1131BC0682B792BAF0183850E94840C882339F319
S1131BD0E3CFDF91CF911F9108952F923F924F92BF
S1131BE05F926F927F928F929F92AF92BF92CF92A9
S1131BF0DF92EF92FF920F931F93CF93DF93CDB7B2
S1131C00DEB729970FB6F894DEBF0FBECDBFD82E2E
S1131C1025E0821709F476C12817B0F032E0831763
S1131C2009F4B3C0381738F0882381F141E08417F0
S1131C3009F02CC35EC053E0851709F4D6C064E0F4
S1131C40861709F023C300C188E0D81609F446C2F8
S1131C508D1548F0E6E0DE1609F4E4C1F7E0DF167E
S1131C6009F014C3D8C22AE0D21641F0D21608F4FF
S1131C704AC23BE0D31609F009C3F7C280910E03B0
S1131C80882309F403C340E051E0CEC2809163028B
S1131C90882361F5209106033091070340910803DE
S1131CA050910903EFB7F894FF2760911C027091DB
S1131CB01D0280911E0290911F02E0900F03F0908C
S1131CC0100300911103109112036E0D7F1D801FEC
S1131CD0911FEFBF2093060330930703409308033B
S1131CE050930903109263020E9410030E945B0246
S1131CF03AC00E945B027B018C018FB7F89499274C
S1131D0010926F028FBF8091EB0281FFBFC280915E
S1131D10E3029091E402A091E502B091E602A801E9
S1131D209701281B390B4A0B5B0BDA01C90120917F
S1131D30E7023091E8024091E9025091EA02281B3F
S1131D40390B4A0B5B0B2F3F6FEF36076FEF4607DC
S1131D506FE7560709F49AC21216130614061506FD
S1131D602CF0C801B7010E94210D90C220930603F4
S1131D70309307034093080350930903D0926302FE
S1131D80C801B7010E94100381C28FB7F894992744
S1131D902091660220930702D09210028FBF809197
S1131DA00702882309F072C2809167029091680249
S1131DB00E94580C082F1127002309F467C280E001
S1131DC00E94BC01209167023091680280910B024D
S1131DD0882309F05BC26091DD027091DE02621714
S1131DE0730709F053C2402F4BC280916D021092C9
S1131DF06D02853001F50E945B026093E3027093EB
S1131E00E4028093E5029093E6028AEF90E0A0E07A
S1131E10B0E08093E7029093E802A093E902B093C4
S1131E20EA028091EB028E7F82608093EB0281E074
S1131E300E9490002BC2863009F428C2873009F42E
S1131E4025C280936D0222C22FB7F8943327809164
S1131E5064028F5F809364022FBF40916D02413012
S1131E6081F58091F0028F5F8093F002863048F50F
S1131E702091F1023091F20280916E028823C1F424
S1131E8090E08091EE02882309F491E0992381F097
S1131E9030936C0220936B0240936E028BED91E1C0
S1131EA00E9499010E946C041092130383E004C001
S1131EB085E08093130382E080936D020E940B0CF3
S1131EC0E5C110926D020E940B0C10911303E09077
S1131ED0F102F090F202F70182858F3309F0D6C146
S1131EE080E00E94BC0180910B02882309F0CEC1DE
S1131EF06091DD027091DE026E157F0509F0C6C1A6
S1131F00412FBEC18FB7F894282F33278091F50253
S1131F10882309F487C1E0910D03FF27EE0FFF1F0B
S1131F20EA5EFD4FA081B1812FBFFD0182859781BB
S1131F3026818F3309F040C06385892F9927582F54
S1131F404427822F9927482B592B8FB7F894992728
S1131F5020910202309103028FBF4217530721F0F0
S1131F604F5F5F4F09F042C0663009F03FC0FD018A
S1131F7086A580930F022FB7F894332782B194E09B
S1131F80892782B92FBF80910F02883008F42EC0B0
S1131F902FB7F894332782B191E0892782B92FBFF4
S1131FA080910F02803110F18FB7F894992722B1F4
S1131FB032E0232722B919C0892F9927582F4427A3
S1131FC0822F9927482B592B8FB7F8949927209162
S1131FD00202309103028FBF4217530719F04F5F7B
S1131FE05F4F21F48FB7F89499278FBF9FB7F89468
S1131FF080910D03E82FFF27EE0FFF1FEA5EFD4FD0
S1132000B183A0838F5F80930D03833010F010920F
S11320100D038091F50281508093F502892F992751
S11320208FBF70CF2FB72983F8942090700230901F
S113203071024090720250907302662477248824BF
S11320402EE4A22E93E8B92ECC24DD24EE24FF2422
S113205000E010E0222D332D442D552D662D772DD3
S1132060882D90E00E9408132A833B834C835D8370
S11320706E837F8388879987822E932EA42EB52E14
S11320802401350100E20E940614A22EB32EC42EB0
S1132090D52EA301920156954795379527952A0D7C
S11320A03B1D4C1D5D1D57FF05C05F772F5F3F4FE4
S11320B04F4F5F4F2093700230937102409372022E
S11320C0509373026981862F99278FBF8FB7F89435
S11320D099273093F4022093F30213C08FB7F89436
S11320E099271092ED021092EC021092A203109222
S11320F0A10310921502109214021092DA021092A7
S1132100D9028FBFC3C02FB7F894332780917802C8
S113211080930A0282E0809311022FBF80910A0209
S1132120882309F0B3C0209A289A8091A3038823B6
S113213009F075C08EEF91E0019701960197E1F7E0
S113214016982F9886E090E0019701960197E1F7A1
S1132150169A289883EC8EBD0DB407FEFDCF8EB57C
S11321601EBC0DB407FEFDCF8EB5289A289882ECCC
S11321708EBD0DB407FEFDCF8EB588E08EBD0DB4C7
S113218007FEFDCF8EB5289A8EEF91E00197019658
S11321900197E1F728988EEC8EBD0DB407FEFDCFB4
S11321A08EB58DE48EBD0DB407FEFDCF8EB5289A95
S11321B0289889EC8EBD0DB407FEFDCF8EB587EC53
S11321C08EBD0DB407FEFDCF8EB5289A289885ECF8
S11321D08EBD0DB407FEFDCF8EB580E88EBD0DB467
S11321E007FEFDCF8EB5289A1092A9028BE080934A
S11321F06502289888EC8EBD0DB407FEFDCF8EB520
S11322008BE68EBD0DB407FEFDCF8EB5289A2F9AAE
S113221081E08093A30380E00E94050237C00E94FE
S11322208A0B34C02FBF32C090910E03852F8923AF
S1132230B9F0E42FFF27EE0FFF1FE352FD4F20817B
S1132240318111821082852F8095982390930E03FB
S1132250442331F424533240B1F410920C0213C0DD
S11322604F5F483098F4550FDFCF80910B02E82F71
S1132270FF27EE0FFF1FE352FD4F6081718141E0A4
S11322800E94AF0D03C0550F41E0CECF29960FB683
S1132290F894DEBF0FBECDBFDF91CF911F910F9198
S11322A0FF90EF90DF90CF90BF90AF909F908F9072
S11322B07F906F905F904F903F902F900895809102
S11322C00A038F3FB1F0282F3327F901E85DFD4F52
S11322D0808180930A038F3F11F48093A9038FEFC9
S11322E080832F3F31F0822F0E94ED0D81E090E03A
S11322F0089580E090E008951F931FB7F89414BEEA
S113230088E10FB6F89480936000109260000FBECD
S11323104CE050E06FEF70E088E292E00E94F3142A
S11323208FEF80930A038093A90356985E9854987C
S11323305C9880916F008F7D80936F00209A289A1B
S1132340279A2F980E9A169A8AE792E09093210280
S113235080932002109274028AE580936A0281E0DD
S11323608093810080E28093B60083E08093B10083
S113237080918400909185004AE7209184003091F7
S113238085002817390708F44150442311F0C90186
S1132390F4CF9091B2008091B2008917E1F32091BB
S11323A08400309185009091B2008091B200891729
S11323B0E1F38091840090918500821B930B4096F9
S11323C075E0969587957A95E1F790930C03809341
S11323D00B031092B1008091B10080938100809131
S11323E081008093B6001092B20010928500109282
S11323F084008FEF87BB87B386BB8091B60085715D
S1132400E1F70A9A099A089A129A119A109A18B836
S11324108FEF87B90C98149810928500109284005D
S113242080916F00816080936F0080918100887F2C
S11324308260809381000E945F118823E1F78FEF0F
S11324408093770280E00E947A0420910002309108
S113245001022F5F3F4FC901AA27BB278093700257
S113246090937102A0937202B093730284E193E09B
S113247090931702809316028F969093190280937B
S1132480180282E793E090931B0280931A028FEF65
S11324909FEF9093FD028093FC029093FF02809340
S11324A0FE029093010380930003909303038093AF
S11324B002039093050380930403809100028295A4
S11324C0807F809312028FEF809369028091B6001F
S11324D080628093B6008091B60081FDFCCF82E0DB
S11324E08093B0008091B60080FDFCCF83E08093A0
S11324F0B1008091B60083FDFCCF86EE8093B300DB
S1132500809170008260809370000E9484020E9417
S11325105F118823E1F7812F99278FBF78940E9458
S11325201F0C8FB7F894482F552757C0809170001F
S1132530992783709070892B19F4E5E0F0E014C0BA
S11325408091B6008A71E1F78091B3009091B20056
S1132550891B8C3038F08091B200853F18F4E3E099
S1132560F0E002C0E2E0F0E080916E00867009F5D0
S113257080916F008E72E9F4809171008E72C9F4BB
S11325800CB407FC16C08091C100887191F480914D
S1132590C900887171F48091BC0082FD0AC08091E9
S11325A07A0087FF03C081E090E005C085E090E0F9
S11325B002C080E090E023B78E1708F4E82FFF27CD
S11325C0E453FF4FE491207F2160E22BE3BF789432
S11325D08895F89483B78E7F83BF80910A038F3FD9
S11325E009F4A4CF282F3327F901E85DFD4F80813A
S11325F080930A038F3F11F48093A9038FEF8083A4
S11326002F3F09F493CF4FBF822F0E94ED0D89CF46
S1132610ACE2B0E0EEE0F3E10C94BC14222E332ED5
S1132620442E552E662E772E882E992EFE01319635
S1132630A8E01192AA95E9F729823A824B825C823A
S11326406D827E828F829886FE013996B8E011925F
S1132650BA95E9F7A986BA86CB86DC86ED86FE862E
S11326600F87188B89819A81AB81BC8189A79AA72E
S1132670ABA7BCA77C018D018FEF9FEFA0E0B0E07A
S1132680E822F9220A231B2389A59AA5ABA5BCA598
S11326901D014424552489859A85AB85BC858DA369
S11326A09EA3AFA3B8A75C016D018FEF9FEFA0E0DD
S11326B0B0E0A822B922CA22DB228DA19EA1AFA13B
S11326C0B8A53D0188249924C801B701A601950144
S11326D00E949D1469A37AA38BA39CA3C801B7018C
S11326E0A40193010E949D147B018C01C201B101DC
S11326F0A60195010E949D145B016C01C201B10108
S1132700A40193010E949D143B014C01EA0CFB1CA3
S11327100C1D1D1D89A19AA1ABA1BCA19D0144273B
S113272055272E0D3F1D401F511F2A153B054C05F3
S11327305D0540F480E090E0A1E0B0E0680E791E11
S11327408A1E9B1ECA01AA27BB27860D971DA81D9A
S1132750B91D8D8F9E8FAF8FB8A3A9013327222770
S113276089A19AA1ABA1BCA1A070B070280F391F98
S11327704A1F5B1F298F3A8F4B8F5C8FA98CBA8CB1
S1132780CB8CDC8CED8CFE8C0F8D18A1FE01719628
S113279098E011929A95E9F7ED8AFE8A0F8B188FCB
S11327A02D813E814F8158856DA17EA18FA198A571
S11327B00E949D143B014C012D853E854F8558890F
S11327C069A57AA58BA59CA50E949D142D893E8997
S11327D04F89588D260F371F481F591F260D371D47
S11327E0481D591D2D8B3E8B4F8B588F6D887E88CD
S11327F08F88988C2A2D3B2D4C2D5D2D662D772DA1
S1132800882D992DE2E1AC960C94D814A0E1B0E0A7
S1132810ECE0F4E10C94BC14222E332E442E552EFD
S1132820662E772E882E992E002309F466C088E040
S1132830FE01319611928A95E9F729833A834B83F5
S11328405C836D837E838F829887E0E2E01B1E1693
S1132850CCF52D813E814F815885602F772767FD08
S11328607095DA01C901062E04C0B695A79597950F
S113287087950A94D2F78D879E87AF87B88B04C05B
S1132880220F331F441F551FEA95D2F789819A817D
S1132890AB81BC8104C0B695A795979587956A9539
S11328A0D2F7282B392B4A2B5B2B29873A874B8766
S11328B05C8729843A844B845C846D847E848F8411
S11328C098881BC01D861E861F86188A2E2F3327C4
S11328D027FD3095309521953F4F8D819E81AF81A5
S11328E0B88504C0B695A795979587952A95D2F78C
S11328F089879A87AB87BC87DCCF222D332D442D63
S1132900552D662D772D882D992DE2E160960C9436
S1132910D814AA1BBB1B51E107C0AA1FBB1FA617D3
S1132920B70710F0A61BB70B881F991F5A95A9F774
S113293080959095BC01CD010895629FD001739F4D
S1132940F001829FE00DF11D649FE00DF11D929F47
S1132950F00D839FF00D749FF00D659FF00D992786
S1132960729FB00DE11DF91F639FB00DE11DF91FAA
S1132970BD01CF01112408952F923F924F925F928F
S11329806F927F928F929F92AF92BF92CF92DF927B
S1132990EF92FF920F931F93CF93DF93CDB7DEB7E0
S11329A0CA1BDB0B0FB6F894DEBF0FBECDBF099474
S11329B02A88398848885F846E847D848C849B84CB
S11329C0AA84B984C884DF80EE80FD800C811B81D9
S11329D0AA81B981CE0FD11D0FB6F894DEBF0FBE08
S11329E0CDBFED010895DC0101C06D93415050400D
S10929F0E0F70895FFCF9B
S10F29F60100010022FFFFFFFFFFFF01B2
S9030000FC
